S00D00007A65706879722E73313945
S306500000001396
S3065000000100A8
S3065000000200A7
S3065000000300A6
S306500000041392
S3065000000500A4
S3065000000600A3
S3065000000700A2
S30650000008138E
S3065000000900A0
S3065000000A009F
S3065000000B009E
S3065000000C138A
S3065000000D009C
S3065000000E009B
S3065000000F009A
S306500000101386
S306500000110098
S306500000120097
S306500000130096
S306500000141382
S306500000150094
S306500000160093
S306500000170092
S30650000018137E
S306500000190090
S3065000001A008F
S3065000001B008E
S3065000001C137A
S3065000001D008C
S3065000001E008B
S3065000001F008A
S306500000201376
S306500000210088
S306500000220087
S306500000230086
S306500000241372
S306500000250084
S306500000260083
S306500000270082
S30650000028136E
S306500000290080
S3065000002A007F
S3065000002B007E
S3065000002C136A
S3065000002D007C
S3065000002E007B
S3065000002F007A
S306500000301366
S306500000310078
S306500000320077
S306500000330076
S306500000341362
S306500000350074
S306500000360073
S306500000370072
S30650000038135E
S306500000390070
S3065000003A006F
S3065000003B006E
S3065000003C6FFE
S3065000003D006C
S3065000003E80EB
S3065000003F0565
S306500000406FFA
S306500000410068
S306500000424027
S306500000430561
S306500000446FF6
S306500000450064
S306500000460063
S30650000047055D
S306500000486FF2
S306500000490060
S3065000004AC09F
S3065000004B045A
S3065000004C6FEE
S3065000004D005C
S3065000004E80DB
S3065000004F0456
S306500000506FEA
S306500000510058
S306500000524017
S306500000530452
S306500000546FE6
S306500000550054
S306500000560053
S30650000057044E
S306500000586FE2
S306500000590050
S3065000005AC08F
S3065000005B034B
S3065000005C6FDE
S3065000005D004C
S3065000005E80CB
S3065000005F0347
S306500000606FDA
S306500000610048
S306500000624007
S306500000630343
S306500000646FD6
S306500000650044
S306500000660043
S30650000067033F
S306500000686FD2
S306500000690040
S3065000006AC07F
S3065000006B023C
S3065000006C6FCE
S3065000006D003C
S3065000006E80BB
S3065000006F0238
S306500000706FCA
S306500000710038
S3065000007240F7
S306500000730234
S306500000746FC6
S306500000750034
S306500000760033
S306500000770230
S306500000786FC2
S306500000790030
S3065000007AC06F
S3065000007B012D
S3065000007C6FBE
S3065000007D002C
S3065000007E80AB
S3065000007F0129
S306500000806FBA
S306500000810028
S306500000820027
S306500000830125
S306500000846FB6
S306500000850024
S306500000860023
S306500000870121
S306500000886FB2
S306500000890020
S3065000008AC05F
S3065000008B001E
S3065000008C6FAE
S3065000008D001C
S3065000008E809B
S3065000008F001A
S30650000090EF2A
S3065000009130E8
S306500000921007
S3065000009322F4
S306500000941302
S306500000950113
S306500000960112
S30650000097F919
S3065000009823EE
S3065000009920F0
S3065000009A11FE
S3065000009B000E
S3065000009C23EA
S3065000009D22EA
S3065000009E31DA
S3065000009F000A
S306500000A023E6
S306500000A124E4
S306500000A241C6
S306500000A30006
S306500000A423E2
S306500000A526DE
S306500000A651B2
S306500000A70002
S306500000A823DE
S306500000A928D8
S306500000AA619E
S306500000AB00FE
S306500000AC23DA
S306500000AD2AD2
S306500000AE718A
S306500000AF00FA
S306500000B023D6
S306500000B12CCC
S306500000B2C136
S306500000B301F5
S306500000B423D2
S306500000B52EC6
S306500000B6D122
S306500000B701F1
S306500000B823CE
S306500000B920D0
S306500000BAE10E
S306500000BB03EB
S306500000BC23CA
S306500000BD22CA
S306500000BEF1FA
S306500000BF03E7
S306500000C023C6
S306500000C124C4
S306500000C2A146
S306500000C302E4
S306500000C423C2
S306500000C526BE
S306500000C6B132
S306500000C702E0
S306500000C823BE
S306500000C928B8
S306500000CAC11E
S306500000CB02DC
S306500000CC23BA
S306500000CD2AB2
S306500000CED10A
S306500000CF02D8
S306500000D023B6
S306500000D12CAC
S306500000D2E1F6
S306500000D302D4
S306500000D423B2
S306500000D52EA6
S306500000D6F1E2
S306500000D702D0
S306500000D823AE
S306500000D920B0
S306500000DA01CE
S306500000DB05C9
S306500000DC23AA
S306500000DD22AA
S306500000DE11BA
S306500000DF05C5
S306500000E0F3D6
S306500000E122A6
S306500000E210B7
S306500000E33492
S306500000E423A2
S306500000E524A0
S306500000E65172
S306500000E704BE
S306500000E8F3CE
S306500000E9229E
S306500000EA00BF
S306500000EB7C42
S306500000EC239A
S306500000ED2696
S306500000EE516A
S306500000EF04B6
S306500000F0EFCA
S306500000F100B8
S306500000F28037
S306500000F31C9A
S306500000F4EFC6
S306500000F500B4
S306500000F600B3
S306500000F7258D
S306500000F8139E
S306500000F903AD
S306500000FA00AF
S306500000FB00AE
S306500000FC634A
S306500000FD1A92
S306500000FE05A6
S306500000FF02A8
S306500001008325
S306500001012285
S306500001028125
S3065000010304A1
S306500001049311
S306500001058221
S306500001064260
S3065000010700A1
S30650000108237D
S30650000109247B
S3065000010A514D
S3065000010B0499
S3065000010CF3A9
S3065000010D2279
S3065000010E207A
S3065000010F3465
S306500001109305
S306500001110394
S30650000112F0A6
S306500001130194
S30650000114B3E1
S30650000115F2A1
S306500001167220
S306500001170091
S30650000118137D
S30650000119038C
S3065000011AB0DE
S3065000011B008D
S3065000011C6329
S3065000011D8407
S3065000011E6228
S3065000011F0A7F
S306500001201375
S306500001210582
S306500001220185
S306500001230085
S3065000012497ED
S306500001250083
S306500001260082
S306500001270081
S3065000012893ED
S3065000012980FF
S3065000012A007E
S3065000012B136A
S3065000012C6F0D
S3065000012D304B
S3065000012E106A
S3065000012F3643
S3065000013093E5
S306500001310275
S306500001320175
S306500001330075
S3065000013497DD
S306500001351360
S306500001360072
S306500001370170
S3065000013893DD
S3065000013983EC
S3065000013A036B
S3065000013B432A
S3065000013C0369
S3065000013DA1CA
S3065000013E4327
S3065000013F0069
S306500001401355
S306500001410166
S306500001420165
S30650000143FF66
S306500001442341
S306500001452043
S306500001465111
S306500001470061
S30650000148035D
S30650000149AEB1
S3065000014A035B
S3065000014B005D
S3065000014C1349
S3065000014D0E4D
S3065000014E1E3C
S3065000014F0059
S306500001502335
S30650000151A0B7
S30650000152C393
S306500001530154
S3065000015463F1
S30650000155084B
S30650000156034F
S306500001570051
S3065000015897B9
S30650000159004F
S3065000015A004E
S3065000015B004D
S3065000015C93B9
S3065000015D80CB
S3065000015E80CA
S3065000015F0346
S306500001606FD9
S306500001613017
S306500001621036
S306500001634BFA
S3065000016473D1
S30650000165251E
S306500001662022
S30650000167340D
S3065000016893AD
S30650000169023D
S3065000016AF04E
S3065000016B013C
S3065000016C3309
S3065000016D75C6
S3065000016E55E5
S3065000016F0039
S30650000170EF49
S306500001710037
S306500001720036
S306500001731B1A
S30650000174979D
S306500001750231
S306500001760032
S306500001770130
S30650000178939D
S3065000017982AD
S3065000017A022C
S3065000017BF13C
S3065000017C1319
S3065000017D1516
S3065000017E35F5
S3065000017F0029
S30650000180B375
S3065000018182A5
S30650000182A284
S306500001830025
S306500001840321
S30650000185A57E
S306500001860220
S306500001870021
S30650000188031D
S30650000189A37C
S3065000018A42DC
S3065000018B001D
S3065000018CE735
S3065000018D001B
S3065000018E0317
S3065000018F0019
S306500001901701
S306500001911304
S306500001920016
S306500001930114
S306500001941301
S306500001950310
S3065000019643CF
S306500001973DD4
S30650000198838D
S3065000019923EC
S3065000019A030B
S3065000019B000D
S3065000019C9379
S3065000019D8388
S3065000019EF317
S3065000019FFF0A
S306500001A023E5
S306500001A120E7
S306500001A27393
S306500001A30005
S306500001A48381
S306500001A522E1
S306500001A60101
S306500001A70001
S306500001A813ED
S306500001A9817E
S306500001AA02FC
S306500001AB00FD
S306500001AC8379
S306500001AD23D8
S306500001AE8377
S306500001AF00F9
S306500001B003F5
S306500001B1DE19
S306500001B2A353
S306500001B300F5
S306500001B49361
S306500001B50EE5
S306500001B600F2
S306500001B708E9
S306500001B8638D
S306500001B97E71
S306500001BADE10
S306500001BB09E4
S306500001BC03E9
S306500001BD2EBD
S306500001BE43A7
S306500001BF01E8
S306500001C06385
S306500001C10ADD
S306500001C27E68
S306500001C308DD
S306500001C4EFF5
S306500001C540A3
S306500001C69052
S306500001C703DE
S306500001C89749
S306500001C912CD
S306500001CA00DE
S306500001CB01DC
S306500001CC9349
S306500001CD8259
S306500001CEC218
S306500001CF39A0
S306500001D003D5
S306500001D1A334
S306500001D28254
S306500001D300D5
S306500001D423B1
S306500001D526AD
S306500001D6834F
S306500001D702CF
S306500001D823AD
S306500001D928A7
S306500001DA933B
S306500001DB02CB
S306500001DC23A9
S306500001DD2AA1
S306500001DE23A7
S306500001DF03C6
S306500001E023A5
S306500001E12C9B
S306500001E23393
S306500001E303C2
S306500001E423A1
S306500001E52E95
S306500001E6437F
S306500001E703BE
S306500001E8239D
S306500001E9209F
S306500001EA536B
S306500001EB05B8
S306500001EC2399
S306500001ED2299
S306500001EE6357
S306500001EF05B4
S306500001F02395
S306500001F12493
S306500001F27343
S306500001F305B0
S306500001F42391
S306500001F5268D
S306500001F6832F
S306500001F705AC
S306500001F8238D
S306500001F92887
S306500001FA931B
S306500001FB05A8
S306500001FC2389
S306500001FD2A81
S306500001FEA307
S306500001FF05A4
S306500002002384
S306500002012C7A
S30650000202B3F2
S30650000203059F
S306500002042380
S30650000205247E
S30650000206237E
S30650000207029E
S306500002089708
S30650000209138B
S3065000020A009D
S3065000020B019B
S3065000020C9308
S3065000020D8317
S3065000020E4356
S3065000020FFC9C
S306500002100394
S30650000211AEE8
S306500002120392
S306500002130094
S306500002142370
S30650000215286A
S30650000216C3CE
S306500002170789
S30650000218038C
S30650000219A3EB
S3065000021A424B
S3065000021B018B
S3065000021C2368
S3065000021DA4E6
S3065000021E6227
S3065000021F0088
S306500002200384
S306500002212165
S306500002228302
S306500002230282
S306500002240380
S30650000225245E
S30650000226C3BE
S30650000227027E
S3065000022883FC
S30650000229245A
S3065000022A037A
S3065000022B0379
S3065000022C0378
S3065000022D2951
S3065000022E4336
S3065000022F0375
S3065000023083F4
S30650000231294D
S3065000023283F2
S306500002330371
S306500002340370
S306500002352A48
S30650000236C3AE
S30650000237036D
S3065000023883EC
S306500002392A44
S3065000023A036A
S3065000023B0468
S3065000023C0368
S3065000023D2B3F
S3065000023E4326
S3065000023F0464
S3065000024083E4
S306500002412B3B
S3065000024283E2
S306500002430460
S306500002440360
S306500002452C36
S30650000246C39E
S30650000247045C
S3065000024883DC
S306500002492C32
S3065000024A035A
S3065000024B0557
S3065000024C0358
S3065000024D2D2D
S3065000024E4316
S3065000024F0553
S3065000025083D4
S306500002512D29
S3065000025283D2
S30650000253054F
S30650000254EF64
S306500002550052
S3065000025680D1
S306500002570947
S3065000025883CC
S30650000259222C
S3065000025A81CC
S3065000025B0448
S3065000025C73D8
S3065000025D90BA
S3065000025E1237
S3065000025F3414
S3065000026083C4
S306500002612224
S30650000262C184
S306500002630440
S3065000026473D0
S3065000026590B2
S30650000266023F
S306500002677CC4
S3065000026883BC
S30650000269201E
S3065000026A013C
S3065000026B003C
S3065000026C83B8
S3065000026D2119
S3065000026E41F8
S3065000026F0038
S306500002700334
S306500002712214
S3065000027281B4
S306500002730034
S3065000027483B0
S306500002752210
S30650000276C170
S306500002770030
S30650000278032C
S30650000279230B
S3065000027A012C
S3065000027B012B
S3065000027C83A8
S3065000027D2307
S3065000027E41E8
S3065000027F0127
S306500002800324
S306500002812EF8
S3065000028281A4
S306500002830123
S3065000028483A0
S306500002852EF4
S30650000286C160
S30650000287011F
S30650000288031C
S306500002892FEF
S3065000028A011C
S3065000028B021A
S3065000028C8398
S3065000028D2FEB
S3065000028E41D8
S3065000028F0216
S306500002900314
S3065000029125F1
S306500002928194
S306500002930212
S306500002948390
S3065000029525ED
S30650000296C150
S30650000297020E
S30650000298030C
S3065000029926E8
S3065000029A010C
S3065000029B0309
S3065000029C8388
S3065000029D26E4
S3065000029E41C8
S3065000029F0305
S306500002A00304
S306500002A127DF
S306500002A28184
S306500002A30301
S306500002A48380
S306500002A527DB
S306500002A6C140
S306500002A703FD
S306500002A803FC
S306500002A928D6
S306500002AA01FC
S306500002AB04F8
S306500002AC8378
S306500002AD28D2
S306500002AE41B8
S306500002AF04F4
S306500002B013E4
S306500002B101F5
S306500002B201F4
S306500002B307ED
S306500002B47380
S306500002B500F2
S306500002B600F1
S306500002B710E0
S306500002B8F3FC
S306500002B922CC
S306500002BA00ED
S306500002BB7B71
S306500002BC7378
S306500002BD23C7
S306500002BE10D9
S306500002BF7B6D
S306500002C0F3F4
S306500002C123C3
S306500002C220C5
S306500002C37B69
S306500002C423C0
S306500002C528BA
S306500002C65190
S306500002C704DC
S306500002C823BC
S306500002C92AB4
S306500002CA617C
S306500002CB04D8
S306500002CC23B8
S306500002CD2CAE
S306500002CE7168
S306500002CF04D4
S306500002D0F3E4
S306500002D122B4
S306500002D24095
S306500002D37B59
S306500002D47360
S306500002D523AF
S306500002D65081
S306500002D77B55
S306500002D8F3DC
S306500002D923AB
S306500002DA606D
S306500002DB7B51
S306500002DC23A8
S306500002DD2E9C
S306500002DE5178
S306500002DF04C4
S306500002E023A4
S306500002E120A6
S306500002E26164
S306500002E306BE
S306500002E423A0
S306500002E522A0
S306500002E67150
S306500002E706BA
S306500002E86758
S306500002E9803E
S306500002EA00BD
S306500002EB00BC
S306500002EC8338
S306500002ED2298
S306500002EE01B8
S306500002EF05B3
S306500002F003B4
S306500002F12393
S306500002F24174
S306500002F305AF
S306500002F48330
S306500002F5238F
S306500002F68130
S306500002F705AB
S306500002F8733C
S306500002F9901E
S306500002FA02AB
S306500002FB7B31
S306500002FC7338
S306500002FD109A
S306500002FE1396
S306500002FF7B2D
S306500003007333
S306500003019015
S306500003022381
S306500003037B28
S30650000304831F
S30650000305227F
S30650000306C1DF
S30650000307059A
S30650000308039B
S30650000309237A
S3065000030A019B
S3065000030B0695
S3065000030C8317
S3065000030D2376
S3065000030E4157
S3065000030F0691
S306500003107323
S306500003119005
S306500003124252
S306500003137B18
S30650000314731F
S306500003151081
S30650000316533D
S306500003177B14
S30650000318731B
S3065000031990FD
S3065000031A6329
S3065000031B7B10
S3065000031C6723
S3065000031D8009
S3065000031E0088
S3065000031F0087
S30650000320374F
S306500003214342
S306500003221074
S306500003231A69
S30650000324136F
S30650000325037E
S30650000326C3BD
S30650000327007F
S3065000032893EB
S30650000329037A
S3065000032A106C
S3065000032B007B
S3065000032C3347
S3065000032D9EDB
S3065000032EA3D5
S3065000032F0077
S306500003302353
S306500003312055
S30650000332C3B1
S306500003330172
S30650000334373B
S30650000335432E
S306500003361060
S306500003371A55
S30650000338135B
S30650000339036A
S3065000033AC3A9
S3065000033B016A
S3065000033C2347
S3065000033D2049
S3065000033EC3A5
S3065000033F0166
S3065000034067FF
S3065000034180E5
S306500003420064
S306500003430063
S30650000344F36F
S30650000345223F
S306500003462040
S30650000347342B
S3065000034893CB
S30650000349F26B
S3065000034AF26A
S3065000034B015A
S3065000034C1347
S3065000034D0356
S3065000034EF068
S3065000034F0057
S306500003501343
S306500003510550
S306500003520054
S306500003530053
S3065000035463EF
S30650000355C48D
S3065000035662EE
S30650000357004F
S30650000358133B
S306500003590548
S3065000035A1537
S3065000035B004B
S3065000035C67E3
S3065000035D80C9
S3065000035E0048
S3065000035F0047
S3065000036073D3
S306500003610045
S306500003620044
S306500003630043
S3065000036497AB
S30650000365122F
S306500003660040
S30650000367013E
S3065000036893AB
S3065000036982BB
S3065000036A023A
S3065000036B201B
S3065000036C0337
S3065000036DA396
S3065000036E82B6
S3065000036F0037
S3065000037083B3
S306500003712312
S306500003720331
S30650000373072C
S30650000374131F
S3065000037575BC
S30650000376151B
S30650000377002F
S30650000378F33B
S30650000379220B
S3065000037A0527
S3065000037B30FB
S3065000037C1317
S3065000037D85A4
S3065000037E0325
S3065000037F0027
S3065000038067BF
S3065000038180A5
S306500003820024
S306500003830023
S30650000384130F
S306500003850120
S30650000386011F
S30650000387FE21
S3065000038823FB
S3065000038928F5
S3065000038A21FB
S3065000038B011A
S3065000038C1307
S3065000038D0910
S3065000038E0513
S3065000038F0017
S3065000039037DF
S306500003910510
S306500003920014
S3065000039351C2
S3065000039413FF
S30650000395050C
S3065000039645CB
S3065000039718F7
S3065000039823EB
S306500003992EDF
S3065000039A11FB
S3065000039B000B
S3065000039C23E7
S3065000039D2CDD
S3065000039E8187
S3065000039F0007
S306500003A023E3
S306500003A12ADB
S306500003A29173
S306500003A30003
S306500003A423DF
S306500003A526DB
S306500003A631CF
S306500003A701FE
S306500003A8936B
S306500003A98479
S306500003AA05F7
S306500003AB00FB
S306500003ACEF0B
S306500003AD30C9
S306500003AE50A8
S306500003AF33C4
S306500003B037BF
S306500003B105F0
S306500003B200F4
S306500003B351A2
S306500003B4935F
S306500003B505EC
S306500003B609E7
S306500003B700EF
S306500003B813DB
S306500003B905E8
S306500003BAC527
S306500003BB18D3
S306500003BCEFFB
S306500003BD20C9
S306500003BED018
S306500003BF1BCC
S306500003C013D3
S306500003C104E1
S306500003C200E4
S306500003C300E3
S306500003C4B72B
S306500003C509D8
S306500003C600E0
S306500003C7518E
S306500003C8637B
S306500003C95E7F
S306500003CA24B8
S306500003CB01DA
S306500003CC0BCF
S306500003CDA633
S306500003CE4494
S306500003CF00D7
S306500003D09343
S306500003D105D0
S306500003D204D0
S306500003D300D3
S306500003D413BF
S306500003D5854C
S306500003D68947
S306500003D719B6
S306500003D8EFDF
S306500003D920AD
S306500003DA10BC
S306500003DB1AB1
S306500003DC13B7
S306500003DD04C5
S306500003DE14B4
S306500003DF00C7
S306500003E06F57
S306500003E1F0D5
S306500003E29F25
S306500003E3FEC5
S306500003E4833F
S306500003E520A1
S306500003E6C1FF
S306500003E701BE
S306500003E813AB
S306500003E905B8
S306500003EA00BC
S306500003EB00BB
S306500003EC03B7
S306500003ED2495
S306500003EE8137
S306500003EF01B6
S306500003F08333
S306500003F12491
S306500003F24173
S306500003F301B2
S306500003F403AF
S306500003F52988
S306500003F601AF
S306500003F701AE
S306500003F8832B
S306500003F92984
S306500003FAC1EB
S306500003FB00AB
S306500003FC1397
S306500003FD01A8
S306500003FE01A7
S306500003FF02A5
S30650000400673E
S306500004018024
S3065000040200A3
S3065000040300A2
S30650000404376A
S30650000405059B
S30650000406009F
S30650000407514D
S30650000408138A
S30650000409019B
S3065000040A019A
S3065000040BFF9B
S3065000040C1386
S3065000040D0593
S3065000040E4552
S3065000040F187E
S306500004102372
S30650000411266E
S306500004121182
S306500004130092
S30650000414236E
S30650000415246C
S30650000416810E
S30650000417008E
S30650000418EF9E
S30650000419305C
S3065000041A90FB
S3065000041B2C5E
S3065000041C1376
S3065000041D0484
S3065000041E0582
S3065000041F0086
S30650000420374E
S30650000421057F
S306500004220083
S306500004235131
S30650000424136E
S30650000425057B
S30650000426C5BA
S306500004271A64
S30650000428EF8E
S30650000429205C
S3065000042A106B
S3065000042B1565
S3065000042C83F6
S3065000042D2751
S3065000042E4433
S3065000042F0076
S30650000430373E
S30650000431056F
S306500004320073
S306500004335121
S3065000043493DE
S30650000435056B
S30650000436046B
S30650000437006E
S3065000043883EA
S30650000439A7C5
S3065000043A87E4
S3065000043B006A
S3065000043C1356
S3065000043D0563
S3065000043E4522
S3065000043F1B4B
S30650000440E77E
S3065000044180E4
S30650000442075C
S306500004430062
S3065000044483DE
S306500004452040
S30650000446C19E
S30650000447005E
S30650000448134A
S306500004490557
S3065000044A005B
S3065000044B005A
S3065000044C0356
S3065000044D2434
S3065000044E81D6
S3065000044F0056
S306500004501342
S306500004510153
S306500004520152
S306500004530151
S3065000045467EA
S3065000045580D0
S30650000456004F
S30650000457004E
S306500004583716
S306500004590547
S3065000045A004B
S3065000045B51F9
S3065000045C1336
S3065000045D0147
S3065000045E0146
S3065000045FFF47
S306500004601332
S30650000461053F
S3065000046245FE
S30650000463182A
S30650000464231E
S30650000465261A
S30650000466112E
S30650000467003E
S30650000468231A
S306500004692418
S3065000046A81BA
S3065000046B003A
S3065000046CEF4A
S3065000046D3008
S3065000046E50E7
S3065000046F270F
S306500004701322
S306500004710430
S30650000472052E
S306500004730032
S3065000047437FA
S30650000475052B
S30650000476002F
S3065000047751DD
S30650000478131A
S306500004790527
S3065000047AC566
S3065000047B1B0F
S3065000047CEF3A
S3065000047D30F8
S3065000047E50D7
S3065000047F2600
S3065000048083A2
S3065000048127FD
S3065000048244DF
S306500004830022
S30650000484839E
S30650000485A779
S3065000048647D8
S30650000487011D
S30650000488938A
S306500004890517
S3065000048A0516
S3065000048B001A
S3065000048C1306
S3065000048D0513
S3065000048E0413
S3065000048F0016
S30650000490E72E
S306500004918094
S30650000492070C
S306500004930012
S30650000494B75A
S3065000049517F9
S30650000496000F
S3065000049751BD
S3065000049823EA
S30650000499927A
S3065000049A0704
S3065000049B68A2
S3065000049C13F6
S3065000049D0701
S3065000049EC047
S3065000049FCF37
S306500004A0B74E
S306500004A117ED
S306500004A20003
S306500004A351B1
S306500004A4837E
S306500004A520E0
S306500004A6C13E
S306500004A700FE
S306500004A803FA
S306500004A924D8
S306500004AA817A
S306500004AB00FA
S306500004AC23D6
S306500004AD9464
S306500004AEE710
S306500004AF688E
S306500004B013E2
S306500004B101F3
S306500004B201F2
S306500004B301F1
S306500004B4678A
S306500004B58070
S306500004B600EF
S306500004B700EE
S306500004B8935A
S306500004B907E5
S306500004BA05E6
S306500004BB00EA
S306500004BC0BDE
S306500004BDC721
S306500004BE15D2
S306500004BF00E6
S306500004C06382
S306500004C106DE
S306500004C207DC
S306500004C300E2
S306500004C4AB36
S306500004C58060
S306500004C6E7F8
S306500004C700DE
S306500004C86F6E
S306500004C9F0EC
S306500004CA5F7C
S306500004CBFFDB
S306500004CC23B6
S306500004CD8058
S306500004CE07D0
S306500004CF00D6
S306500004D0676E
S306500004D18054
S306500004D200D3
S306500004D300D2
S306500004D4933E
S306500004D507C9
S306500004D605CA
S306500004D700CE
S306500004D813BA
S306500004D907C5
S306500004DA16B5
S306500004DB00CA
S306500004DC13B6
S306500004DD07C1
S306500004DEF7D0
S306500004DFFFC7
S306500004E06362
S306500004E114B0
S306500004E207BC
S306500004E300C2
S306500004E4675A
S306500004E58040
S306500004E600BF
S306500004E700BE
S306500004E88B32
S306500004E9C6F6
S306500004EA15A6
S306500004EB00BA
S306500004EC6356
S306500004ED8830
S306500004EE06B1
S306500004EF00B6
S306500004F0AB0A
S306500004F18034
S306500004F2D7DC
S306500004F300B2
S306500004F4139E
S306500004F506AA
S306500004F6F6B9
S306500004F7FFAF
S306500004F86F3E
S306500004F9F0BC
S306500004FA5F4C
S306500004FBFEAC
S306500004FCFBAE
S306500004FD4068
S306500004FE4661
S306500004FF00A6
S30650000500ABF9
S306500005018023
S30650000502079B
S3065000050300A1
S30650000504138D
S30650000505009F
S30650000506009E
S30650000507009D
S306500005086735
S30650000509801B
S3065000050A009A
S3065000050B0099
S3065000050C9305
S3065000050DF5A2
S3065000050EF5A1
S3065000050F0F86
S306500005109301
S30650000511078C
S30650000512058D
S306500005130091
S306500005140B85
S306500005154748
S306500005161579
S30650000517008D
S306500005186329
S306500005198803
S3065000051AE5A5
S3065000051B0089
S3065000051CE3A5
S3065000051D1A6D
S3065000051E077F
S3065000051FFE87
S306500005201371
S30650000521057E
S306500005220082
S306500005230081
S30650000524631D
S3065000052594EB
S306500005260579
S30650000527007D
S306500005281369
S3065000052985F6
S3065000052A0773
S3065000052B0079
S3065000052C6711
S3065000052D80F7
S3065000052E0076
S3065000052F0075
S306500005301361
S30650000531076C
S30650000532056D
S306500005330071
S3065000053493DD
S306500005350768
S306500005360569
S30650000537006D
S306500005383339
S3065000053985E6
S3065000053AE783
S3065000053B4029
S3065000053C8BDD
S3065000053DC6A1
S3065000053E174F
S3065000053F0065
S30650000540E381
S306500005419CC7
S30650000542065C
S30650000543FE63
S3065000054467F9
S3065000054580DF
S30650000546005E
S30650000547005D
S306500005488BD1
S306500005494714
S3065000054A1545
S3065000054B0059
S3065000054C0B4D
S3065000054DC790
S3065000054E1541
S3065000054F0055
S3065000055063F1
S3065000055196BD
S30650000552E76B
S306500005530051
S30650000554E36D
S306500005559AB5
S306500005560747
S30650000557FE4F
S306500005581339
S3065000055987C4
S3065000055A0743
S3065000055B0049
S3065000055C3315
S3065000055D85C2
S3065000055EE75F
S3065000055F4005
S3065000056067DD
S3065000056180C3
S306500005620042
S306500005630041
S30650000564132D
S306500005650639
S306500005661628
S30650000567003D
S306500005681329
S306500005690635
S3065000056AF644
S3065000056BFF3A
S3065000056C63D5
S3065000056D1621
S3065000056E0630
S3065000056F0035
S306500005701321
S30650000571052E
S306500005720032
S306500005730031
S3065000057467C9
S3065000057580AF
S30650000576002E
S30650000577002D
S306500005788BA1
S3065000057947E4
S3065000057A1515
S3065000057B0029
S3065000057C0B1D
S3065000057DC760
S3065000057E1511
S3065000057F0025
S3065000058063C1
S30650000581968D
S30650000582E73B
S306500005830021
S30650000584E33D
S30650000585928D
S306500005860717
S30650000587FE1F
S306500005881309
S306500005898794
S3065000058A0713
S3065000058B0019
S3065000058C33E5
S3065000058D8592
S3065000058EE72F
S3065000058F40D5
S3065000059067AD
S306500005918093
S306500005920012
S306500005930011
S3065000059413FD
S30650000595010E
S30650000596010D
S30650000597FF0E
S3065000059823E9
S3065000059926E5
S3065000059A11F9
S3065000059B0009
S3065000059C23E5
S3065000059D24E3
S3065000059E8185
S3065000059F0005
S306500005A023E1
S306500005A122E1
S306500005A29171
S306500005A30001
S306500005A413ED
S306500005A504FB
S306500005A605F9
S306500005A700FD
S306500005A89369
S306500005A98477
S306500005AA05F5
S306500005AB00F9
S306500005ACEF09
S306500005ADF007
S306500005AE5F97
S306500005AFF8FD
S306500005B033C1
S306500005B105EE
S306500005B2A44E
S306500005B300F1
S306500005B4935D
S306500005B5856A
S306500005B604EA
S306500005B700ED
S306500005B8EFFD
S306500005B9F0FB
S306500005BA1FCB
S306500005BBF0F9
S306500005BC8365
S306500005BD20C7
S306500005BEC125
S306500005BF00E5
S306500005C013D1
S306500005C105DE
S306500005C204DE
S306500005C300E1
S306500005C4835D
S306500005C524BB
S306500005C6419D
S306500005C700DD
S306500005C803D9
S306500005C924B7
S306500005CA8159
S306500005CB00D9
S306500005CC13C5
S306500005CD01D6
S306500005CE01D5
S306500005CF01D4
S306500005D0676D
S306500005D18053
S306500005D200D2
S306500005D300D1
S306500005D4933D
S306500005D5F6D9
S306500005D6F5D9
S306500005D70FBE
S306500005D89339
S306500005D907C4
S306500005DA05C5
S306500005DB00C9
S306500005DC13B5
S306500005DD07C0
S306500005DE16B0
S306500005DF00C5
S306500005E03391
S306500005E1B80B
S306500005E2279B
S306500005E3FAC7
S306500005E4635D
S306500005E50EB1
S306500005E608B6
S306500005E700BD
S306500005E813A9
S306500005E907B4
S306500005EAF7C3
S306500005EBFFBA
S306500005EC6355
S306500005ED14A3
S306500005EE07AF
S306500005EF00B5
S306500005F0674D
S306500005F18033
S306500005F200B2
S306500005F300B1
S306500005F4AB05
S306500005F5802F
S306500005F6D7D7
S306500005F700AD
S306500005F81399
S306500005F906A5
S306500005FAF6B4
S306500005FBFFAA
S306500005FC6F39
S306500005FDF0B7
S306500005FE5F47
S306500005FFFEA7
S30650000600B3F0
S30650000601B5ED
S30650000602851C
S30650000603EEB2
S30650000604138C
S306500006059707
S306500006068518
S30650000607009C
S30650000608B3E8
S30650000609E5B5
S3065000060AE5B4
S3065000060B0098
S3065000060C1384
S3065000060D97FF
S3065000060E0590
S3065000060F0193
S30650000610B3E0
S30650000611E5AD
S30650000612E5AC
S306500006130090
S30650000614137C
S306500006155737
S306500006162667
S30650000617008C
S306500006181378
S306500006198802
S3065000061A0782
S3065000061B0088
S3065000061C1374
S3065000061D077F
S3065000061E176E
S3065000061F0084
S306500006201370
S30650000621077B
S30650000622F78A
S30650000623FF81
S30650000624631C
S30650000625106E
S306500006260776
S30650000627027A
S306500006281368
S306500006295723
S3065000062A2653
S3065000062B0078
S3065000062C93E4
S3065000062D1561
S3065000062E274E
S3065000062F0074
S30650000630B3C0
S3065000063187EB
S30650000632B7BA
S306500006330070
S3065000063493DC
S306500006350569
S30650000636C0AD
S30650000637FF6D
S306500006383338
S306500006390664
S3065000063AB7B2
S3065000063B4226
S3065000063C1354
S3065000063D0660
S3065000063E164F
S3065000063F0064
S306500006406FF4
S306500006410062
S306500006420061
S30650000643015F
S306500006442B34
S30650000645223C
S30650000646B8A5
S30650000647005C
S306500006486FEC
S30650000649F06A
S3065000064A9FBA
S3065000064BFD5B
S3065000064CABAC
S3065000064D80D6
S3065000064ED77E
S3065000064F0054
S306500006501340
S30650000651064C
S30650000652F65B
S30650000653FF51
S30650000654E36C
S306500006551C32
S306500006560647
S30650000657FE4E
S3065000065867E4
S3065000065980CA
S3065000065A0049
S3065000065B0048
S3065000065C3710
S3065000065D65E1
S3065000065E083D
S3065000065F0143
S306500006601330
S30650000661053D
S30650000662053C
S306500006633010
S3065000066467D8
S3065000066580BE
S30650000666003D
S30650000667003C
S306500006680338
S306500006692317
S3065000066A45F4
S3065000066B0038
S3065000066C0334
S3065000066D2313
S3065000066E43F2
S3065000066F0034
S3065000067067CC
S306500006710032
S30650000672032E
S306500006730030
S30650000674032C
S30650000675230B
S3065000067645E8
S30650000677002C
S306500006780328
S306500006792307
S3065000067A43E6
S3065000067B0226
S3065000067C63C4
S3065000067D0422
S3065000067E0322
S3065000067F0024
S3065000068067BC
S306500006810022
S30650000682031E
S306500006830020
S3065000068467B8
S30650000685809E
S30650000686001D
S30650000687001C
S306500006881308
S306500006890119
S3065000068A0118
S3065000068BFF19
S3065000068C23F4
S3065000068D24F2
S3065000068E8194
S3065000068F0014
S3065000069037DC
S3065000069114FE
S306500006920011
S3065000069351BF
S3065000069423EC
S3065000069522EC
S30650000696917C
S30650000697000C
S3065000069823E8
S3065000069926E4
S3065000069A11F8
S3065000069B0008
S3065000069C9374
S3065000069D0402
S3065000069E0500
S3065000069F0004
S306500006A013F0
S306500006A104FE
S306500006A2847D
S306500006A31EE2
S306500006A4639C
S306500006A538C6
S306500006A6A558
S306500006A700FC
S306500006A803F8
S306500006A925D5
S306500006AA04F5
S306500006AB00F8
S306500006AC9364
S306500006AD05F1
S306500006AED025
S306500006AF00F4
S306500006B0EF04
S306500006B1F002
S306500006B29F52
S306500006B3FBF5
S306500006B403EC
S306500006B525C9
S306500006B604E9
S306500006B700EC
S306500006B89358
S306500006B9F5F5
S306500006BAF4F5
S306500006BB0FD9
S306500006BCEFF8
S306500006BDF0F6
S306500006BEDF06
S306500006BFFAEA
S306500006C08360
S306500006C120C2
S306500006C2C120
S306500006C300E0
S306500006C413CC
S306500006C58559
S306500006C604D9
S306500006C700DC
S306500006C803D8
S306500006C924B6
S306500006CA8158
S306500006CB00D8
S306500006CC8354
S306500006CD24B2
S306500006CE4194
S306500006CF00D4
S306500006D013C0
S306500006D101D1
S306500006D201D0
S306500006D301CF
S306500006D46768
S306500006D5804E
S306500006D600CD
S306500006D700CC
S306500006D813B8
S306500006D901C9
S306500006DA01C8
S306500006DBFECA
S306500006DC23A4
S306500006DD2C9A
S306500006DE8144
S306500006DF00C4
S306500006E0378C
S306500006E114AE
S306500006E200C1
S306500006E3516F
S306500006E4239C
S306500006E52698
S306500006E6318C
S306500006E701BB
S306500006E89328
S306500006E909B1
S306500006EA8435
S306500006EB1E9A
S306500006EC2394
S306500006ED2A8C
S306500006EE9124
S306500006EF00B4
S306500006F09320
S306500006F104AE
S306500006F205AC
S306500006F300B0
S306500006F403AC
S306500006F5A509
S306500006F609A4
S306500006F700AC
S306500006F82388
S306500006F92882
S306500006FA2188
S306500006FB01A7
S306500006FC1394
S306500006FD891D
S306500006FE05A0
S306500006FF00A4
S30650000700930F
S30650000701059C
S306500007028020
S30650000703009F
S30650000704237B
S306500007052E6F
S30650000706118B
S30650000707009B
S30650000708EFAB
S30650000709F0A9
S3065000070A1F79
S3065000070BF6A1
S3065000070C6333
S3065000070D1A7B
S3065000070E098B
S3065000070F0291
S30650000710038F
S30650000711A5EC
S306500007120987
S30650000713008F
S3065000071493FB
S306500007150588
S30650000716008C
S306500007170289
S30650000718EF9B
S30650000719F099
S3065000071A1F69
S3065000071BF592
S3065000071C0383
S3065000071DA5E0
S3065000071E097B
S3065000071F0083
S3065000072083FF
S306500007212061
S30650000722C1BF
S30650000723017E
S30650000724037B
S306500007252459
S3065000072681FB
S30650000727017A
S3065000072883F7
S306500007292455
S3065000072A4137
S3065000072B0176
S3065000072C0373
S3065000072D294C
S3065000072E0173
S3065000072F0172
S3065000073083EF
S306500007312948
S30650000732C1AF
S30650000733006F
S3065000073493DB
S306500007350568
S3065000073680EC
S30650000737006B
S306500007381357
S306500007390168
S3065000073A0167
S3065000073B0265
S3065000073C6FF7
S3065000073DF075
S3065000073EDF85
S3065000073FF271
S30650000740372B
S30650000741055C
S306500007420060
S30650000743510E
S30650000744134B
S306500007450558
S306500007460557
S306500007471F3C
S306500007481347
S306500007490455
S3065000074A84D4
S3065000074B1E39
S3065000074CEF67
S3065000074D2035
S3065000074EC094
S3065000074F62F1
S3065000075093BF
S3065000075189C8
S30650000752143C
S30650000753004F
S30650000754331B
S3065000075589C4
S306500007562428
S30650000757014A
S3065000075863E7
S306500007598CBD
S3065000075A2424
S3065000075B0146
S3065000075C8BBB
S3065000075DC580
S3065000075E192B
S3065000075F0043
S30650000760033F
S30650000761251C
S30650000762043C
S30650000763003F
S30650000764AB93
S3065000076580BD
S30650000766B488
S30650000767003B
S30650000768EF4B
S30650000769F049
S3065000076A1F19
S3065000076BF047
S3065000076C6FC7
S3065000076DF045
S3065000076EDF55
S3065000076FFE35
S30650000770032F
S30650000771250C
S30650000772042C
S30650000773002F
S30650000774939B
S306500007750528
S30650000776002C
S306500007770229
S30650000778EF3B
S30650000779F039
S3065000077A1F09
S3065000077BEF38
S3065000077C37EF
S3065000077D0520
S3065000077E0024
S3065000077F51D2
S30650000780839F
S306500007812001
S30650000782C15F
S30650000783011E
S30650000784031B
S3065000078524F9
S30650000786819B
S30650000787011A
S306500007888397
S3065000078924F5
S3065000078A41D7
S3065000078B0116
S3065000078C0313
S3065000078D29EC
S3065000078E0113
S3065000078F0112
S30650000790838F
S3065000079129E8
S30650000792C14F
S30650000793000F
S3065000079413FB
S306500007950508
S3065000079645C7
S306500007971FEC
S3065000079813F7
S306500007990108
S3065000079A0107
S3065000079B0205
S3065000079C6F97
S3065000079D20E5
S3065000079EC044
S3065000079F5DA6
S306500007A013EF
S306500007A10100
S306500007A201FF
S306500007A3FB04
S306500007A423DB
S306500007A522DB
S306500007A6916B
S306500007A704F7
S306500007A8B743
S306500007A914E5
S306500007AA00F8
S306500007AB51A6
S306500007AC23D3
S306500007AD20D5
S306500007AE21D3
S306500007AF05EE
S306500007B023CF
S306500007B12EC3
S306500007B231BF
S306500007B303EC
S306500007B423CB
S306500007B52CC1
S306500007B641AB
S306500007B703E8
S306500007B823C7
S306500007B92ABF
S306500007BA5197
S306500007BB03E4
S306500007BC23C3
S306500007BD28BD
S306500007BE6183
S306500007BF03E0
S306500007C023BF
S306500007C124BD
S306500007C2815F
S306500007C303DC
S306500007C423BB
S306500007C526B7
S306500007C611CB
S306500007C704D7
S306500007C823B7
S306500007C924B5
S306500007CA8157
S306500007CB04D3
S306500007CC23B3
S306500007CD26AF
S306500007CE7163
S306500007CF03D0
S306500007D023AF
S306500007D122AF
S306500007D2913F
S306500007D303CC
S306500007D423AB
S306500007D520AD
S306500007D6A12B
S306500007D703C8
S306500007D823A7
S306500007D92E9B
S306500007DAB117
S306500007DB01C6
S306500007DCB70F
S306500007DD1AAB
S306500007DE00C4
S306500007DF5172
S306500007E0378B
S306500007E11BA6
S306500007E200C0
S306500007E3516E
S306500007E413AB
S306500007E58A33
S306500007E604B8
S306500007E700BB
S306500007E83783
S306500007E919A0
S306500007EA00B8
S306500007EB5166
S306500007ECB7FF
S306500007ED199C
S306500007EE00B4
S306500007EF5162
S306500007F0377B
S306500007F10CA5
S306500007F200B0
S306500007F3515E
S306500007F4139B
S306500007F58429
S306500007F68A22
S306500007F71E8D
S306500007F803A7
S306500007F92584
S306500007FA04A4
S306500007FB00A7
S306500007FC9313
S306500007FD8C19
S306500007FE8A1A
S306500007FF1E85
S30650000800831E
S306500008012779
S30650000802455A
S30650000803009E
S30650000804831A
S30650000805A7F5
S30650000806C7D4
S306500008070397
S306500008086336
S306500008098C0C
S3065000080A0790
S3065000080B484E
S3065000080CE7AE
S3065000080D8014
S3065000080E078C
S3065000080F0092
S30650000810632E
S306500008110888
S30650000812058A
S306500008134846
S30650000814038A
S306500008152567
S306500008160487
S30650000817008A
S306500008188306
S306500008192761
S3065000081A4542
S3065000081B0086
S3065000081C8302
S3065000081DA7DD
S3065000081E87FC
S3065000081F037F
S30650000820631E
S306500008218000
S306500008220778
S306500008234836
S30650000824E796
S3065000082580FC
S306500008260774
S30650000827007A
S306500008286316
S306500008290C6C
S3065000082A0572
S3065000082B4630
S3065000082C0372
S3065000082D254F
S3065000082E046F
S3065000082F0072
S3065000083083EE
S306500008312749
S30650000832452A
S30650000833006E
S3065000083483EA
S30650000835A7C5
S30650000836C7A4
S306500008370268
S30650000838E386
S306500008398EDA
S3065000083A0760
S3065000083BFA6C
S3065000083CE77E
S3065000083D80E4
S3065000083E075C
S3065000083F0062
S30650000840E37E
S306500008410A56
S30650000842055A
S30650000843FA64
S30650000844035A
S306500008452438
S306500008460457
S30650000847005A
S3065000084883D6
S306500008492731
S3065000084A4413
S3065000084B0056
S3065000084C83D2
S3065000084DA7AD
S3065000084E074C
S3065000084F0151
S3065000085063EE
S3065000085182CE
S306500008520748
S30650000853024C
S30650000854133A
S306500008550646
S30650000856103B
S30650000857004A
S3065000085893B6
S306500008590543
S3065000085AF156
S3065000085B0046
S3065000085C1332
S3065000085D053F
S3065000085E043F
S3065000085F0042
S30650000860E75A
S3065000086180C0
S306500008620738
S30650000863003E
S3065000086463DA
S3065000086558E4
S306500008660536
S30650000867003A
S306500008681326
S306500008690533
S3065000086A0433
S3065000086B0036
S3065000086CEF46
S3065000086DF044
S3065000086E9F94
S3065000086FE052
S306500008706FC2
S306500008710030
S30650000872002F
S3065000087343EB
S3065000087483AA
S306500008752705
S306500008760B20
S306500008771E0C
S306500008781316
S306500008790D1B
S3065000087A0B1C
S3065000087B1E08
S3065000087C63C2
S3065000087D9E86
S3065000087E071C
S3065000087F0022
S30650000880B76A
S306500008811709
S30650000882001F
S3065000088351CD
S30650000884031A
S30650000885A577
S306500008860714
S3065000088720FA
S306500008889386
S306500008890513
S3065000088A0017
S3065000088B0016
S3065000088CEF26
S3065000088D30E4
S3065000088E50C3
S3065000088F41D1
S3065000089023EE
S3065000089120F0
S30650000892AD62
S30650000893000E
S3065000089463AA
S306500008950606
S306500008960506
S3065000089740CA
S3065000089813F6
S306500008998583
S3065000089AC443
S3065000089B1FE7
S3065000089CEF16
S3065000089D30D4
S3065000089E8083
S3065000089F59A9
S306500008A013EE
S306500008A1758B
S306500008A225DA
S306500008A300FE
S306500008A4639A
S306500008A500FC
S306500008A605F6
S306500008A724D6
S306500008A89366
S306500008A905F3
S306500008AAB047
S306500008ABFFF7
S306500008AC13E2
S306500008AD856F
S306500008AEC42F
S306500008AF1FD3
S306500008B003EE
S306500008B144AC
S306500008B2F1FE
S306500008B300EE
S306500008B403EA
S306500008B52DBF
S306500008B60DDE
S306500008B700EA
S306500008B8EFFA
S306500008B930B8
S306500008BA8067
S306500008BB5A8C
S306500008BC13D2
S306500008BD756F
S306500008BE459E
S306500008BF00E2
S306500008C0637E
S306500008C100E0
S306500008C205DA
S306500008C304DA
S306500008C4B726
S306500008C51CC0
S306500008C600DB
S306500008C75189
S306500008C89346
S306500008C90DCB
S306500008CA04D3
S306500008CBFDD9
S306500008CC9342
S306500008CD07CD
S306500008CE9043
S306500008CF00D2
S306500008D0933E
S306500008D18C44
S306500008D24C83
S306500008D31EB0
S306500008D4636A
S306500008D5F8D4
S306500008D6B714
S306500008D701C9
S306500008D89336
S306500008D907C1
S306500008DA10B7
S306500008DB00C6
S306500008DC23A2
S306500008DDA024
S306500008DEFCC7
S306500008DF00C2
S306500008E06F52
S306500008E100C0
S306500008E2407F
S306500008E30BB3
S306500008E4932A
S306500008E505B7
S306500008E6803B
S306500008E700BA
S306500008E813A6
S306500008E98533
S306500008EAC4F3
S306500008EB1F97
S306500008ECEFC6
S306500008ED3084
S306500008EE00B3
S306500008EF555D
S306500008F0B7FA
S306500008F11799
S306500008F200AF
S306500008F3515D
S306500008F4238A
S306500008F5A00C
S306500008F6BCEF
S306500008F701A9
S306500008F82386
S306500008F9AAFE
S306500008FA07A0
S306500008FB1E88
S306500008FC6F36
S306500008FDF0B4
S306500008FE9F04
S306500008FFEFB3
S30650000900138D
S30650000901851A
S30650000902C4DA
S306500009031F7E
S30650000904EFAD
S30650000905306B
S30650000906009A
S306500009075346
S306500009081385
S306500009097522
S3065000090A8511
S3065000090B0095
S3065000090C6331
S3065000090D048F
S3065000090E058D
S3065000090F0889
S3065000091093FD
S306500009110788
S30650000912048A
S30650000913FD90
S306500009141379
S306500009150784
S3065000091690FA
S306500009170089
S306500009186325
S306500009196027
S3065000091AF78F
S3065000091B0481
S3065000091C1371
S3065000091D85FE
S3065000091EC4BE
S3065000091F1F62
S30650000920EF91
S30650000921304F
S30650000922403E
S30650000923512C
S306500009241369
S306500009257506
S306500009260575
S306500009270178
S306500009281365
S306500009290770
S3065000092AA0D6
S3065000092B0075
S3065000092C6311
S3065000092D086B
S3065000092E056D
S3065000092F0071
S30650000930B7B9
S306500009311758
S30650000932006E
S30650000933511C
S3065000093493D9
S3065000093587E4
S306500009364723
S306500009371F4A
S306500009386FF9
S306500009390067
S3065000093AC0A6
S3065000093B0065
S3065000093CB7AD
S3065000093D174C
S3065000093E0062
S3065000093F5110
S3065000094093CD
S3065000094187D8
S306500009424717
S306500009431E3F
S3065000094483D9
S30650000945A6B5
S306500009460753
S306500009470059
S306500009483325
S3065000094984D3
S3065000094AE670
S3065000094B4213
S3065000094C1341
S3065000094D044F
S3065000094E044E
S3065000094FFD54
S30650000950232D
S30650000951A0AF
S3065000095287C7
S30650000953004D
S306500009546FDD
S30650000955F05B
S306500009561F2B
S30650000957EA5F
S3065000095893B5
S306500009590740
S3065000095AB096
S3065000095B0342
S3065000095C63E1
S3065000095D0043
S3065000095EF44E
S3065000095F023F
S3065000096093AD
S30650000961053A
S3065000096270CE
S30650000963FF3E
S306500009641329
S306500009650536
S30650000966CA70
S306500009671F1A
S30650000968EF49
S306500009693007
S3065000096A80B6
S3065000096B4FE6
S3065000096C93A1
S3065000096D052E
S3065000096EF042
S3065000096FFE33
S30650000970131D
S30650000971052A
S30650000972CA64
S306500009731F0E
S30650000974EF3D
S3065000097530FB
S30650000976C06A
S306500009774EDB
S306500009786FB9
S306500009790027
S3065000097AC066
S3065000097B0124
S3065000097C9391
S3065000097D051E
S3065000097E0022
S3065000097F0120
S30650000980130D
S30650000981859A
S30650000982C45A
S306500009831FFE
S30650000984EF2D
S3065000098530EB
S30650000986809A
S306500009874BCE
S306500009881305
S3065000098975A2
S3065000098A0511
S3065000098B0114
S3065000098CE331
S3065000098D1AF9
S3065000098E050D
S3065000098FFC15
S306500009906FA1
S30650000991F01F
S306500009925FAF
S30650000993E627
S306500009949379
S306500009950704
S3065000099660AA
S306500009970405
S3065000099863A5
S306500009990601
S3065000099AF412
S3065000099B0CF9
S3065000099C63A1
S3065000099DEC17
S3065000099E877B
S3065000099F0001
S306500009A0936D
S306500009A107F8
S306500009A230CE
S306500009A304F9
S306500009A46399
S306500009A500FB
S306500009A6F406
S306500009A706F3
S306500009A89365
S306500009A907F0
S306500009AA40B6
S306500009AB04F1
S306500009AC6391
S306500009AD0EE5
S306500009AEF4FE
S306500009AF00F1
S306500009B06F81
S306500009B100EF
S306500009B240AE
S306500009B312DB
S306500009B49359
S306500009B507E4
S306500009B6806A
S306500009B704E5
S306500009B86385
S306500009B906E1
S306500009BAF4F2
S306500009BB08DD
S306500009BC9351
S306500009BD07DC
S306500009BEE002
S306500009BF07DA
S306500009C0637D
S306500009C10CD3
S306500009C2F4EA
S306500009C30CD1
S306500009C46F6D
S306500009C500DB
S306500009C600DA
S306500009C711C8
S306500009C89345
S306500009C906D1
S306500009CAC90D
S306500009CB1EB7
S306500009CC379D
S306500009CD17BC
S306500009CE00D2
S306500009CF5180
S306500009D0834D
S306500009D1C708
S306500009D206C8
S306500009D300CD
S306500009D48349
S306500009D525A6
S306500009D64783
S306500009D71EAB
S306500009D86365
S306500009D9EED9
S306500009DAB70F
S306500009DB0EB7
S306500009DC13B1
S306500009DD853E
S306500009DED9E9
S306500009DF1EA3
S306500009E003BD
S306500009E14778
S306500009E205B9
S306500009E300BD
S306500009E413A9
S306500009E5F6C5
S306500009E6F5C5
S306500009E70FAA
S306500009E83385
S306500009E907B0
S306500009EAE6D0
S306500009EB00B5
S306500009EC2391
S306500009ED00B3
S306500009EEE5CD
S306500009EF00B1
S306500009F0B3FD
S306500009F18728
S306500009F2C7E7
S306500009F3406D
S306500009F43775
S306500009F505A6
S306500009F600AA
S306500009F75158
S306500009F82385
S306500009F98027
S306500009FAF6B0
S306500009FB00A5
S306500009FC1391
S306500009FD059E
S306500009FE851D
S306500009FF1F82
S30650000A006F30
S30650000A01009E
S30650000A02C0DD
S30650000A030399
S30650000A049308
S30650000A058614
S30650000A06D9C0
S30650000A071E7A
S30650000A08B7E0
S30650000A09177F
S30650000A0A0095
S30650000A0B5143
S30650000A0C0390
S30650000A0DC7CB
S30650000A0E068B
S30650000A0F0090
S30650000A10830C
S30650000A11A5E9
S30650000A124746
S30650000A131E6E
S30650000A146328
S30650000A15602A
S30650000A16B7D2
S30650000A170C7C
S30650000A1893F4
S30650000A19F78F
S30650000A1AF590
S30650000A1B0F75
S30650000A1C3350
S30650000A1D077B
S30650000A1EF78A
S30650000A1F4040
S30650000A20235C
S30650000A2180FE
S30650000A22E697
S30650000A23007C
S30650000A241368
S30650000A250773
S30650000A26C9B0
S30650000A271E5A
S30650000A2883F4
S30650000A294630
S30650000A2A076E
S30650000A2B0074
S30650000A2C373C
S30650000A2D056D
S30650000A2E0071
S30650000A2F511F
S30650000A30B3BC
S30650000A3187E7
S30650000A32D796
S30650000A33006C
S30650000A342348
S30650000A35006A
S30650000A36F772
S30650000A370068
S30650000A381354
S30650000A390561
S30650000A3A0560
S30650000A3B2044
S30650000A3CEF74
S30650000A3D2042
S30650000A3EC0A1
S30650000A3F332D
S30650000A406FF0
S30650000A41005E
S30650000A42401D
S30650000A430953
S30650000A441348
S30650000A450456
S30650000A46C990
S30650000A471E3A
S30650000A4883D4
S30650000A494511
S30650000A4A0451
S30650000A4B0054
S30650000A4C63F0
S30650000A4D84CE
S30650000A4E054C
S30650000A4F0848
S30650000A503718
S30650000A510549
S30650000A52004D
S30650000A5351FB
S30650000A541338
S30650000A550545
S30650000A5685C4
S30650000A571F29
S30650000A58EF58
S30650000A592026
S30650000A5A0045
S30650000A5B3212
S30650000A5C1330
S30650000A5D87BB
S30650000A5ED968
S30650000A5F1E22
S30650000A606FD0
S30650000A61003E
S30650000A62003D
S30650000A63023A
S30650000A641328
S30650000A6584B6
S30650000A66D960
S30650000A671E1A
S30650000A6883B4
S30650000A6945F1
S30650000A6A0431
S30650000A6B0034
S30650000A6C63D0
S30650000A6D84AE
S30650000A6E052C
S30650000A6F062A
S30650000A7037F8
S30650000A710529
S30650000A72002D
S30650000A7351DB
S30650000A741318
S30650000A750525
S30650000A760524
S30650000A772008
S30650000A78EF38
S30650000A792006
S30650000A7A0025
S30650000A7B30F4
S30650000A7C1310
S30650000A7D071B
S30650000A7EC958
S30650000A7F1E02
S30650000A80839C
S30650000A8147D7
S30650000A820716
S30650000A83001C
S30650000A848398
S30650000A8546D4
S30650000A860415
S30650000A870018
S30650000A88B364
S30650000A89878F
S30650000A8AD73E
S30650000A8B0014
S30650000A8C23F0
S30650000A8D0012
S30650000A8EF71A
S30650000A8F0010
S30650000A9023EC
S30650000A91000E
S30650000A920409
S30650000A93000C
S30650000A946F9C
S30650000A95000A
S30650000A960009
S30650000A970404
S30650000A9813F4
S30650000A998482
S30650000A9AD92C
S30650000A9B1EE6
S30650000A9C8380
S30650000A9D47BB
S30650000A9E04FD
S30650000A9F0000
S30650000AA0639C
S30650000AA18A74
S30650000AA207F6
S30650000AA302FA
S30650000AA437C4
S30650000AA505F5
S30650000AA600F9
S30650000AA751A7
S30650000AA89364
S30650000AA905F1
S30650000AAA10E5
S30650000AAB00F4
S30650000AAC13E0
S30650000AAD05ED
S30650000AAE05EC
S30650000AAF20D0
S30650000AB0EF00
S30650000AB120CE
S30650000AB2806D
S30650000AB32CC0
S30650000AB48368
S30650000AB545A5
S30650000AB604E5
S30650000AB700E8
S30650000AB803E4
S30650000AB945A1
S30650000ABAC91C
S30650000ABB1EC6
S30650000ABC13D0
S30650000ABD0DD5
S30650000ABE4D94
S30650000ABF00E0
S30650000AC0934C
S30650000AC18559
S30650000AC2F5E8
S30650000AC3FFDD
S30650000AC49348
S30650000AC5F5E5
S30650000AC6F5E4
S30650000AC70FC9
S30650000AC833A4
S30650000AC905D1
S30650000ACAAD28
S30650000ACB00D4
S30650000ACC23B0
S30650000ACD00D2
S30650000ACEB41D
S30650000ACF00D0
S30650000AD0EFE0
S30650000AD1F0DE
S30650000AD29F2E
S30650000AD3C00C
S30650000AD49338
S30650000AD505C5
S30650000AD6D0F9
S30650000AD7FFC9
S30650000AD813B4
S30650000AD905C1
S30650000ADACAFB
S30650000ADB1FA5
S30650000ADCEFD4
S30650000ADD3092
S30650000ADE4081
S30650000ADF3888
S30650000AE06F50
S30650000AE1F0CE
S30650000AE25F5E
S30650000AE3D1EB
S30650000AE49328
S30650000AE505B5
S30650000AE6E0D9
S30650000AE7FFB9
S30650000AE813A4
S30650000AE98531
S30650000AEAC4F1
S30650000AEB1F95
S30650000AECEFC4
S30650000AED3082
S30650000AEE4071
S30650000AEF3779
S30650000AF0337C
S30650000AF13579
S30650000AF21598
S30650000AF3FCB0
S30650000AF48328
S30650000AF54B5F
S30650000AF6F1B8
S30650000AF700A8
S30650000AF86344
S30650000AF900A6
S30650000AFA05A0
S30650000AFB02A2
S30650000AFC9310
S30650000AFD079B
S30650000AFEB0F1
S30650000AFF059B
S30650000B00E3BB
S30650000B019A03
S30650000B02FBA1
S30650000B03CECD
S30650000B049307
S30650000B050594
S30650000B062078
S30650000B070097
S30650000B081383
S30650000B098510
S30650000B0AC4D0
S30650000B0B1F74
S30650000B0CEFA3
S30650000B0D3061
S30650000B0E0090
S30650000B0F335C
S30650000B1093FB
S30650000B110588
S30650000B12404C
S30650000B13008B
S30650000B146F1B
S30650000B150089
S30650000B168008
S30650000B170681
S30650000B1893F3
S30650000B1987FE
S30650000B1A0B79
S30650000B1BFE85
S30650000B1C136F
S30650000B1D077A
S30650000B1EE0A0
S30650000B1F057A
S30650000B20631B
S30650000B217C01
S30650000B22F785
S30650000B230E6D
S30650000B246317
S30650000B25A2D7
S30650000B26DB9D
S30650000B270671
S30650000B2893E3
S30650000B29076E
S30650000B2AD0A4
S30650000B2B0073
S30650000B2C630F
S30650000B2DE68B
S30650000B2E77F9
S30650000B2F016E
S30650000B30630B
S30650000B31A8C5
S30650000B329BD1
S30650000B330A61
S30650000B346FFB
S30650000B35F079
S30650000B361F49
S30650000B37CC9B
S30650000B3893D3
S30650000B39075E
S30650000B3AB0B4
S30650000B3B0162
S30650000B3C63FF
S30650000B3D8ED3
S30650000B3EFB65
S30650000B3F025D
S30650000B4093CB
S30650000B410756
S30650000B42F06C
S30650000B430754
S30650000B44E377
S30650000B4598C1
S30650000B46FB5D
S30650000B47CA8D
S30650000B481343
S30650000B49074E
S30650000B4AC98B
S30650000B4B1E35
S30650000B4C83CF
S30650000B4D470A
S30650000B4E0749
S30650000B4F004F
S30650000B50E36B
S30650000B5182CB
S30650000B520745
S30650000B53CA81
S30650000B540347
S30650000B552524
S30650000B560D3B
S30650000B570047
S30650000B5893B3
S30650000B5987BE
S30650000B5AF74D
S30650000B5BFF44
S30650000B5C93AF
S30650000B5DF74A
S30650000B5EF749
S30650000B5F0F30
S30650000B60330B
S30650000B610538
S30650000B62F547
S30650000B63003B
S30650000B6483B7
S30650000B65C574
S30650000B66D95F
S30650000B671E19
S30650000B681323
S30650000B690530
S30650000B6A45EF
S30650000B6B0033
S30650000B6C230F
S30650000B6D0031
S30650000B6EF739
S30650000B6F002F
S30650000B70EF3F
S30650000B71F03D
S30650000B729F8D
S30650000B73B675
S30650000B746FBB
S30650000B75F039
S30650000B761F09
S30650000B77C85F
S30650000B789393
S30650000B790520
S30650000B7A1014
S30650000B7B0023
S30650000B7C130F
S30650000B7D859C
S30650000B7EC45C
S30650000B7F1F00
S30650000B80EF2F
S30650000B8130ED
S30650000B82C05C
S30650000B832BF0
S30650000B846FAB
S30650000B85F029
S30650000B861FF9
S30650000B87C750
S30650000B889383
S30650000B890D08
S30650000B8AC94B
S30650000B8B1EF5
S30650000B8C030F
S30650000B8D27EA
S30650000B8E0D03
S30650000B8F000F
S30650000B90838B
S30650000B91C746
S30650000B920DFF
S30650000B93000B
S30650000B9413F7
S30650000B958485
S30650000B96D92F
S30650000B971EE9
S30650000B988383
S30650000B9946BF
S30650000B9A0400
S30650000B9B0003
S30650000B9CB34F
S30650000B9D07FA
S30650000B9EF709
S30650000B9F00FF
S30650000BA0B34B
S30650000BA18776
S30650000BA2D725
S30650000BA300FB
S30650000BA403F7
S30650000BA5A554
S30650000BA60CEC
S30650000BA700F7
S30650000BA823D3
S30650000BA98273
S30650000BAA07ED
S30650000BAB00F3
S30650000BAC935F
S30650000BAD856C
S30650000BAE0BE5
S30650000BAF00EF
S30650000BB0EFFF
S30650000BB1F0FD
S30650000BB29F4D
S30650000BB3AB40
S30650000BB403E7
S30650000BB5A544
S30650000BB60CDC
S30650000BB700E7
S30650000BB89353
S30650000BB905E0
S30650000BBAA044
S30650000BBB00E3
S30650000BBCEFF3
S30650000BBDF0F1
S30650000BBEDF01
S30650000BBFAA35
S30650000BC0B727
S30650000BC117C6
S30650000BC200DC
S30650000BC3518A
S30650000BC48357
S30650000BC525B4
S30650000BC60DCB
S30650000BC700D7
S30650000BC803D3
S30650000BC9A530
S30650000BCA07CD
S30650000BCB1FB4
S30650000BCC23AF
S30650000BCD8051
S30650000BCE0DC3
S30650000BCF00CF
S30650000BD023AB
S30650000BD100CD
S30650000BD204C8
S30650000BD300CB
S30650000BD4EFDB
S30650000BD53099
S30650000BD610B8
S30650000BD70CBB
S30650000BD823A3
S30650000BD920A5
S30650000BDA0DB7
S30650000BDB00C3
S30650000BDC6F53
S30650000BDDF0D1
S30650000BDE9F21
S30650000BDFC1FE
S30650000BE0B707
S30650000BE117A6
S30650000BE200BC
S30650000BE3516A
S30650000BE48337
S30650000BE5A712
S30650000BE68731
S30650000BE71F98
S30650000BE8E3D3
S30650000BE9862F
S30650000BEA07AD
S30650000BEBC0F3
S30650000BEC03AF
S30650000BEDC7EA
S30650000BEED9D7
S30650000BEF1E91
S30650000BF0E3CB
S30650000BF1129B
S30650000BF207A5
S30650000BF3C0EB
S30650000BF41397
S30650000BF504A5
S30650000BF6C9DF
S30650000BF71E89
S30650000BF803A3
S30650000BF92580
S30650000BFA0D97
S30650000BFB00A3
S30650000BFC831F
S30650000BFD455C
S30650000BFE049C
S30650000BFF009F
S30650000C00138A
S30650000C010597
S30650000C024556
S30650000C03009A
S30650000C04E7B2
S30650000C058018
S30650000C060790
S30650000C070096
S30650000C088312
S30650000C09474D
S30650000C0A048F
S30650000C0B0092
S30650000C0C335E
S30650000C0D058B
S30650000C0EF59A
S30650000C0F008E
S30650000C10236A
S30650000C11008C
S30650000C12A4E7
S30650000C13008A
S30650000C146F1A
S30650000C15F098
S30650000C161F68
S30650000C17BEC8
S30650000C1893F2
S30650000C19077D
S30650000C1AC9BA
S30650000C1B1E64
S30650000C1C83FE
S30650000C1DCDB3
S30650000C1E0778
S30650000C1F007E
S30650000C20037A
S30650000C21C4B8
S30650000C22D9A2
S30650000C231E5C
S30650000C241366
S30650000C250771
S30650000C26E097
S30650000C27076F
S30650000C28B3C2
S30650000C29066E
S30650000C2AB4BF
S30650000C2B0171
S30650000C2CE38E
S30650000C2D442C
S30650000C2ED798
S30650000C2FBCB2
S30650000C30036A
S30650000C312D3F
S30650000C320D5E
S30650000C33006A
S30650000C340366
S30650000C35A5C3
S30650000C360C5B
S30650000C370066
S30650000C381352
S30650000C3987DD
S30650000C3A1D46
S30650000C3B0062
S30650000C3C93CE
S30650000C3D85DB
S30650000C3E0B54
S30650000C3F005E
S30650000C40233A
S30650000C4180DC
S30650000C42E774
S30650000C43005A
S30650000C44EF6A
S30650000C45F068
S30650000C465FF8
S30650000C47A2B4
S30650000C48B3A2
S30650000C49074D
S30650000C4ABD96
S30650000C4B0151
S30650000C4C63EE
S30650000C4D163A
S30650000C4E044B
S30650000C4F004E
S30650000C50232A
S30650000C5182CA
S30650000C5277D4
S30650000C530149
S30650000C546FDA
S30650000C55F058
S30650000C561F28
S30650000C57BA8C
S30650000C580342
S30650000C59CD77
S30650000C5A47FC
S30650000C5B0042
S30650000C5C93AE
S30650000C5D8DB3
S30650000C5E57E8
S30650000C5F003E
S30650000C60231A
S30650000C6182BA
S30650000C6277C4
S30650000C630139
S30650000C64B782
S30650000C650731
S30650000C660037
S30650000C6751E5
S30650000C681322
S30650000C6985AF
S30650000C6A072C
S30650000C6B1F13
S30650000C6CEF42
S30650000C6D2010
S30650000C6EC06F
S30650000C6F101E
S30650000C70032A
S30650000C71A587
S30650000C720C1F
S30650000C73002A
S30650000C749396
S30650000C750523
S30650000C760D1A
S30650000C770026
S30650000C78EF36
S30650000C79F034
S30650000C7A1F04
S30650000C7B9F83
S30650000C7C130E
S30650000C7D041C
S30650000C7EF42B
S30650000C7FFF1F
S30650000C80839A
S30650000C81C755
S30650000C820D0E
S30650000C83001A
S30650000C841306
S30650000C8574A4
S30650000C86F423
S30650000C870F07
S30650000C88AB6A
S30650000C898094
S30650000C8AAD66
S30650000C8B0111
S30650000C8C13FE
S30650000C8D8D83
S30650000C8E0708
S30650000C8F000E
S30650000C90E32A
S30650000C9110FC
S30650000C920407
S30650000C93FE0C
S30650000C9413F6
S30650000C950503
S30650000C964CBB
S30650000C971FE7
S30650000C98EF16
S30650000C9920E4
S30650000C9A0003
S30650000C9B0EF4
S30650000C9C6F92
S30650000C9DF010
S30650000C9E9F60
S30650000C9FB549
S30650000CA0837A
S30650000CA120DC
S30650000CA2C13A
S30650000CA304F6
S30650000CA403F6
S30650000CA524D4
S30650000CA68176
S30650000CA704F2
S30650000CA88372
S30650000CA924D0
S30650000CAA41B2
S30650000CAB04EE
S30650000CAC03EE
S30650000CAD29C7
S30650000CAE01EE
S30650000CAF04EA
S30650000CB0836A
S30650000CB129C3
S30650000CB2C12A
S30650000CB303E7
S30650000CB403E6
S30650000CB52ABE
S30650000CB68166
S30650000CB703E3
S30650000CB88362
S30650000CB92ABA
S30650000CBA41A2
S30650000CBB03DF
S30650000CBC03DE
S30650000CBD2BB5
S30650000CBE01DE
S30650000CBF03DB
S30650000CC0835A
S30650000CC12BB1
S30650000CC2C11A
S30650000CC302D8
S30650000CC403D6
S30650000CC52CAC
S30650000CC68156
S30650000CC702D4
S30650000CC88352
S30650000CC92CA8
S30650000CCA4192
S30650000CCB02D0
S30650000CCC03CE
S30650000CCD2DA3
S30650000CCE01CE
S30650000CCF02CC
S30650000CD0834A
S30650000CD12D9F
S30650000CD2C10A
S30650000CD301C9
S30650000CD413B6
S30650000CD501C7
S30650000CD601C6
S30650000CD705C1
S30650000CD8675E
S30650000CD98044
S30650000CDA00C3
S30650000CDB00C2
S30650000CDC13AE
S30650000CDD01BF
S30650000CDE01BE
S30650000CDFFEC0
S30650000CE0239A
S30650000CE12C90
S30650000CE2813A
S30650000CE300BA
S30650000CE43782
S30650000CE514A4
S30650000CE600B7
S30650000CE75165
S30650000CE82392
S30650000CE92A8A
S30650000CEA9122
S30650000CEB00B2
S30650000CECB7FA
S30650000CED1799
S30650000CEE00AF
S30650000CEF515D
S30650000CF0931A
S30650000CF104A8
S30650000CF28427
S30650000CF31E8C
S30650000CF42386
S30650000CF5A008
S30650000CF6A700
S30650000CF72086
S30650000CF8B7EE
S30650000CF9178D
S30650000CFA00A3
S30650000CFB5151
S30650000CFC039E
S30650000CFDA5FB
S30650000CFE049B
S30650000CFF009E
S30650000D002379
S30650000D01A8F3
S30650000D02B7E3
S30650000D031E7B
S30650000D04B7E1
S30650000D051780
S30650000D060096
S30650000D075144
S30650000D082371
S30650000D09ACE7
S30650000D0AC7CB
S30650000D0B1E73
S30650000D0C236D
S30650000D0D2E61
S30650000D0E117D
S30650000D0F008D
S30650000D10EF9D
S30650000D11F09B
S30650000D125F2B
S30650000D1396F3
S30650000D140385
S30650000D15A5E2
S30650000D160482
S30650000D170085
S30650000D181371
S30650000D19047F
S30650000D1A84FE
S30650000D1B1E63
S30650000D1C83FD
S30650000D1D2758
S30650000D1E4539
S30650000D1F007D
S30650000D2083F9
S30650000D21A7D4
S30650000D2287F3
S30650000D230178
S30650000D246315
S30650000D2584F3
S30650000D26076F
S30650000D270075
S30650000D28E78D
S30650000D2980F3
S30650000D2A076B
S30650000D2B0071
S30650000D2C036D
S30650000D2D254A
S30650000D2E046A
S30650000D2F006D
S30650000D3083E9
S30650000D312744
S30650000D324525
S30650000D330069
S30650000D346305
S30650000D3580E7
S30650000D36075F
S30650000D370461
S30650000D3883E1
S30650000D39A7BC
S30650000D3A075B
S30650000D3B045D
S30650000D3C63FD
S30650000D3D8CD3
S30650000D3E0757
S30650000D3F025B
S30650000D40B7A5
S30650000D410556
S30650000D42005A
S30650000D435009
S30650000D4493C5
S30650000D4585D2
S30650000D460551
S30650000D477ADB
S30650000D48E76D
S30650000D4980D3
S30650000D4A074B
S30650000D4B0051
S30650000D4C6FE1
S30650000D4D004F
S30650000D4E80CE
S30650000D4F024B
S30650000D50E765
S30650000D5180CB
S30650000D520743
S30650000D530049
S30650000D5463E5
S30650000D55083F
S30650000D560541
S30650000D570243
S30650000D580341
S30650000D59251E
S30650000D5A043E
S30650000D5B0041
S30650000D5C83BD
S30650000D5D2718
S30650000D5E45F9
S30650000D5F003D
S30650000D6083B9
S30650000D61A794
S30650000D620733
S30650000D630138
S30650000D6463D5
S30650000D6588AF
S30650000D66072F
S30650000D670035
S30650000D681321
S30650000D69062D
S30650000D6A1022
S30650000D6B0031
S30650000D6C939D
S30650000D6D052A
S30650000D6EF13D
S30650000D6F002D
S30650000D70E745
S30650000D7180AB
S30650000D720723
S30650000D730029
S30650000D740325
S30650000D752502
S30650000D760422
S30650000D770025
S30650000D7883A1
S30650000D7927FC
S30650000D7A45DD
S30650000D7B0021
S30650000D7C839D
S30650000D7DA778
S30650000D7EC757
S30650000D7F021B
S30650000D80E339
S30650000D819883
S30650000D820713
S30650000D83FC1D
S30650000D840315
S30650000D8525F2
S30650000D860412
S30650000D870015
S30650000D888391
S30650000D8927EC
S30650000D8A45CD
S30650000D8B0011
S30650000D8C838D
S30650000D8DA768
S30650000D8E0707
S30650000D8F020B
S30650000D9063A9
S30650000D918487
S30650000D920703
S30650000D930009
S30650000D94E721
S30650000D958087
S30650000D9607FF
S30650000D970005
S30650000D988381
S30650000D9920E3
S30650000D9AC141
S30650000D9B0100
S30650000D9C03FD
S30650000D9D24DB
S30650000D9E817D
S30650000D9F01FC
S30650000DA08379
S30650000DA124D7
S30650000DA241B9
S30650000DA301F8
S30650000DA413E5
S30650000DA501F6
S30650000DA601F5
S30650000DA702F3
S30650000DA8678D
S30650000DA98073
S30650000DAA00F2
S30650000DAB00F1
S30650000DAC37B9
S30650000DAD05EA
S30650000DAE00EE
S30650000DAF509D
S30650000DB013D9
S30650000DB105E6
S30650000DB28565
S30650000DB36881
S30650000DB46F79
S30650000DB510D7
S30650000DB65096
S30650000DB73FA6
S30650000DB837AD
S30650000DB905DE
S30650000DBA00E2
S30650000DBB5190
S30650000DBC13CD
S30650000DBD01DE
S30650000DBE01DD
S30650000DBFFFDE
S30650000DC013C9
S30650000DC105D6
S30650000DC28555
S30650000DC320B9
S30650000DC423B5
S30650000DC526B1
S30650000DC611C5
S30650000DC700D5
S30650000DC8EFE5
S30650000DC930A3
S30650000DCA8052
S30650000DCB11C0
S30650000DCCB719
S30650000DCD17B8
S30650000DCE00CE
S30650000DCF517C
S30650000DD023A9
S30650000DD1A427
S30650000DD2A723
S30650000DD31EAB
S30650000DD4EFD9
S30650000DD5F0D7
S30650000DD69F27
S30650000DD7FDC8
S30650000DD88341
S30650000DD920A3
S30650000DDAC101
S30650000DDB00C1
S30650000DDC13AD
S30650000DDD05BA
S30650000DDE00BE
S30650000DDF00BD
S30650000DE013A9
S30650000DE101BA
S30650000DE201B9
S30650000DE301B8
S30650000DE46751
S30650000DE58037
S30650000DE600B6
S30650000DE700B5
S30650000DE813A1
S30650000DE901B2
S30650000DEA01B1
S30650000DEBFFB2
S30650000DEC03AD
S30650000DED2689
S30650000DEE8529
S30650000DEF00AD
S30650000DF02389
S30650000DF12685
S30650000DF21199
S30650000DF300A9
S30650000DF41395
S30650000DF507A0
S30650000DF61096
S30650000DF700A5
S30650000DF8A301
S30650000DF9049F
S30650000DFA069C
S30650000DFB00A1
S30650000DFC732D
S30650000DFD3768
S30650000DFE0797
S30650000DFF306D
S30650000E008318
S30650000E012575
S30650000E024653
S30650000E030098
S30650000E043364
S30650000E05375F
S30650000E06177E
S30650000E07FC98
S30650000E086330
S30650000E098A08
S30650000E0A058C
S30650000E0B068A
S30650000E0C830C
S30650000E0D2767
S30650000E0E0588
S30650000E0F008C
S30650000E108308
S30650000E11A7E3
S30650000E128702
S30650000E130088
S30650000E148304
S30650000E15A7DF
S30650000E16077E
S30650000E170084
S30650000E186320
S30650000E198200
S30650000E1A077A
S30650000E1B067A
S30650000E1CB3CC
S30650000E1DD7A7
S30650000E1EB7C6
S30650000E1F027A
S30650000E200378
S30650000E212357
S30650000E2285F4
S30650000E230078
S30650000E2483F4
S30650000E252650
S30650000E260372
S30650000E270074
S30650000E281360
S30650000E290E64
S30650000E2A0071
S30650000E2BF878
S30650000E2C93DC
S30650000E2D86E8
S30650000E2EC6A7
S30650000E2F006C
S30650000E300368
S30650000E31C8A2
S30650000E320663
S30650000E330068
S30650000E342344
S30650000E3580E6
S30650000E36C69F
S30650000E370163
S30650000E381350
S30650000E3978EA
S30650000E3AF869
S30650000E3B0F51
S30650000E3C93CC
S30650000E3DD886
S30650000E3E4716
S30650000E3F005C
S30650000E4093C8
S30650000E41F664
S30650000E42F861
S30650000E430F49
S30650000E4483D4
S30650000E45282E
S30650000E4685D0
S30650000E470054
S30650000E4883D0
S30650000E49A8AA
S30650000E4A0849
S30650000E4B0050
S30650000E4C93BC
S30650000E4DD777
S30650000E4EC786
S30650000E4F004C
S30650000E502328
S30650000E5180CA
S30650000E52D871
S30650000E530048
S30650000E5483C4
S30650000E552620
S30650000E5685C0
S30650000E570044
S30650000E5883C0
S30650000E59A69C
S30650000E5A063B
S30650000E5B0040
S30650000E5C93AC
S30650000E5DF747
S30650000E5EF746
S30650000E5F0F2D
S30650000E6093A8
S30650000E6186B4
S30650000E6246F3
S30650000E630038
S30650000E642314
S30650000E6580B6
S30650000E66F63F
S30650000E670034
S30650000E6883B0
S30650000E69270B
S30650000E6A85AC
S30650000E6B0030
S30650000E6C83AC
S30650000E6DA787
S30650000E6E0726
S30650000E6F002C
S30650000E709398
S30650000E7187A3
S30650000E72C762
S30650000E730028
S30650000E742304
S30650000E7580A6
S30650000E76071E
S30650000E770123
S30650000E782300
S30650000E792200
S30650000E7AB36E
S30650000E7B0020
S30650000E7C839C
S30650000E7D27F7
S30650000E7E8598
S30650000E7F001C
S30650000E808398
S30650000E81A773
S30650000E820712
S30650000E830018
S30650000E849384
S30650000E850610
S30650000E8630E5
S30650000E870014
S30650000E889380
S30650000E89878B
S30650000E8AC74A
S30650000E8B0010
S30650000E8C23EC
S30650000E8D808E
S30650000E8ED736
S30650000E8F000C
S30650000E908388
S30650000E9147C3
S30650000E928683
S30650000E930008
S30650000E949374
S30650000E950600
S30650000E96B055
S30650000E970004
S30650000E98B350
S30650000E99B74B
S30650000E9A17EA
S30650000E9BFC04
S30650000E9C639C
S30650000E9D847A
S30650000E9E07F6
S30650000E9F00FC
S30650000EA09368
S30650000EA106F4
S30650000EA2B049
S30650000EA302F6
S30650000EA48374
S30650000EA527CF
S30650000EA68570
S30650000EA700F4
S30650000EA88370
S30650000EA9A74B
S30650000EAA07EA
S30650000EAB00F0
S30650000EAC935C
S30650000EAD8767
S30650000EAE07E6
S30650000EAF01EB
S30650000EB023C8
S30650000EB1806A
