S00D00007A65706879722E73313945
S306500000001396
S3065000000100A8
S3065000000200A7
S3065000000300A6
S306500000041392
S3065000000500A4
S3065000000600A3
S3065000000700A2
S30650000008138E
S3065000000900A0
S3065000000A009F
S3065000000B009E
S3065000000C138A
S3065000000D009C
S3065000000E009B
S3065000000F009A
S306500000101386
S306500000110098
S306500000120097
S306500000130096
S306500000141382
S306500000150094
S306500000160093
S306500000170092
S30650000018137E
S306500000190090
S3065000001A008F
S3065000001B008E
S3065000001C137A
S3065000001D008C
S3065000001E008B
S3065000001F008A
S306500000201376
S306500000210088
S306500000220087
S306500000230086
S306500000241372
S306500000250084
S306500000260083
S306500000270082
S30650000028136E
S306500000290080
S3065000002A007F
S3065000002B007E
S3065000002C136A
S3065000002D007C
S3065000002E007B
S3065000002F007A
S306500000301366
S306500000310078
S306500000320077
S306500000330076
S306500000341362
S306500000350074
S306500000360073
S306500000370072
S30650000038135E
S306500000390070
S3065000003A006F
S3065000003B006E
S3065000003C6FFE
S3065000003D006C
S3065000003E80EB
S3065000003F0565
S306500000406FFA
S306500000410068
S306500000424027
S306500000430561
S306500000446FF6
S306500000450064
S306500000460063
S30650000047055D
S306500000486FF2
S306500000490060
S3065000004AC09F
S3065000004B045A
S3065000004C6FEE
S3065000004D005C
S3065000004E80DB
S3065000004F0456
S306500000506FEA
S306500000510058
S306500000524017
S306500000530452
S306500000546FE6
S306500000550054
S306500000560053
S30650000057044E
S306500000586FE2
S306500000590050
S3065000005AC08F
S3065000005B034B
S3065000005C6FDE
S3065000005D004C
S3065000005E80CB
S3065000005F0347
S306500000606FDA
S306500000610048
S306500000624007
S306500000630343
S306500000646FD6
S306500000650044
S306500000660043
S30650000067033F
S306500000686FD2
S306500000690040
S3065000006AC07F
S3065000006B023C
S3065000006C6FCE
S3065000006D003C
S3065000006E80BB
S3065000006F0238
S306500000706FCA
S306500000710038
S3065000007240F7
S306500000730234
S306500000746FC6
S306500000750034
S306500000760033
S306500000770230
S306500000786FC2
S306500000790030
S3065000007AC06F
S3065000007B012D
S3065000007C6FBE
S3065000007D002C
S3065000007E80AB
S3065000007F0129
S306500000806FBA
S306500000810028
S306500000820027
S306500000830125
S306500000846FB6
S306500000850024
S306500000860023
S306500000870121
S306500000886FB2
S306500000890020
S3065000008AC05F
S3065000008B001E
S3065000008C6FAE
S3065000008D001C
S3065000008E809B
S3065000008F001A
S30650000090EF2A
S3065000009130E8
S306500000920017
S3065000009348CE
S306500000941302
S306500000950113
S306500000960112
S30650000097F919
S3065000009823EE
S3065000009920F0
S3065000009A11FE
S3065000009B000E
S3065000009C23EA
S3065000009D22EA
S3065000009E31DA
S3065000009F000A
S306500000A023E6
S306500000A124E4
S306500000A241C6
S306500000A30006
S306500000A423E2
S306500000A526DE
S306500000A651B2
S306500000A70002
S306500000A823DE
S306500000A928D8
S306500000AA619E
S306500000AB00FE
S306500000AC23DA
S306500000AD2AD2
S306500000AE718A
S306500000AF00FA
S306500000B023D6
S306500000B12CCC
S306500000B2C136
S306500000B301F5
S306500000B423D2
S306500000B52EC6
S306500000B6D122
S306500000B701F1
S306500000B823CE
S306500000B920D0
S306500000BAE10E
S306500000BB03EB
S306500000BC23CA
S306500000BD22CA
S306500000BEF1FA
S306500000BF03E7
S306500000C023C6
S306500000C124C4
S306500000C2A146
S306500000C302E4
S306500000C423C2
S306500000C526BE
S306500000C6B132
S306500000C702E0
S306500000C823BE
S306500000C928B8
S306500000CAC11E
S306500000CB02DC
S306500000CC23BA
S306500000CD2AB2
S306500000CED10A
S306500000CF02D8
S306500000D023B6
S306500000D12CAC
S306500000D2E1F6
S306500000D302D4
S306500000D423B2
S306500000D52EA6
S306500000D6F1E2
S306500000D702D0
S306500000D823AE
S306500000D920B0
S306500000DA01CE
S306500000DB05C9
S306500000DC23AA
S306500000DD22AA
S306500000DE11BA
S306500000DF05C5
S306500000E0F3D6
S306500000E122A6
S306500000E210B7
S306500000E33492
S306500000E423A2
S306500000E524A0
S306500000E65172
S306500000E704BE
S306500000E8F3CE
S306500000E9229E
S306500000EA00BF
S306500000EB7C42
S306500000EC239A
S306500000ED2696
S306500000EE516A
S306500000EF04B6
S306500000F0EFCA
S306500000F100B8
S306500000F28037
S306500000F31C9A
S306500000F4EFC6
S306500000F500B4
S306500000F600B3
S306500000F7258D
S306500000F8139E
S306500000F903AD
S306500000FA00AF
S306500000FB00AE
S306500000FC634A
S306500000FD1A92
S306500000FE05A6
S306500000FF02A8
S306500001008325
S306500001012285
S306500001028125
S3065000010304A1
S306500001049311
S306500001058221
S306500001064260
S3065000010700A1
S30650000108237D
S30650000109247B
S3065000010A514D
S3065000010B0499
S3065000010CF3A9
S3065000010D2279
S3065000010E207A
S3065000010F3465
S306500001109305
S306500001110394
S30650000112F0A6
S306500001130194
S30650000114B3E1
S30650000115F2A1
S306500001167220
S306500001170091
S30650000118137D
S30650000119038C
S3065000011AB0DE
S3065000011B008D
S3065000011C6329
S3065000011D8407
S3065000011E6228
S3065000011F0A7F
S306500001201375
S306500001210582
S306500001220185
S306500001230085
S3065000012497ED
S306500001250083
S306500001260082
S306500001270081
S3065000012893ED
S3065000012980FF
S3065000012A007E
S3065000012B136A
S3065000012C6F0D
S3065000012D304B
S3065000012E80FA
S3065000012F5920
S3065000013093E5
S306500001310275
S306500001320175
S306500001330075
S3065000013497DD
S306500001357300
S306500001360072
S306500001370170
S3065000013893DD
S3065000013983EC
S3065000013A036B
S3065000013B8DE0
S3065000013C0369
S3065000013DA1CA
S3065000013E4327
S3065000013F0069
S306500001401355
S306500001410166
S306500001420165
S30650000143FF66
S306500001442341
S306500001452043
S306500001465111
S306500001470061
S30650000148035D
S30650000149AEB1
S3065000014A035B
S3065000014B005D
S3065000014C1349
S3065000014D0E4D
S3065000014E1E3C
S3065000014F0059
S306500001502335
S30650000151A0B7
S30650000152C393
S306500001530154
S3065000015463F1
S30650000155084B
S30650000156034F
S306500001570051
S3065000015897B9
S30650000159004F
S3065000015A004E
S3065000015B004D
S3065000015C93B9
S3065000015D80CB
S3065000015E80CA
S3065000015F0346
S306500001606FD9
S306500001613017
S30650000162C086
S306500001636ADB
S3065000016473D1
S30650000165251E
S306500001662022
S30650000167340D
S3065000016893AD
S30650000169023D
S3065000016AF04E
S3065000016B013C
S3065000016C3309
S3065000016D75C6
S3065000016E55E5
S3065000016F0039
S30650000170EF49
S306500001710037
S306500001720036
S306500001731B1A
S30650000174979D
S306500001750231
S306500001760032
S306500001770130
S30650000178939D
S3065000017982AD
S3065000017AC26C
S3065000017BF13C
S3065000017C1319
S3065000017D1516
S3065000017E35F5
S3065000017F0029
S30650000180B375
S3065000018182A5
S30650000182A284
S306500001830025
S306500001840321
S30650000185A57E
S306500001860220
S306500001870021
S30650000188031D
S30650000189A37C
S3065000018A42DC
S3065000018B001D
S3065000018CE735
S3065000018D001B
S3065000018E0317
S3065000018F0019
S306500001901701
S3065000019173A4
S306500001920016
S306500001930114
S306500001941301
S306500001950310
S3065000019643CF
S30650000197878A
S30650000198838D
S3065000019923EC
S3065000019A030B
S3065000019B000D
S3065000019C9379
S3065000019D8388
S3065000019EF317
S3065000019FFF0A
S306500001A023E5
S306500001A120E7
S306500001A27393
S306500001A30005
S306500001A48381
S306500001A522E1
S306500001A60101
S306500001A70001
S306500001A813ED
S306500001A9817E
S306500001AA02FC
S306500001AB00FD
S306500001AC8379
S306500001AD23D8
S306500001AE8377
S306500001AF00F9
S306500001B003F5
S306500001B1DE19
S306500001B2A353
S306500001B300F5
S306500001B49361
S306500001B50EE5
S306500001B600F2
S306500001B708E9
S306500001B8638D
S306500001B97E71
S306500001BADE10
S306500001BB09E4
S306500001BC03E9
S306500001BD2EBD
S306500001BE43A7
S306500001BF01E8
S306500001C06385
S306500001C10ADD
S306500001C27E68
S306500001C308DD
S306500001C4EFF5
S306500001C530B3
S306500001C65092
S306500001C7548D
S306500001C89749
S306500001C9726D
S306500001CA00DE
S306500001CB01DC
S306500001CC9349
S306500001CD8259
S306500001CEC218
S306500001CF8356
S306500001D003D5
S306500001D1A334
S306500001D28254
S306500001D300D5
S306500001D423B1
S306500001D526AD
S306500001D6834F
S306500001D702CF
S306500001D823AD
S306500001D928A7
S306500001DA933B
S306500001DB02CB
S306500001DC23A9
S306500001DD2AA1
S306500001DE23A7
S306500001DF03C6
S306500001E023A5
S306500001E12C9B
S306500001E23393
S306500001E303C2
S306500001E423A1
S306500001E52E95
S306500001E6437F
S306500001E703BE
S306500001E8239D
S306500001E9209F
S306500001EA536B
S306500001EB05B8
S306500001EC2399
S306500001ED2299
S306500001EE6357
S306500001EF05B4
S306500001F02395
S306500001F12493
S306500001F27343
S306500001F305B0
S306500001F42391
S306500001F5268D
S306500001F6832F
S306500001F705AC
S306500001F8238D
S306500001F92887
S306500001FA931B
S306500001FB05A8
S306500001FC2389
S306500001FD2A81
S306500001FEA307
S306500001FF05A4
S306500002002384
S306500002012C7A
S30650000202B3F2
S30650000203059F
S306500002042380
S30650000205247E
S30650000206237E
S30650000207029E
S306500002089708
S30650000209633B
S3065000020A009D
S3065000020B019B
S3065000020C9308
S3065000020D8317
S3065000020EC3D6
S3065000020F6D2B
S306500002100394
S30650000211AEE8
S306500002120392
S306500002130094
S306500002142370
S30650000215246E
S30650000216C3CE
S306500002170789
S30650000218038C
S30650000219A3EB
S3065000021A424B
S3065000021B018B
S3065000021C2368
S3065000021DA4E6
S3065000021E6227
S3065000021F0088
S306500002200384
S306500002212165
S306500002228302
S306500002230282
S306500002240380
S30650000225245E
S30650000226C3BE
S30650000227027E
S3065000022883FC
S30650000229245A
S3065000022A037A
S3065000022B0379
S3065000022C0378
S3065000022D2951
S3065000022E4336
S3065000022F0375
S3065000023083F4
S30650000231294D
S3065000023283F2
S306500002330371
S306500002340370
S306500002352A48
S30650000236C3AE
S30650000237036D
S3065000023883EC
S306500002392A44
S3065000023A036A
S3065000023B0468
S3065000023C0368
S3065000023D2B3F
S3065000023E4326
S3065000023F0464
S3065000024083E4
S306500002412B3B
S3065000024283E2
S306500002430460
S306500002440360
S306500002452C36
S30650000246C39E
S30650000247045C
S3065000024883DC
S306500002492C32
S3065000024A035A
S3065000024B0557
S3065000024C0358
S3065000024D2D2D
S3065000024E4316
S3065000024F0553
S3065000025083D4
S306500002512D29
S3065000025283D2
S30650000253054F
S30650000254EF64
S306500002550052
S3065000025680D1
S306500002570947
S3065000025883CC
S30650000259222C
S3065000025A81CC
S3065000025B0448
S3065000025C73D8
S3065000025D90BA
S3065000025E1237
S3065000025F3414
S3065000026083C4
S306500002612224
S30650000262C184
S306500002630440
S3065000026473D0
S3065000026590B2
S30650000266023F
S306500002677CC4
S3065000026883BC
S30650000269201E
S3065000026A013C
S3065000026B003C
S3065000026C83B8
S3065000026D2119
S3065000026E41F8
S3065000026F0038
S306500002700334
S306500002712214
S3065000027281B4
S306500002730034
S3065000027483B0
S306500002752210
S30650000276C170
S306500002770030
S30650000278032C
S30650000279230B
S3065000027A012C
S3065000027B012B
S3065000027C83A8
S3065000027D2307
S3065000027E41E8
S3065000027F0127
S306500002800324
S306500002812EF8
S3065000028281A4
S306500002830123
S3065000028483A0
S306500002852EF4
S30650000286C160
S30650000287011F
S30650000288031C
S306500002892FEF
S3065000028A011C
S3065000028B021A
S3065000028C8398
S3065000028D2FEB
S3065000028E41D8
S3065000028F0216
S306500002900314
S3065000029125F1
S306500002928194
S306500002930212
S306500002948390
S3065000029525ED
S30650000296C150
S30650000297020E
S30650000298030C
S3065000029926E8
S3065000029A010C
S3065000029B0309
S3065000029C8388
S3065000029D26E4
S3065000029E41C8
S3065000029F0305
S306500002A00304
S306500002A127DF
S306500002A28184
S306500002A30301
S306500002A48380
S306500002A527DB
S306500002A6C140
S306500002A703FD
S306500002A803FC
S306500002A928D6
S306500002AA01FC
S306500002AB04F8
S306500002AC8378
S306500002AD28D2
S306500002AE41B8
S306500002AF04F4
S306500002B013E4
S306500002B101F5
S306500002B201F4
S306500002B307ED
S306500002B47380
S306500002B500F2
S306500002B600F1
S306500002B710E0
S306500002B8F3FC
S306500002B922CC
S306500002BA00ED
S306500002BB7B71
S306500002BC7378
S306500002BD23C7
S306500002BE10D9
S306500002BF7B6D
S306500002C0F3F4
S306500002C123C3
S306500002C220C5
S306500002C37B69
S306500002C423C0
S306500002C528BA
S306500002C65190
S306500002C704DC
S306500002C823BC
S306500002C92AB4
S306500002CA617C
S306500002CB04D8
S306500002CC23B8
S306500002CD2CAE
S306500002CE7168
S306500002CF04D4
S306500002D0F3E4
S306500002D122B4
S306500002D24095
S306500002D37B59
S306500002D47360
S306500002D523AF
S306500002D65081
S306500002D77B55
S306500002D8F3DC
S306500002D923AB
S306500002DA606D
S306500002DB7B51
S306500002DC23A8
S306500002DD2E9C
S306500002DE5178
S306500002DF04C4
S306500002E023A4
S306500002E120A6
S306500002E26164
S306500002E306BE
S306500002E423A0
S306500002E522A0
S306500002E67150
S306500002E706BA
S306500002E86758
S306500002E9803E
S306500002EA00BD
S306500002EB00BC
S306500002EC8338
S306500002ED2298
S306500002EE01B8
S306500002EF05B3
S306500002F003B4
S306500002F12393
S306500002F24174
S306500002F305AF
S306500002F48330
S306500002F5238F
S306500002F68130
S306500002F705AB
S306500002F8733C
S306500002F9901E
S306500002FA02AB
S306500002FB7B31
S306500002FC7338
S306500002FD109A
S306500002FE1396
S306500002FF7B2D
S306500003007333
S306500003019015
S306500003022381
S306500003037B28
S30650000304831F
S30650000305227F
S30650000306C1DF
S30650000307059A
S30650000308039B
S30650000309237A
S3065000030A019B
S3065000030B0695
S3065000030C8317
S3065000030D2376
S3065000030E4157
S3065000030F0691
S306500003107323
S306500003119005
S306500003124252
S306500003137B18
S30650000314731F
S306500003151081
S30650000316533D
S306500003177B14
S30650000318731B
S3065000031990FD
S3065000031A6329
S3065000031B7B10
S3065000031C6723
S3065000031D8009
S3065000031E0088
S3065000031F0087
S30650000320374F
S306500003214342
S306500003221074
S306500003231A69
S30650000324136F
S30650000325037E
S30650000326C3BD
S30650000327007F
S3065000032893EB
S30650000329037A
S3065000032A106C
S3065000032B007B
S3065000032C3347
S3065000032D9EDB
S3065000032EA3D5
S3065000032F0077
S306500003302353
S306500003312055
S30650000332C3B1
S306500003330172
S30650000334373B
S30650000335432E
S306500003361060
S306500003371A55
S30650000338135B
S30650000339036A
S3065000033AC3A9
S3065000033B016A
S3065000033C2347
S3065000033D2049
S3065000033EC3A5
S3065000033F0166
S3065000034067FF
S3065000034180E5
S306500003420064
S306500003430063
S30650000344F36F
S30650000345223F
S306500003462040
S30650000347342B
S3065000034893CB
S30650000349F26B
S3065000034AF26A
S3065000034B015A
S3065000034C1347
S3065000034D0356
S3065000034EF068
S3065000034F0057
S306500003501343
S306500003510550
S306500003520054
S306500003530053
S3065000035463EF
S30650000355C48D
S3065000035662EE
S30650000357004F
S30650000358133B
S306500003590548
S3065000035A1537
S3065000035B004B
S3065000035C67E3
S3065000035D80C9
S3065000035E0048
S3065000035F0047
S3065000036073D3
S306500003610045
S306500003620044
S306500003630043
S3065000036497AB
S3065000036562DF
S306500003660040
S30650000367013E
S3065000036893AB
S3065000036982BB
S3065000036A023A
S3065000036B6AD1
S3065000036C0337
S3065000036DA396
S3065000036E82B6
S3065000036F0037
S3065000037083B3
S306500003712312
S3065000037283B1
S30650000373062D
S30650000374131F
S3065000037575BC
S30650000376151B
S30650000377002F
S30650000378F33B
S30650000379220B
S3065000037A0527
S3065000037B30FB
S3065000037C1317
S3065000037D85A4
S3065000037E0325
S3065000037F0027
S3065000038067BF
S3065000038180A5
S306500003820024
S306500003830023
S30650000384031F
S30650000385A37E
S3065000038645DB
S30650000387001F
S30650000388031B
S3065000038923FA
S3065000038A8399
S3065000038B001B
S3065000038C67B3
S3065000038D0019
S3065000038E0315
S3065000038F0017
S306500003900313
S3065000039123F2
S3065000039245CF
S306500003930013
S30650000394030F
S3065000039523EE
S30650000396838D
S30650000397010E
S3065000039867A7
S30650000399000D
S3065000039A0309
S3065000039B000B
S3065000039C0307
S3065000039D23E6
S3065000039E45C3
S3065000039F0007
S306500003A0B74F
S306500003A17590
S306500003A20004
S306500003A351B2
S306500003A403FF
S306500003A523DE
S306500003A6837D
S306500003A700FF
S306500003A8936B
S306500003A98578
S306500003AA05F7
S306500003ABE417
S306500003AC6793
S306500003AD00F9
S306500003AE03F5
S306500003AF00F7
S306500003B003F3
S306500003B123D2
S306500003B245AF
S306500003B300F3
S306500003B437BB
S306500003B5767B
S306500003B600F0
S306500003B7519E
S306500003B803EB
S306500003B923CA
S306500003BAC329
S306500003BB00EB
S306500003BC13D7
S306500003BD06E3
S306500003BE06E2
S306500003BFE403
S306500003C0677F
S306500003C100E5
S306500003C203E1
S306500003C300E3
S306500003C413CF
S306500003C501E0
S306500003C601DF
S306500003C7FEE1
S306500003C823BB
S306500003C926B7
S306500003CA31AB
S306500003CB01DA
S306500003CC9347
S306500003CD09D0
S306500003CE05D3
S306500003CF00D7
S306500003D0379F
S306500003D105D0
S306500003D200D4
S306500003D35182
S306500003D413BF
S306500003D505CC
S306500003D605CB
S306500003D719B6
S306500003D823AB
S306500003D92CA1
S306500003DA814B
S306500003DB00CB
S306500003DC23A7
S306500003DD2A9F
S306500003DE9137
S306500003DF00C7
S306500003E023A3
S306500003E1289D
S306500003E221A3
S306500003E301C2
S306500003E4239F
S306500003E5229F
S306500003E6516F
S306500003E701BE
S306500003E8239B
S306500003E9209D
S306500003EA615B
S306500003EB01BA
S306500003EC2397
S306500003ED2E8B
S306500003EE11A7
S306500003EF00B7
S306500003F02393
S306500003F12491
S306500003F24173
S306500003F301B2
S306500003F4377B
S306500003F5743D
S306500003F600B0
S306500003F7515E
S306500003F8EFBF
S306500003F9307D
S306500003FA406C
S306500003FB4962
S306500003FC2387
S306500003FD2881
S306500003FEA404
S306500003FF1493
S306500004009312
S3065000040104A0
S3065000040200A3
S3065000040300A2
S30650000404930E
S306500004050A96
S30650000406009F
S30650000407009E
S30650000408138A
S306500004090993
S3065000040A009B
S3065000040B009A
S3065000040C3762
S3065000040D0B8D
S3065000040E0097
S3065000040F5145
S306500004100B8A
S306500004118A0A
S30650000412197A
S306500004130092
S30650000414137E
S30650000415058B
S306500004168B04
S306500004171975
S3065000041893FA
S306500004190587
S3065000041A0A81
S3065000041B008A
S3065000041CEF9A
S3065000041D3058
S3065000041E4047
S3065000041F0482
S306500004206322
S30650000421D6AE
S306500004224A39
S306500004230181
S30650000424B3CE
S30650000425641C
S306500004260976
S30650000427106E
S3065000042893EA
S306500004290A72
S3065000042A0A71
S3065000042B007A
S3065000042C1366
S3065000042D096F
S3065000042E195E
S3065000042F0076
S30650000430E392
S306500004313044
S30650000432A9CA
S30650000433FE74
S30650000434373A
S30650000435056B
S30650000436006F
S30650000437511D
S3065000043893DA
S3065000043985E7
S3065000043A0467
S3065000043B006A
S3065000043C1356
S3065000043D0563
S3065000043E0562
S3065000043F1A4C
S30650000440EF76
S306500004413034
S306500004420063
S306500004430260
S3065000044463FE
S306500004459AC6
S30650000446045B
S30650000447005E
S306500004483726
S306500004490557
S3065000044A005B
S3065000044B5109
S3065000044C83D6
S3065000044D2533
S3065000044E0453
S3065000044F1541
S306500004501342
S30650000451054F
S30650000452C58E
S306500004531A38
S306500004546FE2
S306500004550050
S30650000456400F
S306500004570B43
S3065000045863EA
S30650000459BA92
S3065000045A1437
S3065000045B004A
S3065000045C3712
S3065000045D0543
S3065000045E0047
S3065000045F51F5
S3065000046083C2
S30650000461251F
S30650000462043F
S30650000463152D
S30650000464132E
S30650000465053B
S3065000046685BA
S306500004671B23
S306500004686FCE
S30650000469003C
S3065000046A003B
S3065000046B0A30
S3065000046C63D6
S3065000046DBA7E
S3065000046E2413
S3065000046F0036
S3065000047037FE
S30650000471052F
S306500004720033
S3065000047351E1
S3065000047483AE
S30650000475250B
S30650000476042B
S306500004771519
S30650000478131A
S306500004790527
S3065000047A45E6
S3065000047B1C0E
S3065000047C6FBA
S3065000047D0028
S3065000047EC067
S3065000047F081E
S3065000048063C2
S30650000481BA6A
S3065000048234EF
S306500004830022
S3065000048437EA
S30650000485051B
S30650000486001F
S3065000048751CD
S30650000488839A
S3065000048925F7
S3065000048A0417
S3065000048B1505
S3065000048C1306
S3065000048D0513
S3065000048E0512
S3065000048F1DF9
S306500004906FA6
S306500004910014
S306500004928093
S30650000493070B
S3065000049463AE
S30650000495BA56
S3065000049644CB
S30650000497000E
S3065000049837D6
S306500004990507
S3065000049A000B
S3065000049B51B9
S3065000049C8386
S3065000049D25E3
S3065000049E0403
S3065000049F15F1
S306500004A013F2
S306500004A105FF
S306500004A2C53E
S306500004A31DE5
S306500004A46F92
S306500004A50000
S306500004A640BF
S306500004A706F8
S306500004A8639A
S306500004A9BA42
S306500004AA54A7
S306500004AB00FA
S306500004AC37C2
S306500004AD05F3
S306500004AE00F7
S306500004AF51A5
S306500004B08372
S306500004B125CF
S306500004B204EF
S306500004B315DD
S306500004B413DE
S306500004B505EB
S306500004B6856A
S306500004B71ED0
S306500004B86F7E
S306500004B900EC
S306500004BA00EB
S306500004BB05E5
S306500004BC6386
S306500004BDBA2E
S306500004BE6483
S306500004BF00E6
S306500004C037AE
S306500004C105DF
S306500004C200E3
S306500004C35191
S306500004C4835E
S306500004C525BB
S306500004C604DB
S306500004C715C9
S306500004C813CA
S306500004C905D7
S306500004CA4596
S306500004CB1FBB
S306500004CC6F6A
S306500004CD00D8
S306500004CEC017
S306500004CF03D3
S306500004D06372
S306500004D1BA1A
S306500004D2745F
S306500004D300D2
S306500004D4379A
S306500004D505CB
S306500004D600CF
S306500004D7517D
S306500004D8834A
S306500004D925A7
S306500004DA04C7
S306500004DB15B5
S306500004DC13B6
S306500004DD05C3
S306500004DE05C2
S306500004DF20A6
S306500004E06F56
S306500004E100C4
S306500004E28043
S306500004E302C0
S306500004E4635E
S306500004E5BA06
S306500004E6843B
S306500004E700BE
S306500004E83786
S306500004E905B7
S306500004EA00BB
S306500004EB5169
S306500004EC8336
S306500004ED2593
S306500004EE04B3
S306500004EF15A1
S306500004F013A2
S306500004F105AF
S306500004F2C5EE
S306500004F32092
S306500004F46F42
S306500004F500B0
S306500004F6406F
S306500004F701AD
S306500004F8634A
S306500004F9BCF0
S306500004FA9417
S306500004FB02A8
S306500004FC3772
S306500004FD05A3
S306500004FE00A7
S306500004FF5155
S306500005008321
S30650000501257E
S30650000502049E
S30650000503158C
S30650000504138D
S30650000505059A
S306500005068519
S30650000507217C
S306500005080399
S306500005092B70
S3065000050A0199
S3065000050B0099
S3065000050C8315
S3065000050D2077
S3065000050EC1D5
S3065000050F0194
S306500005100391
S30650000511246F
S306500005128111
S306500005130190
S30650000514830D
S30650000515246B
S30650000516414D
S30650000517018C
S306500005180389
S306500005192962
S3065000051A0189
S3065000051B0188
S3065000051C8305
S3065000051D295E
S3065000051EC1C5
S3065000051F0085
S306500005200381
S306500005212A59
S306500005228101
S306500005230081
S3065000052483FD
S306500005252A55
S30650000526413D
S30650000527007D
S306500005281369
S30650000529017A
S3065000052A0179
S3065000052B0277
S3065000052C6F09
S3065000052DF087
S3065000052E9FD7
S3065000052FE590
S3065000053083F1
S306500005312053
S30650000532C1B1
S306500005330170
S30650000534036D
S30650000535244B
S3065000053681ED
S30650000537016C
S3065000053883E9
S306500005392447
S3065000053A4129
S3065000053B0168
S3065000053C0365
S3065000053D293E
S3065000053E0165
S3065000053F0164
S3065000054083E1
S30650000541293A
S30650000542C1A1
S306500005430061
S30650000544035D
S306500005452A35
S3065000054681DD
S30650000547005D
S3065000054883D9
S306500005492A31
S3065000054A4119
S3065000054B0059
S3065000054C0355
S3065000054D2B2C
S3065000054E0155
S3065000054F0055
S306500005501341
S306500005510152
S306500005520151
S30650000553024F
S3065000055467E9
S3065000055580CF
S30650000556004E
S30650000557004D
S306500005583715
S306500005590546
S3065000055A004A
S3065000055B51F8
S3065000055C1335
S3065000055D0146
S3065000055E0145
S3065000055FFD48
S306500005601331
S30650000561053E
S3065000056245FD
S30650000563221F
S30650000564231D
S306500005652619
S30650000566112D
S30650000567023B
S306500005682319
S306500005692417
S3065000056A81B9
S3065000056B0237
S3065000056C2315
S3065000056D2215
S3065000056E91A5
S3065000056F0233
S306500005702311
S306500005712013
S306500005722111
S30650000573032E
S30650000574230D
S306500005752E01
S3065000057631FD
S30650000577012C
S306500005782309
S306500005792CFF
S3065000057A41E9
S3065000057B0128
S3065000057C2305
S3065000057D2AFD
S3065000057E51D5
S3065000057F0124
S306500005802301
S3065000058128FB
S3065000058261C1
S306500005830120
S3065000058423FD
S3065000058526F9
S3065000058671AD
S30650000587011C
S30650000588EF2D
S3065000058920FB
S3065000058A908A
S3065000058B6DAC
S3065000058C37E1
S3065000058D0512
S3065000058E0016
S3065000058F51C4
S306500005901301
S30650000591050E
S30650000592C54D
S3065000059324ED
S30650000594B759
S30650000595040B
S30650000596000E
S3065000059751BC
S30650000598EF1D
S3065000059920EB
S3065000059A907A
S3065000059B6C9D
S3065000059C13F5
S3065000059D8582
S3065000059EC442
S3065000059F25E0
S306500005A0EF15
S306500005A130D3
S306500005A2C042
S306500005A32ED3
S306500005A413ED
S306500005A504FB
S306500005A605F9
S306500005A700FD
S306500005A86399
S306500005A91AE1
S306500005AA05F5
S306500005AB00F9
S306500005AC37C1
S306500005AD05F2
S306500005AE00F6
S306500005AF51A4
S306500005B09361
S306500005B1856E
S306500005B2C42E
S306500005B325CC
S306500005B413DD
S306500005B505EA
S306500005B645A9
S306500005B726C7
S306500005B8EFFD
S306500005B920CB
S306500005BA905A
S306500005BB6A7F
S306500005BC37B1
S306500005BD09DE
S306500005BE00E6
S306500005BF5194
S306500005C09351
S306500005C1855E
S306500005C2C41E
S306500005C325BC
S306500005C413CD
S306500005C505DA
S306500005C68955
S306500005C727B6
S306500005C8B725
S306500005C904D7
S306500005CA00DA
S306500005CB5188
S306500005CCEFE9
S306500005CD20B7
S306500005CE5086
S306500005CF696C
S306500005D013C1
S306500005D1854E
S306500005D2448E
S306500005D328A9
S306500005D4EFE1
S306500005D5309F
S306500005D6804E
S306500005D72BA2
S306500005D813B9
S306500005D90AC1
S306500005DA05C5
S306500005DB00C9
S306500005DC9335
S306500005DD09BE
S306500005DE09BD
S306500005DF00C5
S306500005E06361
S306500005E11EA5
S306500005E205BD
S306500005E302BF
S306500005E43789
S306500005E505BA
S306500005E600BE
S306500005E7516C
S306500005E89329
S306500005E98536
S306500005EA4476
S306500005EB2891
S306500005EC8335
S306500005ED2097
S306500005EEC1F5
S306500005EF02B3
S306500005F003B1
S306500005F1248F
S306500005F28131
S306500005F302AF
S306500005F4832D
S306500005F5248B
S306500005F6416D
S306500005F702AB
S306500005F803A9
S306500005F92982
S306500005FA01A9
S306500005FB02A7
S306500005FC8325
S306500005FD297E
S306500005FEC1E5
S306500005FF01A4
S3065000060003A0
S306500006012A78
S306500006028120
S30650000603019F
S30650000604831C
S306500006052A74
S30650000606415C
S30650000607019B
S306500006080398
S306500006092B6F
S3065000060A0198
S3065000060B0197
S3065000060C8314
S3065000060D2B6B
S3065000060EC1D4
S3065000060F0094
S306500006101380
S30650000611058D
S30650000612454C
S30650000613266A
S30650000614137C
S30650000615018D
S30650000616018C
S306500006170389
S306500006186F1C
S30650000619206A
S3065000061A90F9
S3065000061B6424
S3065000061C3750
S3065000061D0581
S3065000061E0085
S3065000061F5133
S306500006201370
S30650000621057D
S30650000622C5BC
S306500006232858
S306500006243748
S306500006250975
S30650000626007D
S30650000627512B
S30650000628EF8C
S30650000629205A
S3065000062A90E9
S3065000062B6315
S3065000062C1364
S3065000062D0571
S3065000062E096C
S3065000062F195B
S30650000630EF84
S306500006313042
S30650000632C0B1
S30650000633254B
S30650000634B7B8
S3065000063574FA
S30650000636006D
S30650000637511B
S306500006382348
S30650000639A8C2
S3065000063AA4C5
S3065000063B1454
S3065000063C6304
S3065000063D1A4C
S3065000063E0560
S3065000063F0064
S30650000640372C
S30650000641055D
S306500006420061
S30650000643510F
S3065000064493CC
S306500006450559
S306500006460954
S306500006471943
S306500006481348
S306500006490555
S3065000064A4514
S3065000064B2632
S3065000064CEF68
S3065000064D2036
S3065000064E5005
S3065000064F61F3
S3065000065093C0
S30650000651054D
S306500006520948
S306500006531937
S30650000654133C
S3065000065585C9
S3065000065689C4
S306500006572725
S30650000658EF5C
S30650000659202A
S3065000065A90B9
S3065000065B60E8
S3065000065C0344
S3065000065DA5A1
S3065000065E0441
S3065000065F152F
S3065000066093B0
S30650000661053D
S306500006620A37
S306500006630040
S3065000066483BC
S306500006652717
S3065000066645F8
S30650000667003C
S3065000066883B8
S30650000669A793
S3065000066A47F2
S3065000066B0137
S3065000066CE750
S3065000066D80B6
S3065000066E072E
S3065000066F0034
S3065000067063D0
S30650000671082A
S30650000672052C
S306500006730030
S3065000067437F8
S306500006750529
S30650000676002D
S3065000067751DB
S306500006781318
S306500006790525
S3065000067AC564
S3065000067B29FF
S3065000067CEF38
S3065000067D2006
S3065000067E50D5
S3065000067F5EC6
S3065000068037EC
S30650000681051D
S306500006820021
S3065000068351CF
S30650000684130C
S306500006850519
S306500006860518
S306500006872BF1
S30650000688EF2C
S3065000068920FA
S3065000068A9089
S3065000068B5DBB
S3065000068CB760
S3065000068D779F
S3065000068E0015
S3065000068F51C3
S306500006900310
S30650000691A56D
S30650000692040D
S3065000069315FB
S3065000069423EC
S30650000695A06E
S306500006960706
S30650000697B25A
S30650000698B754
S306500006990703
S3065000069AFD0C
S3065000069B0008
S3065000069C9374
S3065000069D877F
S3065000069EC73E
S3065000069FCF35
S306500006A037CC
S306500006A1778B
S306500006A20001
S306500006A351AF
S306500006A413EC
S306500006A506F8
S306500006A610ED
S306500006A703F9
S306500006A823D8
S306500006A924D6
S306500006AAF702
S306500006ABB246
S306500006AC13E4
S306500006AD07EF
S306500006AEA055
S306500006AF06EE
S306500006B08370
S306500006B127CB
S306500006B245AC
S306500006B300F0
S306500006B4935C
S306500006B505E9
S306500006B606E7
S306500006B700EC
S306500006B88368
S306500006B9A743
S306500006BA8762
S306500006BB02E6
S306500006BC9354
S306500006BD06E0
S306500006BE07DE
S306500006BF00E4
S306500006C0E7FC
S306500006C18062
S306500006C207DA
S306500006C300E0
S306500006C437A8
S306500006C505D9
S306500006C600DD
S306500006C7518B
S306500006C813C8
S306500006C905D5
S306500006CA4594
S306500006CB2CAC
S306500006CCEFE8
S306500006CD20B6
S306500006CE5085
S306500006CF597B
S306500006D0379C
S306500006D105CD
S306500006D200D1
S306500006D3517F
S306500006D4B718
S306500006D505C9
S306500006D601CC
S306500006D7507C
S306500006D83794
S306500006D97951
S306500006DA00C9
S306500006DB5177
S306500006DC13B4
S306500006DD05C1
S306500006DE05C0
S306500006DF2F95
S306500006E023A0
S306500006E122A0
S306500006E2B908
S306500006E3B20E
S306500006E4EFD0
S306500006E5209E
S306500006E6D0ED
S306500006E75765
S306500006E83784
S306500006E905B5
S306500006EA00B9
S306500006EB5167
S306500006EC13A4
S306500006ED05B1
S306500006EEC5F0
S306500006EF2F85
S306500006F0EFC4
S306500006F13082
S306500006F2C0F1
S306500006F31997
S306500006F4931C
S306500006F504AA
S306500006F605A8
S306500006F700AC
S306500006F86348
S306500006F91892
S306500006FA05A4
S306500006FB00A8
S306500006FC3770
S306500006FD05A1
S306500006FE00A5
S306500006FF5153
S30650000700138F
S30650000701059C
S30650000702455B
S30650000703306F
S30650000704EFAF
S30650000705207D
S30650000706D0CC
S306500007075546
S306500007083763
S306500007090594
S3065000070A0098
S3065000070B5146
S3065000070C1383
S3065000070D0590
S3065000070E850F
S3065000070F3162
S30650000710EFA3
S306500007112071
S306500007121080
S30650000713553A
S30650000714830B
S30650000715A7E6
S306500007164448
S30650000717008B
S306500007188307
S30650000719A7E2
S3065000071A4741
S3065000071B0087
S3065000071C1373
S3065000071D8500
S3065000071E0480
S3065000071F0083
S30650000720E79B
S306500007218001
S306500007220779
S30650000723007F
S30650000724136B
S306500007250677
S30650000726007C
S306500007270873
S3065000072893E7
S306500007290574
S3065000072A2058
S3065000072B0176
S3065000072C1363
S3065000072D85F0
S3065000072E0470
S3065000072F0073
S30650000730EF83
S30650000731F081
S306500007321F51
S30650000733C6A9
S30650000734135B
S306500007350667
S30650000736105C
S30650000737006B
S3065000073893D7
S306500007390564
S3065000073A1058
S3065000073B0166
S3065000073C1353
S3065000073D85E0
S3065000073E0460
S3065000073F0063
S30650000740EF73
S30650000741F071
S306500007421F41
S30650000743C59A
S30650000744134B
S306500007450657
S30650000746005C
S30650000747005B
S3065000074893C7
S306500007490554
S3065000074AD088
S3065000074B0057
S3065000074C1343
S3065000074D85D0
S3065000074E0450
S3065000074F0053
S30650000750EF63
S30650000751F061
S306500007521F31
S30650000753C48B
S30650000754133B
S306500007550647
S30650000756004C
S306500007570447
S3065000075893B7
S306500007590544
S3065000075A2028
S3065000075B0146
S3065000075C1333
S3065000075D85C0
S3065000075E0440
S3065000075F0043
S30650000760EF53
S30650000761F051
S306500007621F21
S30650000763C37C
S3065000076483BB
S30650000765A796
S3065000076644F8
S30650000767003B
S3065000076883B7
S30650000769A792
S3065000076AC771
S3065000076B0136
S3065000076C93A3
S3065000076D0530
S3065000076E2014
S3065000076F0132
S30650000770131F
S3065000077185AC
S30650000772042C
S30650000773002F
S30650000774E747
S3065000077580AD
S306500007760725
S30650000777002B
S3065000077883A7
S30650000779A782
S3065000077A44E4
S3065000077B0027
S3065000077C83A3
S3065000077DA77E
S3065000077EC75D
S3065000077F0122
S30650000780938F
S30650000781051C
S30650000782D050
S30650000783001F
S30650000784130B
S306500007858598
S306500007860418
S30650000787001B
S30650000788E733
S306500007898099
S3065000078A0711
S3065000078B0017
S3065000078C37DF
S3065000078D0510
S3065000078E0014
S3065000078F51C2
S3065000079013FF
S30650000791050C
S30650000792858B
S3065000079332DD
S30650000794EF1F
S3065000079520ED
S30650000796D03C
S306500007974CBF
S3065000079837D3
S306500007990504
S3065000079A0008
S3065000079B51B6
S3065000079C13F3
S3065000079D0500
S3065000079E05FF
S3065000079F35CE
S306500007A0EF13
S306500007A130D1
S306500007A2C040
S306500007A30EF1
S306500007A4936B
S306500007A504F9
S306500007A605F7
S306500007A700FB
S306500007A86397
S306500007A918E1
S306500007AA05F3
S306500007AB00F7
S306500007AC37BF
S306500007AD05F0
S306500007AE00F4
S306500007AF51A2
S306500007B013DF
S306500007B105EC
S306500007B2856B
S306500007B335BA
S306500007B4EFFF
S306500007B520CD
S306500007B6D01C
S306500007B74AA1
S306500007B837B3
S306500007B905E4
S306500007BA00E8
S306500007BB5196
S306500007BC13D3
S306500007BD05E0
S306500007BEC51F
S306500007BF36AD
S306500007C0EFF3
S306500007C120C1
S306500007C210D0
S306500007C34A95
S306500007C437A7
S306500007C57A63
S306500007C600DC
S306500007C7518A
S306500007C88357
S306500007C9A732
S306500007CA4494
S306500007CB00D7
S306500007CC8353
S306500007CDA72E
S306500007CE07CD
S306500007CF02D1
S306500007D023AF
S306500007D12EA3
S306500007D20AC6
S306500007D3E2ED
S306500007D413BB
S306500007D58548
S306500007D604C8
S306500007D700CB
S306500007D8E7E3
S306500007D98049
S306500007DA07C1
S306500007DB00C7
S306500007DC378F
S306500007DD05C0
S306500007DE00C4
S306500007DF5172
S306500007E013AF
S306500007E105BC
S306500007E2C5FB
S306500007E33788
S306500007E4EFCF
S306500007E5209D
S306500007E6D0EC
S306500007E74774
S306500007E83783
S306500007E94772
S306500007EA10A8
S306500007EB1A9D
S306500007EC8333
S306500007ED278E
S306500007EE07AD
S306500007EF00B3
S306500007F0B7FB
S306500007F1169B
S306500007F200B0
S306500007F3515E
S306500007F4B3FB
S306500007F5C7E6
S306500007F607A5
S306500007F7C1EA
S306500007F82387
S306500007F92089
S306500007FAF7B1
S306500007FB00A7
S306500007FC8323
S306500007FD277E
S306500007FE4460
S306500007FF00A3
S30650000800831E
S30650000801A7F9
S306500008020798
S30650000803019D
S30650000804138A
S306500008050795
S30650000806108B
S30650000807009A
S306500008089306
S306500008098612
S3065000080A4651
S3065000080BFA9C
S3065000080C1382
S3065000080D068E
S3065000080E0093
S3065000080F781A
S3065000081093FE
S30650000811058B
S30650000812800F
S306500008137816
S30650000814137A
S306500008150587
S30650000816206B
S306500008173357
S30650000818E7A2
S306500008198008
S3065000081A0780
S3065000081B0086
S3065000081C374E
S3065000081D057F
S3065000081E0083
S3065000081F5131
S30650000820136E
S30650000821057B
S30650000822453A
S306500008233945
S30650000824EF8E
S30650000825205C
S30650000826D0AB
S306500008274337
S3065000082883F6
S30650000829A7D1
S3065000082A4433
S3065000082B0076
S3065000082C83F2
S3065000082DA7CD
S3065000082E472C
S3065000082F0270
S30650000830135E
S3065000083185EB
S30650000832046B
S30650000833006E
S30650000834E786
S3065000083580EC
S306500008360764
S30650000837006A
S30650000838B7B2
S3065000083969FF
S3065000083A0067
S3065000083B5115
S3065000083CB7AE
S3065000083D7AEA
S3065000083E0063
S3065000083F5111
S30650000840372A
S306500008417BE5
S30650000842005F
S30650000843510D
S30650000844035A
S306500008452735
S30650000846CA91
S30650000847E377
S30650000848B7A2
S3065000084977E1
S3065000084A0057
S3065000084B5105
S3065000084CE372
S3065000084D0C48
S3065000084E074C
S3065000084FFE54
S3065000085083CE
S30650000851ABA5
S30650000852C788
S30650000853E36B
S3065000085463EA
S30650000855BE8E
S306500008561B30
S306500008570446
S30650000858B792
S306500008590543
S3065000085A0245
S3065000085B3214
S3065000085C1332
S3065000085D053F
S3065000085E043F
S3065000085F0042
S30650000860EF52
S30650000861F050
S306500008621F20
S30650000863B589
S30650000864132A
S306500008650537
S306500008660437
S30650000867003A
S30650000868EF4A
S30650000869F048
S3065000086A5FD8
S3065000086BB383
S3065000086C83B2
S3065000086D270D
S3065000086E44EF
S3065000086F0032
S3065000087083AE
S30650000871A789
S3065000087247E8
S30650000873002E
S30650000874939A
S3065000087585A7
S30650000876C962
S306500008772208
S306500008781316
S3065000087985A3
S3065000087A0A1D
S3065000087BE442
S3065000087CE73E
S3065000087D80A4
S3065000087E071C
S3065000087F0022
S30650000880839E
S3065000088127F9
S3065000088244DB
S30650000883001E
S30650000884839A
S30650000885A775
S306500008860714
S30650000887001A
S306500008888396
S3065000088926F2
S3065000088A49CE
S3065000088BB264
S3065000088C1302
S3065000088D878D
S3065000088E0B08
S3065000088F0012
S3065000089013FE
S30650000891868A
S30650000892C946
S3065000089322EC
S30650000894937A
S306500008950507
S3065000089630DB
S30650000897000A
S3065000089813F6
S306500008990503
S3065000089A8087
S3065000089B18EE
S3065000089CE71E
S3065000089D8084
S3065000089E07FC
S3065000089F0002
S306500008A0936E
S306500008A107F9
S306500008A28B74
S306500008A38F6F
S306500008A403FA
S306500008A5A755
S306500008A607F4
S306500008A700FA
S306500008A8E316
S306500008A93CBC
S306500008AA27D0
S306500008ABFEF8
S306500008AC6F86
S306500008AD00F4
S306500008AE00F3
S306500008AF0CE6
S306500008B003EE
S306500008B1A749
S306500008B2C728
S306500008B3E30B
S306500008B4638A
S306500008B53EAE
S306500008B627C4
S306500008B704E6
S306500008B8B732
S306500008B905E3
S306500008BA04E3
S306500008BB33B3
S306500008BC13D2
S306500008BD05DF
S306500008BE04DF
S306500008BF00E2
S306500008C0EFF2
S306500008C1F0F0
S306500008C21FC0
S306500008C3AF2F
S306500008C413CA
S306500008C505D7
S306500008C604D7
S306500008C700DA
S306500008C8EFEA
S306500008C9F0E8
S306500008CA5F78
S306500008CBAD29
S306500008CC8352
S306500008CD27AD
S306500008CE448F
S306500008CF00D2
S306500008D0834E
S306500008D1A729
S306500008D24788
S306500008D300CE
S306500008D4933A
S306500008D58547
S306500008D6C902
S306500008D722A8
S306500008D813B6
S306500008D98543
S306500008DA0ABD
S306500008DBE4E2
S306500008DCE7DE
S306500008DD8044
S306500008DE07BC
S306500008DF00C2
S306500008E0833E
S306500008E12799
S306500008E2447B
S306500008E300BE
S306500008E4833A
S306500008E5A715
S306500008E607B4
S306500008E700BA
S306500008E88336
S306500008E92692
S306500008EA496E
S306500008EBB204
S306500008EC13A2
S306500008ED07AD
S306500008EE10A3
S306500008EF00B2
S306500008F0139E
S306500008F1862A
S306500008F2C9E6
S306500008F3228C
S306500008F4931A
S306500008F505A7
S306500008F6307B
S306500008F700AA
S306500008F81396
S306500008F905A3
S306500008FA8027
S306500008FB188E
S306500008FCE7BE
S306500008FD8024
S306500008FE079C
S306500008FF00A2
S30650000900930D
S306500009010798
S306500009028B13
S306500009038F0E
S306500009040399
S30650000905A7F4
S306500009060793
S306500009070099
S30650000908E3B5
S306500009093C5B
S3065000090A276F
S3065000090BFE97
S3065000090C6F25
S3065000090D0093
S3065000090E0092
S3065000090F068B
S30650000910830D
S30650000911ABE4
S30650000912C7C7
S30650000913E3AA
S306500009146329
S30650000915B2D9
S306500009163B4F
S306500009170683
S30650000918B7D1
S306500009190582
S3065000091A0680
S3065000091B3451
S3065000091C1371
S3065000091D057E
S3065000091E047E
S3065000091F0081
S30650000920EF91
S30650000921F08F
S306500009221F5F
S30650000923A9D4
S306500009241369
S306500009250576
S306500009260476
S306500009270079
S30650000928EF89
S30650000929F087
S3065000092A5F17
S3065000092BA7CE
S3065000092C83F1
S3065000092D274C
S3065000092E442E
S3065000092F0071
S3065000093083ED
S30650000931A7C8
S306500009324727
S30650000933006D
S3065000093493D9
S3065000093585E6
S30650000936C9A1
S306500009372247
S306500009381355
S3065000093985E2
S3065000093A0A5C
S3065000093BE481
S3065000093CE77D
S3065000093D80E3
S3065000093E075B
S3065000093F0061
S3065000094083DD
S306500009412738
S30650000942441A
S30650000943005D
S3065000094483D9
S30650000945A7B4
S306500009460753
S306500009470059
S3065000094883D5
S306500009492631
S3065000094A490D
S3065000094BB2A3
S3065000094C1341
S3065000094D074C
S3065000094E1042
S3065000094F0051
S30650000950133D
S3065000095186C9
S30650000952C985
S30650000953222B
S3065000095493B9
S3065000095585C6
S306500009560B3F
S306500009570049
S306500009581335
S306500009590542
S3065000095A80C6
S3065000095B182D
S3065000095CE75D
S3065000095D80C3
S3065000095E073B
S3065000095F0041
S3065000096093AD
S306500009610738
S306500009628BB3
S306500009638FAE
S306500009640339
S30650000965A794
S306500009660733
S306500009670039
S30650000968E355
S306500009693CFB
S3065000096A270F
S3065000096BFE37
S3065000096C0331
S3065000096D250E
S3065000096E49E9
S3065000096FB27F
S30650000970230D
S30650000971A08F
S306500009720727
S30650000973002D
S30650000974EF3D
S30650000975F03B
S306500009761F0B
S30650000977A584
S306500009789395
S306500009790720
S3065000097A1016
S3065000097B0025
S3065000097C1311
S3065000097D869D
S3065000097E071B
S3065000097F0021
S30650000980938D
S30650000981859A
S306500009820717
S30650000983001D
S306500009841309
S306500009850714
S30650000986001A
S306500009870019
S306500009889385
S306500009890611
S3065000098A0016
S3065000098B0015
S3065000098C1301
S3065000098D858E
S3065000098E070B
S3065000098F0011
S3065000099023ED
S306500009912EE1
S306500009920A04
S30650000993E22B
S30650000994EF1D
S3065000099510FB
S30650000996808A
S306500009970801
S306500009988385
S30650000999A760
S3065000099A44C2
S3065000099B0005
S3065000099C8381
S3065000099DA75C
S3065000099E47BB
S3065000099F02FF
S306500009A013ED
S306500009A1857A
S306500009A204FA
S306500009A300FD
S306500009A4E715
S306500009A5807B
S306500009A607F3
S306500009A700F9
S306500009A86F89
S306500009A9F007
S306500009AADF17
S306500009ABE90C
S306500009AC8B69
S306500009AD47AC
S306500009AE15DD
S306500009AF00F1
S306500009B00BE5
S306500009B1C728
S306500009B215D9
S306500009B300ED
S306500009B46389
S306500009B59655
S306500009B6E703
S306500009B700E9
S306500009B8E305
S306500009B99A4D
S306500009BA07DF
S306500009BBFEE7
S306500009BC13D1
S306500009BD875C
S306500009BE07DB
S306500009BF00E1
S306500009C033AD
S306500009C1855A
S306500009C2E7F7
S306500009C3409D
S306500009C46775
S306500009C5805B
S306500009C600DA
S306500009C700D9
S306500009C89345
S306500009C9F6E1
S306500009CAF5E1
S306500009CB0FC6
S306500009CC9341
S306500009CD07CC
S306500009CE05CD
S306500009CF00D1
S306500009D013BD
S306500009D107C8
S306500009D216B8
S306500009D300CD
S306500009D43399
S306500009D5B813
S306500009D627A3
S306500009D7FACF
S306500009D86365
S306500009D90EB9
S306500009DA08BE
S306500009DB00C5
S306500009DC13B1
S306500009DD07BC
S306500009DEF7CB
S306500009DFFFC2
S306500009E0635D
S306500009E114AB
S306500009E207B7
S306500009E300BD
S306500009E46755
S306500009E5803B
S306500009E600BA
S306500009E700B9
S306500009E8AB0D
S306500009E98037
S306500009EAD7DF
S306500009EB00B5
S306500009EC13A1
S306500009ED06AD
S306500009EEF6BC
S306500009EFFFB2
S306500009F06F41
S306500009F1F0BF
S306500009F25F4F
S306500009F3FEAF
S306500009F4B3F9
S306500009F5B5F6
S306500009F68525
S306500009F7EEBB
S306500009F81395
S306500009F99710
S306500009FA8521
S306500009FB00A5
S306500009FCB3F1
S306500009FDE5BE
S306500009FEE5BD
S306500009FF00A1
S30650000A00138C
S30650000A019707
S30650000A020598
S30650000A03019B
S30650000A04B3E8
S30650000A05E5B5
S30650000A06E5B4
S30650000A070098
S30650000A081384
S30650000A09573F
S30650000A0A266F
S30650000A0B0094
S30650000A0C1380
S30650000A0D880A
S30650000A0E078A
S30650000A0F0090
S30650000A10137C
S30650000A110787
S30650000A121776
S30650000A13008C
S30650000A141378
S30650000A150783
S30650000A16F792
S30650000A17FF89
S30650000A186324
S30650000A191076
S30650000A1A077E
S30650000A1B0282
S30650000A1C1370
S30650000A1D572B
S30650000A1E265B
S30650000A1F0080
S30650000A2093EC
S30650000A211569
S30650000A222756
S30650000A23007C
S30650000A24B3C8
S30650000A2587F3
S30650000A26B7C2
S30650000A270078
S30650000A2893E4
S30650000A290571
S30650000A2AC0B5
S30650000A2BFF75
S30650000A2C3340
S30650000A2D066C
S30650000A2EB7BA
S30650000A2F422E
S30650000A30135C
S30650000A310668
S30650000A321657
S30650000A33006C
S30650000A346FFC
S30650000A35006A
S30650000A360069
S30650000A370167
S30650000A382B3C
S30650000A392244
S30650000A3AB8AD
S30650000A3B0064
S30650000A3C6FF4
S30650000A3DF072
S30650000A3E9FC2
S30650000A3FFD63
S30650000A40ABB4
S30650000A4180DE
S30650000A42D786
S30650000A43005C
S30650000A441348
S30650000A450654
S30650000A46F663
S30650000A47FF59
S30650000A48E374
S30650000A491C3A
S30650000A4A064F
S30650000A4BFE56
S30650000A4C67EC
S30650000A4D80D2
S30650000A4E0051
S30650000A4F0050
S30650000A50133C
S30650000A51014D
S30650000A52014C
S30650000A53FF4D
S30650000A542328
S30650000A552426
S30650000A5681C8
S30650000A570048
S30650000A583710
S30650000A5974D2
S30650000A5A0045
S30650000A5B51F3
S30650000A5C2320
S30650000A5D2220
S30650000A5E91B0
S30650000A5F0040
S30650000A60231C
S30650000A612618
S30650000A62112C
S30650000A63003C
S30650000A6493A8
S30650000A650436
S30650000A660534
S30650000A670038
S30650000A681324
S30650000A690432
S30650000A6AC471
S30650000A6B8FA5
S30650000A6C63D0
S30650000A6D3CF6
S30650000A6EA58C
S30650000A6F0030
S30650000A70032C
S30650000A712509
S30650000A720429
S30650000A73002C
S30650000A749398
S30650000A750525
S30650000A76D059
S30650000A770028
S30650000A7883A4
S30650000A7927FF
S30650000A7A45E0
S30650000A7B0024
S30650000A7C83A0
S30650000A7DA77B
S30650000A7E47DA
S30650000A7F0020
S30650000A80E738
S30650000A81809E
S30650000A820716
S30650000A83001C
S30650000A840318
S30650000A8525F5
S30650000A860415
S30650000A870018
S30650000A889384
S30650000A89F521
S30650000A8AF421
S30650000A8B0F05
S30650000A8C8390
S30650000A8D27EB
S30650000A8E45CC
S30650000A8F0010
S30650000A90838C
S30650000A91A767
S30650000A9247C6
S30650000A93000C
S30650000A94E724
S30650000A95808A
S30650000A960702
S30650000A970008
S30650000A988384
S30650000A9920E6
S30650000A9AC144
S30650000A9B0004
S30650000A9C13F0
S30650000A9D857D
S30650000A9E04FD
S30650000A9F0000
S30650000AA003FC
S30650000AA124DA
S30650000AA2817C
S30650000AA300FC
S30650000AA48378
S30650000AA524D6
S30650000AA641B8
S30650000AA700F8
S30650000AA813E4
S30650000AA901F5
S30650000AAA01F4
S30650000AAB01F3
S30650000AAC678C
S30650000AAD8072
S30650000AAE00F1
S30650000AAF00F0
S30650000AB037B8
S30650000AB115D9
S30650000AB200ED
S30650000AB3509C
S30650000AB413D8
S30650000AB505E5
S30650000AB605E4
S30650000AB7A543
S30650000AB86F78
S30650000AB920C6
S30650000ABA8065
S30650000ABB5D87
S30650000ABC37AC
S30650000ABD05DD
S30650000ABE00E1
S30650000ABF518F
S30650000AC013CC
S30650000AC101DD
S30650000AC201DC
S30650000AC3FFDD
S30650000AC413C8
S30650000AC505D5
S30650000AC68554
S30650000AC73A9E
S30650000AC823B4
S30650000AC926B0
S30650000ACA11C4
S30650000ACB00D4
S30650000ACCEFE4
S30650000ACD20B2
S30650000ACE10C1
S30650000ACF5C74
S30650000AD0B718
S30650000AD17757
S30650000AD200CD
S30650000AD3517B
S30650000AD423A8
S30650000AD5AE1C
S30650000AD6A722
S30650000AD78E3A
S30650000AD8EFD8
S30650000AD9F0D6
S30650000ADA9F26
S30650000ADBFDC7
S30650000ADC8340
S30650000ADD20A2
S30650000ADEC100
S30650000ADF00C0
S30650000AE013AC
S30650000AE105B9
S30650000AE200BD
S30650000AE300BC
S30650000AE413A8
S30650000AE501B9
S30650000AE601B8
S30650000AE701B7
S30650000AE86750
S30650000AE98036
S30650000AEA00B5
S30650000AEB00B4
S30650000AEC8330
S30650000AED288A
S30650000AEE852C
S30650000AEF00B0
S30650000AF0139C
S30650000AF107A7
S30650000AF2109D
S30650000AF300AC
S30650000AF47338
S30650000AF53773
S30650000AF607A2
S30650000AF73078
S30650000AF803A4
S30650000AF9A600
S30650000AFA485D
S30650000AFB00A4
S30650000AFC3370
S30650000AFD376B
S30650000AFE178A
S30650000AFFFCA4
S30650000B00633B
S30650000B010A93
S30650000B020696
S30650000B030695
S30650000B048317
S30650000B052772
S30650000B060593
S30650000B070097
S30650000B088313
S30650000B09A7EE
S30650000B0A870D
S30650000B0B0093
S30650000B0C830F
S30650000B0DA7EA
S30650000B0E0789
S30650000B0F008F
S30650000B10632B
S30650000B11820B
S30650000B120785
S30650000B130685
S30650000B14B3D7
S30650000B15D7B2
S30650000B16C7C1
S30650000B170285
S30650000B180383
S30650000B192362
S30650000B1A85FF
S30650000B1B0083
S30650000B1C83FF
S30650000B1D265B
S30650000B1E037D
S30650000B1F007F
S30650000B20136B
S30650000B210E6F
S30650000B22007C
S30650000B23F883
S30650000B2493E7
S30650000B2586F3
S30650000B26C6B2
S30650000B270077
S30650000B2883F3
S30650000B29C5B0
S30650000B2A066E
S30650000B2B0073
S30650000B2C234F
S30650000B2D80F1
S30650000B2EC6AA
S30650000B2F016E
S30650000B3093DB
S30650000B31F578
S30650000B32F577
S30650000B330F5C
S30650000B341357
S30650000B35D891
S30650000B364721
S30650000B370067
S30650000B3893D3
S30650000B3976EF
S30650000B3AF86C
S30650000B3B0F54
S30650000B3C035F
S30650000B3D2839
S30650000B3E85DB
S30650000B3F005F
S30650000B40035B
S30650000B412835
S30650000B420854
S30650000B43005B
S30650000B4493C7
S30650000B45D782
S30650000B46C791
S30650000B470057
S30650000B482333
S30650000B490055
S30650000B4AD87C
S30650000B4B0053
S30650000B4C83CF
S30650000B4D262B
S30650000B4E85CB
S30650000B4F004F
S30650000B5083CB
S30650000B51A6A7
S30650000B520646
S30650000B53004B
S30650000B5493B7
S30650000B55F752
S30650000B56F751
S30650000B570F38
S30650000B5893B3
S30650000B5986BF
S30650000B5A46FE
S30650000B5B0043
S30650000B5C231F
S30650000B5D80C1
S30650000B5EF64A
S30650000B5F003F
S30650000B6083BB
S30650000B612716
S30650000B6285B7
S30650000B63003B
S30650000B6483B7
S30650000B65A792
S30650000B660731
S30650000B670037
S30650000B6893A3
S30650000B6987AE
S30650000B6AC76D
S30650000B6B0033
S30650000B6C230F
S30650000B6D80B1
S30650000B6EB779
S30650000B6F002F
S30650000B70230B
S30650000B71220B
S30650000B72C369
S30650000B73002B
S30650000B7483A7
S30650000B752702
S30650000B7685A3
S30650000B770027
S30650000B7883A3
S30650000B79A77E
S30650000B7A071D
S30650000B7B0023
S30650000B7C938F
S30650000B7D061B
S30650000B7E30F0
S30650000B7F001F
S30650000B80938B
S30650000B818796
S30650000B82C755
S30650000B83001B
S30650000B8423F7
S30650000B858099
S30650000B86D741
S30650000B870017
S30650000B888393
S30650000B89C74E
S30650000B8A888C
S30650000B8B0013
S30650000B8C937F
S30650000B8D060B
S30650000B8EB060
S30650000B8F000F
S30650000B90B35B
S30650000B91B756
S30650000B9217F5
S30650000B93FC0F
S30650000B9463A7
S30650000B958485
S30650000B960701
S30650000B970007
S30650000B989373
S30650000B9906FF
S30650000B9AB054
S30650000B9B0201
S30650000B9C837F
S30650000B9D27DA
S30650000B9E857B
S30650000B9F00FF
S30650000BA0837B
S30650000BA1A756
S30650000BA207F5
S30650000BA300FB
S30650000BA49367
S30650000BA58772
S30650000BA607F1
S30650000BA701F6
S30650000BA823D3
S30650000BA98075
S30650000BAAD71D
S30650000BAB00F3
S30650000BAC836F
S30650000BAD27CA
S30650000BAE856B
S30650000BAF00EF
S30650000BB0836B
S30650000BB1A746
S30650000BB207E5
S30650000BB300EB
S30650000BB49357
S30650000BB506E3
S30650000BB67078
S30650000BB7FAED
S30650000BB89353
S30650000BB9875E
S30650000BBA875D
S30650000BBB00E3
S30650000BBC23BF
S30650000BBD8061
S30650000BBED709
S30650000BBF00DF
S30650000BC003DB
S30650000BC125B8
S30650000BC28557
S30650000BC300DB
S30650000BC48357
S30650000BC527B2
S30650000BC605D3
S30650000BC700D7
S30650000BC88B4B
S30650000BC9864F
S30650000BCA478D
S30650000BCB00D3
S30650000BCC23AF
S30650000BCD8051
S30650000BCE07C9
S30650000BCF00CF
S30650000BD0735B
S30650000BD127A6
S30650000BD207C5
S30650000BD3309B
S30650000BD413B7
S30650000BD505C4
S30650000BD600C8
S30650000BD700C7
S30650000BD8675F
S30650000BD98045
S30650000BDA00C4
S30650000BDB00C3
S30650000BDC03BF
S30650000BDD259C
S30650000BDE853B
S30650000BDF00BF
S30650000BE003BB
S30650000BE12796
S30650000BE205B7
S30650000BE300BB
S30650000BE49327
S30650000BE507B2
S30650000BE64771
S30650000BE701B6
S30650000BE88333
S30650000BE9C7EE
S30650000BEA07AD
S30650000BEB00B3
S30650000BECB3FF
S30650000BEDB7FA
S30650000BEE1799
S30650000BEFFCB3
S30650000BF0634B
S30650000BF18A23
S30650000BF207A5
S30650000BF300AB
S30650000BF48327
S30650000BF54762
S30650000BF607A1
S30650000BF700A7
S30650000BF81393
S30650000BF905A0
S30650000BFA00A4
S30650000BFB00A3
S30650000BFC237F
S30650000BFD8021
S30650000BFEF5AB
S30650000BFF009F
S30650000C006736
S30650000C01801C
S30650000C02009B
S30650000C03009A
S30650000C041386
S30650000C050593
S30650000C06F0A7
S30650000C07FF97
S30650000C08672E
S30650000C098014
S30650000C0A0093
S30650000C0B0092
S30650000C0C038E
S30650000C0D256B
S30650000C0E850A
S30650000C0F008E
S30650000C10038A
S30650000C112765
S30650000C120586
S30650000C13008A
S30650000C1493F6
S30650000C150682
S30650000C164740
S30650000C170185
S30650000C188302
S30650000C19C7BD
S30650000C1A067D
S30650000C1B0082
S30650000C1C93EE
S30650000C1DF789
S30650000C1E0778
S30650000C1F047A
S30650000C20E39A
S30650000C218CF0
S30650000C220774
S30650000C23FE7C
S30650000C242356
S30650000C250078
S30650000C26B7C0
S30650000C270076
S30650000C281362
S30650000C2985EF
S30650000C2A056E
S30650000C2B0072
S30650000C2C670A
S30650000C2D80F0
S30650000C2E006F
S30650000C2F006E
S30650000C30036A
S30650000C312547
S30650000C3285E6
S30650000C33006A
S30650000C3483E6
S30650000C352741
S30650000C360562
S30650000C370066
S30650000C3893D2
S30650000C3987DD
S30650000C3A471C
S30650000C3B0161
S30650000C3C035E
S30650000C3DC59B
S30650000C3E0758
S30650000C3F005E
S30650000C40134A
S30650000C4175E7
S30650000C42E576
S30650000C430159
S30650000C441346
S30650000C455503
S30650000C461542
S30650000C470056
S30650000C4867EE
S30650000C4980D4
S30650000C4A0053
S30650000C4B0052
S30650000C4CB79A
S30650000C4D3719
S30650000C4E103F
S30650000C4F1A34
S30650000C50232A
S30650000C51A0AC
S30650000C520744
S30650000C53004A
S30650000C54B792
S30650000C5577D1
S30650000C560047
S30650000C5751F5
S30650000C5893B2
S30650000C5987BD
S30650000C5A073C
S30650000C5B90B2
S30650000C5CB78A
S30650000C5D76CA
S30650000C5E003F
S30650000C5F51ED
S30650000C60033A
S30650000C61A795
S30650000C620734
S30650000C63003A
S30650000C6483B6
S30650000C65A692
S30650000C660631
S30650000C678FA7
S30650000C683302
S30650000C69072D
S30650000C6AD75C
S30650000C6B0032
S30650000C6C230E
S30650000C6DA090
S30650000C6EE748
S30650000C6F002E
S30650000C70B776
S30650000C7177B5
S30650000C72002B
S30650000C7351D9
S30650000C740326
S30650000C75A583
S30650000C76C760
S30650000C778E98
S30650000C786FB6
S30650000C7930F4
S30650000C7A40E3
S30650000C7B4BD7
S30650000C7C130E
S30650000C7D011F
S30650000C7E011E
S30650000C7FFF1F
S30650000C80130A
S30650000C810517
S30650000C82D04B
S30650000C830119
S30650000C8423F6
S30650000C8526F2
S30650000C861106
S30650000C870016
S30650000C88EF26
S30650000C8920F4
S30650000C8A9083
S30650000C8B0111
S30650000C8CB75A
S30650000C8D37D9
S30650000C8E10FF
S30650000C8F1AF4
S30650000C9023EA
S30650000C91A06C
S30650000C920704
S30650000C93000A
S30650000C9437D2
S30650000C957791
S30650000C960007
S30650000C9751B5
S30650000C980302
S30650000C9927DD
S30650000C9A07FC
S30650000C9B8F73
S30650000C9C837E
S30650000C9D20E0
S30650000C9EC13E
S30650000C9F00FE
S30650000CA023DA
S30650000CA1A458
S30650000CA2E714
S30650000CA300FA
S30650000CA413E6
S30650000CA507F1
S30650000CA610E7
S30650000CA700F6
S30650000CA813E2
S30650000CA905EF
S30650000CAA00F3
S30650000CAB00F2
S30650000CAC23CE
S30650000CADA24E
S30650000CAEE708
S30650000CAF00EE
S30650000CB013DA
S30650000CB101EB
S30650000CB201EA
S30650000CB301E9
S30650000CB46782
S30650000CB58068
S30650000CB600E7
S30650000CB700E6
S30650000CB813D2
S30650000CB905DF
S30650000CBA5093
S30650000CBB01E1
S30650000CBC6F72
S30650000CBD20C0
S30650000CBE409F
S30650000CBF7E60
S30650000CC0B726
S30650000CC14795
S30650000CC210CB
S30650000CC31AC0
S30650000CC49346
S30650000CC58751
S30650000CC6C710
S30650000CC700D6
S30650000CC803D2
S30650000CC9A72D
S30650000CCA07CC
S30650000CCB00D2
S30650000CCC03CE
S30650000CCD25AB
S30650000CCE854A
S30650000CCF00CE
S30650000CD0339A
S30650000CD14785
S30650000CD2A724
S30650000CD3C109
S30650000CD423A6
S30650000CD5A028
S30650000CD6E7E0
S30650000CD700C6
S30650000CD8B70E
S30650000CD9279D
S30650000CDA10B3
S30650000CDB1AA8
S30650000CDC833E
S30650000CDDA719
S30650000CDE8738
S30650000CDF02BC
S30650000CE013AA
S30650000CE105B7
S30650000CE24576
S30650000CE301B9
S30650000CE46F4A
S30650000CE53088
S30650000CE64077
S30650000CE73185
S30650000CE803B2
S30650000CE9258F
S30650000CEA05AE
S30650000CEB00B2
S30650000CEC03AE
S30650000CED258B
S30650000CEE852A
S30650000CEF00AE
S30650000CF0832A
S30650000CF12785
S30650000CF2C5E6
S30650000CF300AA
S30650000CF46346
S30650000CF59216
S30650000CF607A0
S30650000CF702A4
S30650000CF81392
S30650000CF901A3
S30650000CFA01A2
S30650000CFBFFA3
S30650000CFC138E
S30650000CFD059B
S30650000CFE455A
S30650000CFF009E
S30650000D002379
S30650000D012675
S30650000D021189
S30650000D030099
S30650000D04EFA9
S30650000D053067
S30650000D064056
S30650000D072F66
S30650000D088311
S30650000D092073
S30650000D0AC1D1
S30650000D0B0091
S30650000D0C137D
S30650000D0D058A
S30650000D0E008E
S30650000D0F008D
S30650000D101379
S30650000D11018A
S30650000D120189
S30650000D130188
S30650000D146721
S30650000D158007
S30650000D160086
S30650000D170085
S30650000D181371
S30650000D19057E
S30650000D1A0082
S30650000D1B0081
S30650000D1C6719
S30650000D1D80FF
S30650000D1E007E
S30650000D1F007D
S30650000D201369
S30650000D21017A
S30650000D220179
S30650000D23F980
S30650000D242355
S30650000D252651
S30650000D261165
S30650000D27066F
S30650000D282351
S30650000D29244F
S30650000D2A81F1
S30650000D2B066B
S30650000D2C234D
S30650000D2D224D
S30650000D2E91DD
S30650000D2F0667
S30650000D302349
S30650000D31204B
S30650000D322149
S30650000D330762
S30650000D342345
S30650000D352E39
S30650000D363135
S30650000D370560
S30650000D382341
S30650000D392C37
S30650000D3A4121
S30650000D3B055C
S30650000D3C233D
S30650000D3D2A35
S30650000D3E510D
S30650000D3F0558
S30650000D402339
S30650000D412833
S30650000D4261F9
S30650000D430554
S30650000D442335
S30650000D452631
S30650000D4671E5
S30650000D470550
S30650000D482331
S30650000D49242F
S30650000D4A81D1
S30650000D4B054C
S30650000D4C232D
S30650000D4D222D
S30650000D4E91BD
S30650000D4F0548
S30650000D502329
S30650000D51202B
S30650000D52A1A9
S30650000D530544
S30650000D542325
S30650000D552E19
S30650000D56B195
S30650000D570342
S30650000D5863E1
S30650000D59142F
S30650000D5A063C
S30650000D5B0041
S30650000D5C63DD
S30650000D5D0639
S30650000D5E0737
S30650000D5F54E9
S30650000D6083B9
S30650000D612417
S30650000D620535
S30650000D630039
S30650000D641325
S30650000D65092E
S30650000D660531
S30650000D670035
S30650000D680331
S30650000D69A48F
S30650000D6A84AE
S30650000D6B0031
S30650000D6C131D
S30650000D6D0B24
S30650000D6E44EA
S30650000D6F002D
S30650000D701319
S30650000D718AA1
S30650000D720525
S30650000D730029
S30650000D741315
S30650000D750522
S30650000D760B1B
S30650000D770025
S30650000D789391
S30650000D79051E
S30650000D7AF032
S30650000D7BFF22
S30650000D7C938D
S30650000D7D0B14
S30650000D7E0717
S30650000D7F001D
S30650000D809389
S30650000D818992
S30650000D820614
S30650000D830019
S30650000D841305
S30650000D850C0B
S30650000D860610
S30650000D870015
S30650000D88EF25
S30650000D8930E3
S30650000D8A40D2
S30650000D8B33DE
S30650000D8C030D
S30650000D8D2DE2
S30650000D8E0905
S30650000D8F000D
S30650000D900309
S30650000D912DDE
S30650000D928D7D
S30650000D930009
S30650000D948385
S30650000D9527E0
S30650000D960DF9
S30650000D970005
S30650000D9863A1
S30650000D9908FB
S30650000D9AF909
S30650000D9B06FB
S30650000D9CB749
S30650000D9D0DF2
S30650000D9E00FE
S30650000D9F51AC
S30650000DA08379
S30650000DA125D6
S30650000DA249B1
S30650000DA300F9
S30650000DA413E5
S30650000DA58572
S30650000DA68D69
S30650000DA72FC6
S30650000DA8EF05
S30650000DA920D3
S30650000DAA8072
S30650000DAB6B86
S30650000DACB739
S30650000DADFAF5
S30650000DAEFAF4
S30650000DAF02EB
S30650000DB08369
S30650000DB125C6
S30650000DB249A1
S30650000DB300E9
S30650000DB49355
S30650000DB58A5D
S30650000DB60ADC
S30650000DB708DD
S30650000DB89351
S30650000DB9954E
S30650000DBA15CD
S30650000DBB00E1
S30650000DBCB32D
S30650000DBDD50A
S30650000DBEBA24
S30650000DBF02DB
S30650000DC0B725
S30650000DC10CCF
S30650000DC201D9
S30650000DC300D9
S30650000DC49345
S30650000DC58C4B
S30650000DC6FCDA
S30650000DC7FFD6
S30650000DC813C1
S30650000DC9854E
S30650000DCA8D45
S30650000DCB2FA2
S30650000DCC933D
S30650000DCD854A
S30650000DCEC509
S30650000DCFFFCE
S30650000DD0B319
S30650000DD1F5D6
S30650000DD29535
S30650000DD301C8
S30650000DD4EFD9
S30650000DD520A7
S30650000DD6C006
S30650000DD7685D
S30650000DD88341
S30650000DD9279C
S30650000DDA4979
S30650000DDB00C1
S30650000DDC932D
S30650000DDD9728
S30650000DDE17A7
S30650000DDF00BD
S30650000DE0B309
S30650000DE1DAE1
S30650000DE2FAC0
S30650000DE302B7
S30650000DE4B701
S30650000DE52790
S30650000DE610A6
S30650000DE71A9B
S30650000DE89321
S30650000DE9872C
S30650000DEA476B
S30650000DEB00B1
S30650000DEC139D
S30650000DED852A
S30650000DEE8D21
S30650000DEF2F7E
S30650000DF09319
S30650000DF18A21
S30650000DF2CAE0
S30650000DF3FFAA
S30650000DF4B3F5
S30650000DF5FAAD
S30650000DF69A0C
S30650000DF701A4
S30650000DF82381
S30650000DF9A003
S30650000DFA574B
S30650000DFB01A0
S30650000DFC831D
S30650000DFDA5FA
S30650000DFE0797
S30650000DFF009D
S30650000E00EFAC
S30650000E01207A
S30650000E020099
S30650000E036632
S30650000E042374
S30650000E052076
S30650000E062D68
S30650000E070193
S30650000E082370
S30650000E092270
S30650000E0A444D
S30650000E0B038D
S30650000E0C236C
S30650000E0D246A
S30650000E0E8409
S30650000E0F0389
S30650000E102368
S30650000E112664
S30650000E123455
S30650000E130385
S30650000E142364
S30650000E15285E
S30650000E167411
S30650000E170381
S30650000E186320
S30650000E190C76
S30650000E1A0A77
S30650000E1B0080
S30650000E1C83FC
S30650000E1D2757
S30650000E1E0A73
S30650000E1F007C
S30650000E200378
S30650000E212A50
S30650000E224A2F
S30650000E230078
S30650000E242354
S30650000E252A4C
S30650000E26F481
S30650000E270272
S30650000E282350
S30650000E292C46
S30650000E2A442D
S30650000E2B036D
S30650000E2C6F00
S30650000E2D006E
S30650000E2EC0AD
S30650000E2F006C
S30650000E302348
S30650000E312A40
S30650000E320465
S30650000E330266
S30650000E342344
S30650000E352C3A
S30650000E360461
S30650000E370262
S30650000E386300
S30650000E398CD6
S30650000E3A0958
S30650000E3B0060
S30650000E3C83DC
S30650000E3DA7B7
S30650000E3E0954
S30650000E3F005C
S30650000E4083D8
S30650000E41A9B1
S30650000E424910
S30650000E430058
S30650000E442334
S30650000E452E28
S30650000E46F461
S30650000E470252
S30650000E482330
S30650000E492032
S30650000E4A341D
S30650000E4B054B
S30650000E4C6FE0
S30650000E4D004E
S30650000E4EC08D
S30650000E4F004C
S30650000E502328
S30650000E512E1C
S30650000E520445
S30650000E530246
S30650000E542324
S30650000E552026
S30650000E560441
S30650000E570440
S30650000E5863E0
S30650000E59162C
S30650000E5A0C35
S30650000E5B0040
S30650000E5C63DC
S30650000E5D80BE
S30650000E5E0B32
S30650000E5F3408
S30650000E606FCC
S30650000E61003A
S30650000E6280B9
S30650000E632F09
S30650000E642314
S30650000E652412
S30650000E660134
S30650000E670034
S30650000E6883B0
S30650000E69A78B
S30650000E6A84AD
S30650000E6B0030
S30650000E6C230C
S30650000E6D2608
S30650000E6E012C
S30650000E6F002C
S30650000E701318
S30650000E710822
S30650000E7270B9
S30650000E730028
S30650000E742304
S30650000E7528FE
S30650000E760124
S30650000E770024
S30650000E789390
S30650000E79081A
S30650000E7A80A1
S30650000E7B0020
S30650000E7C23FC
S30650000E7D2AF4
S30650000E7E011C
S30650000E7F001C
S30650000E801308
S30650000E810317
S30650000E821009
S30650000E830018
S30650000E8423F4
S30650000E8524F2
S30650000E860114
S30650000E870212
S30650000E8823F0
S30650000E8926EC
S30650000E8A0110
S30650000E8B020E
S30650000E8C838C
S30650000E8DA668
S30650000E8E8786
S30650000E8F0309
S30650000E9063A8
S30650000E918288
S30650000E920603
S30650000E930CFC
S30650000E940304
S30650000E9527DF
S30650000E9641C4
S30650000E970103
S30650000E9863A0
S30650000E994EB4
S30650000E9AE819
S30650000E9B0AF6
S30650000E9C03FC
S30650000E9D27D7
S30650000E9E41BC
S30650000E9F01FB
S30650000EA033C8
S30650000EA107F3
S30650000EA2D722
S30650000EA300F8
S30650000EA46394
S30650000EA5E80E
S30650000EA6E80D
S30650000EA70AEA
S30650000EA86390
S30650000EA9767C
S30650000EAAD31E
S30650000EAB04EC
S30650000EAC935C
S30650000EAD8569
S30650000EAE06E7
S30650000EAF00EC
S30650000EB013D8
S30650000EB18664
