S00D00007A65706879722E73313945
S306500000001396
S3065000000100A8
S3065000000200A7
S3065000000300A6
S306500000041392
S3065000000500A4
S3065000000600A3
S3065000000700A2
S30650000008138E
S3065000000900A0
S3065000000A009F
S3065000000B009E
S3065000000C138A
S3065000000D009C
S3065000000E009B
S3065000000F009A
S306500000101386
S306500000110098
S306500000120097
S306500000130096
S306500000141382
S306500000150094
S306500000160093
S306500000170092
S30650000018137E
S306500000190090
S3065000001A008F
S3065000001B008E
S3065000001C137A
S3065000001D008C
S3065000001E008B
S3065000001F008A
S306500000201376
S306500000210088
S306500000220087
S306500000230086
S306500000241372
S306500000250084
S306500000260083
S306500000270082
S30650000028136E
S306500000290080
S3065000002A007F
S3065000002B007E
S3065000002C136A
S3065000002D007C
S3065000002E007B
S3065000002F007A
S306500000301366
S306500000310078
S306500000320077
S306500000330076
S306500000341362
S306500000350074
S306500000360073
S306500000370072
S30650000038135E
S306500000390070
S3065000003A006F
S3065000003B006E
S3065000003C6FFE
S3065000003D006C
S3065000003E80EB
S3065000003F0565
S306500000406FFA
S306500000410068
S306500000424027
S306500000430561
S306500000446FF6
S306500000450064
S306500000460063
S30650000047055D
S306500000486FF2
S306500000490060
S3065000004AC09F
S3065000004B045A
S3065000004C6FEE
S3065000004D005C
S3065000004E80DB
S3065000004F0456
S306500000506FEA
S306500000510058
S306500000524017
S306500000530452
S306500000546FE6
S306500000550054
S306500000560053
S30650000057044E
S306500000586FE2
S306500000590050
S3065000005AC08F
S3065000005B034B
S3065000005C6FDE
S3065000005D004C
S3065000005E80CB
S3065000005F0347
S306500000606FDA
S306500000610048
S306500000624007
S306500000630343
S306500000646FD6
S306500000650044
S306500000660043
S30650000067033F
S306500000686FD2
S306500000690040
S3065000006AC07F
S3065000006B023C
S3065000006C6FCE
S3065000006D003C
S3065000006E80BB
S3065000006F0238
S306500000706FCA
S306500000710038
S3065000007240F7
S306500000730234
S306500000746FC6
S306500000750034
S306500000760033
S306500000770230
S306500000786FC2
S306500000790030
S3065000007AC06F
S3065000007B012D
S3065000007C6FBE
S3065000007D002C
S3065000007E80AB
S3065000007F0129
S306500000806FBA
S306500000810028
S306500000820027
S306500000830125
S306500000846FB6
S306500000850024
S306500000860023
S306500000870121
S306500000886FB2
S306500000890020
S3065000008AC05F
S3065000008B001E
S3065000008C6FAE
S3065000008D001C
S3065000008E809B
S3065000008F001A
S30650000090EF2A
S306500000918098
S306500000921007
S3065000009338DE
S306500000941302
S306500000950113
S306500000960112
S30650000097F919
S3065000009823EE
S3065000009920F0
S3065000009A11FE
S3065000009B000E
S3065000009C23EA
S3065000009D22EA
S3065000009E31DA
S3065000009F000A
S306500000A023E6
S306500000A124E4
S306500000A241C6
S306500000A30006
S306500000A423E2
S306500000A526DE
S306500000A651B2
S306500000A70002
S306500000A823DE
S306500000A928D8
S306500000AA619E
S306500000AB00FE
S306500000AC23DA
S306500000AD2AD2
S306500000AE718A
S306500000AF00FA
S306500000B023D6
S306500000B12CCC
S306500000B2C136
S306500000B301F5
S306500000B423D2
S306500000B52EC6
S306500000B6D122
S306500000B701F1
S306500000B823CE
S306500000B920D0
S306500000BAE10E
S306500000BB03EB
S306500000BC23CA
S306500000BD22CA
S306500000BEF1FA
S306500000BF03E7
S306500000C023C6
S306500000C124C4
S306500000C2A146
S306500000C302E4
S306500000C423C2
S306500000C526BE
S306500000C6B132
S306500000C702E0
S306500000C823BE
S306500000C928B8
S306500000CAC11E
S306500000CB02DC
S306500000CC23BA
S306500000CD2AB2
S306500000CED10A
S306500000CF02D8
S306500000D023B6
S306500000D12CAC
S306500000D2E1F6
S306500000D302D4
S306500000D423B2
S306500000D52EA6
S306500000D6F1E2
S306500000D702D0
S306500000D823AE
S306500000D920B0
S306500000DA01CE
S306500000DB05C9
S306500000DC23AA
S306500000DD22AA
S306500000DE11BA
S306500000DF05C5
S306500000E0F3D6
S306500000E122A6
S306500000E210B7
S306500000E33492
S306500000E423A2
S306500000E524A0
S306500000E65172
S306500000E704BE
S306500000E8F3CE
S306500000E9229E
S306500000EA00BF
S306500000EB7C42
S306500000EC239A
S306500000ED2696
S306500000EE516A
S306500000EF04B6
S306500000F0EFCA
S306500000F100B8
S306500000F28037
S306500000F31C9A
S306500000F4EFC6
S306500000F500B4
S306500000F600B3
S306500000F7258D
S306500000F8139E
S306500000F903AD
S306500000FA00AF
S306500000FB00AE
S306500000FC634A
S306500000FD1A92
S306500000FE05A6
S306500000FF02A8
S306500001008325
S306500001012285
S306500001028125
S3065000010304A1
S306500001049311
S306500001058221
S306500001064260
S3065000010700A1
S30650000108237D
S30650000109247B
S3065000010A514D
S3065000010B0499
S3065000010CF3A9
S3065000010D2279
S3065000010E207A
S3065000010F3465
S306500001109305
S306500001110394
S30650000112F0A6
S306500001130194
S30650000114B3E1
S30650000115F2A1
S306500001167220
S306500001170091
S30650000118137D
S30650000119038C
S3065000011AB0DE
S3065000011B008D
S3065000011C6329
S3065000011D8407
S3065000011E6228
S3065000011F0A7F
S306500001201375
S306500001210582
S306500001220185
S306500001230085
S3065000012497ED
S306500001250083
S306500001260082
S306500001270081
S3065000012893ED
S3065000012980FF
S3065000012A007E
S3065000012B136A
S3065000012C6F0D
S3065000012D80FB
S3065000012E90EA
S3065000012F4930
S3065000013093E5
S306500001310275
S306500001320175
S306500001330075
S3065000013497DD
S306500001353340
S306500001360072
S306500001370170
S3065000013893DD
S3065000013983EC
S3065000013A432B
S3065000013BB9B4
S3065000013C0369
S3065000013DA1CA
S3065000013E4327
S3065000013F0069
S306500001401355
S306500001410166
S306500001420165
S30650000143FF66
S306500001442341
S306500001452043
S306500001465111
S306500001470061
S30650000148035D
S30650000149AEB1
S3065000014A035B
S3065000014B005D
S3065000014C1349
S3065000014D0E4D
S3065000014E1E3C
S3065000014F0059
S306500001502335
S30650000151A0B7
S30650000152C393
S306500001530154
S3065000015463F1
S30650000155084B
S30650000156034F
S306500001570051
S3065000015897B9
S30650000159004F
S3065000015A004E
S3065000015B004D
S3065000015C93B9
S3065000015D80CB
S3065000015E80CA
S3065000015F0346
S306500001606FD9
S3065000016180C7
S30650000162D076
S306500001635AEB
S3065000016473D1
S30650000165251E
S306500001662022
S30650000167340D
S3065000016893AD
S30650000169023D
S3065000016AF04E
S3065000016B013C
S3065000016C3309
S3065000016D75C6
S3065000016E55E5
S3065000016F0039
S30650000170EF49
S306500001710037
S306500001720036
S306500001731B1A
S30650000174979D
S306500001750231
S306500001760032
S306500001770130
S30650000178939D
S3065000017982AD
S3065000017A42EC
S3065000017BF33A
S3065000017C1319
S3065000017D1516
S3065000017E35F5
S3065000017F0029
S30650000180B375
S3065000018182A5
S30650000182A284
S306500001830025
S306500001840321
S30650000185A57E
S306500001860220
S306500001870021
S30650000188031D
S30650000189A37C
S3065000018A42DC
S3065000018B001D
S3065000018CE735
S3065000018D001B
S3065000018E0317
S3065000018F0019
S306500001901701
S3065000019133E4
S306500001920016
S306500001930114
S306500001941301
S306500001950310
S30650000196838F
S30650000197B35E
S30650000198838D
S3065000019923EC
S3065000019A030B
S3065000019B000D
S3065000019C9379
S3065000019D8388
S3065000019EF317
S3065000019FFF0A
S306500001A023E5
S306500001A120E7
S306500001A27393
S306500001A30005
S306500001A48381
S306500001A522E1
S306500001A60101
S306500001A70001
S306500001A813ED
S306500001A9817E
S306500001AA02FC
S306500001AB00FD
S306500001AC8379
S306500001AD23D8
S306500001AE8377
S306500001AF00F9
S306500001B003F5
S306500001B1DE19
S306500001B2A353
S306500001B300F5
S306500001B49361
S306500001B50EE5
S306500001B600F2
S306500001B708E9
S306500001B8638D
S306500001B97E71
S306500001BADE10
S306500001BB09E4
S306500001BC03E9
S306500001BD2EBD
S306500001BE43A7
S306500001BF01E8
S306500001C06385
S306500001C10ADD
S306500001C27E68
S306500001C308DD
S306500001C4EFF5
S306500001C59053
S306500001C640A2
S306500001C7449D
S306500001C89749
S306500001C932AD
S306500001CA00DE
S306500001CB01DC
S306500001CC9349
S306500001CD8259
S306500001CE02D8
S306500001CFB029
S306500001D003D5
S306500001D1A334
S306500001D28254
S306500001D300D5
S306500001D423B1
S306500001D526AD
S306500001D6834F
S306500001D702CF
S306500001D823AD
S306500001D928A7
S306500001DA933B
S306500001DB02CB
S306500001DC23A9
S306500001DD2AA1
S306500001DE23A7
S306500001DF03C6
S306500001E023A5
S306500001E12C9B
S306500001E23393
S306500001E303C2
S306500001E423A1
S306500001E52E95
S306500001E6437F
S306500001E703BE
S306500001E8239D
S306500001E9209F
S306500001EA536B
S306500001EB05B8
S306500001EC2399
S306500001ED2299
S306500001EE6357
S306500001EF05B4
S306500001F02395
S306500001F12493
S306500001F27343
S306500001F305B0
S306500001F42391
S306500001F5268D
S306500001F6832F
S306500001F705AC
S306500001F8238D
S306500001F92887
S306500001FA931B
S306500001FB05A8
S306500001FC2389
S306500001FD2A81
S306500001FEA307
S306500001FF05A4
S306500002002384
S306500002012C7A
S30650000202B3F2
S30650000203059F
S306500002042380
S30650000205247E
S30650000206237E
S30650000207029E
S306500002089708
S30650000209336B
S3065000020A009D
S3065000020B019B
S3065000020C9308
S3065000020D8317
S3065000020EC3D6
S3065000020F99FF
S306500002100394
S30650000211AEE8
S306500002120392
S306500002130094
S306500002142370
S30650000215246E
S30650000216C3CE
S306500002170789
S30650000218038C
S30650000219A3EB
S3065000021A424B
S3065000021B018B
S3065000021C2368
S3065000021DA4E6
S3065000021E6227
S3065000021F0088
S306500002200384
S306500002212165
S306500002228302
S306500002230282
S306500002240380
S30650000225245E
S30650000226C3BE
S30650000227027E
S3065000022883FC
S30650000229245A
S3065000022A037A
S3065000022B0379
S3065000022C0378
S3065000022D2951
S3065000022E4336
S3065000022F0375
S3065000023083F4
S30650000231294D
S3065000023283F2
S306500002330371
S306500002340370
S306500002352A48
S30650000236C3AE
S30650000237036D
S3065000023883EC
S306500002392A44
S3065000023A036A
S3065000023B0468
S3065000023C0368
S3065000023D2B3F
S3065000023E4326
S3065000023F0464
S3065000024083E4
S306500002412B3B
S3065000024283E2
S306500002430460
S306500002440360
S306500002452C36
S30650000246C39E
S30650000247045C
S3065000024883DC
S306500002492C32
S3065000024A035A
S3065000024B0557
S3065000024C0358
S3065000024D2D2D
S3065000024E4316
S3065000024F0553
S3065000025083D4
S306500002512D29
S3065000025283D2
S30650000253054F
S30650000254EF64
S306500002550052
S3065000025680D1
S306500002570947
S3065000025883CC
S30650000259222C
S3065000025A81CC
S3065000025B0448
S3065000025C73D8
S3065000025D90BA
S3065000025E1237
S3065000025F3414
S3065000026083C4
S306500002612224
S30650000262C184
S306500002630440
S3065000026473D0
S3065000026590B2
S30650000266023F
S306500002677CC4
S3065000026883BC
S30650000269201E
S3065000026A013C
S3065000026B003C
S3065000026C83B8
S3065000026D2119
S3065000026E41F8
S3065000026F0038
S306500002700334
S306500002712214
S3065000027281B4
S306500002730034
S3065000027483B0
S306500002752210
S30650000276C170
S306500002770030
S30650000278032C
S30650000279230B
S3065000027A012C
S3065000027B012B
S3065000027C83A8
S3065000027D2307
S3065000027E41E8
S3065000027F0127
S306500002800324
S306500002812EF8
S3065000028281A4
S306500002830123
S3065000028483A0
S306500002852EF4
S30650000286C160
S30650000287011F
S30650000288031C
S306500002892FEF
S3065000028A011C
S3065000028B021A
S3065000028C8398
S3065000028D2FEB
S3065000028E41D8
S3065000028F0216
S306500002900314
S3065000029125F1
S306500002928194
S306500002930212
S306500002948390
S3065000029525ED
S30650000296C150
S30650000297020E
S30650000298030C
S3065000029926E8
S3065000029A010C
S3065000029B0309
S3065000029C8388
S3065000029D26E4
S3065000029E41C8
S3065000029F0305
S306500002A00304
S306500002A127DF
S306500002A28184
S306500002A30301
S306500002A48380
S306500002A527DB
S306500002A6C140
S306500002A703FD
S306500002A803FC
S306500002A928D6
S306500002AA01FC
S306500002AB04F8
S306500002AC8378
S306500002AD28D2
S306500002AE41B8
S306500002AF04F4
S306500002B013E4
S306500002B101F5
S306500002B201F4
S306500002B307ED
S306500002B47380
S306500002B500F2
S306500002B600F1
S306500002B710E0
S306500002B8F3FC
S306500002B922CC
S306500002BA00ED
S306500002BB7B71
S306500002BC7378
S306500002BD23C7
S306500002BE10D9
S306500002BF7B6D
S306500002C0F3F4
S306500002C123C3
S306500002C220C5
S306500002C37B69
S306500002C423C0
S306500002C528BA
S306500002C65190
S306500002C704DC
S306500002C823BC
S306500002C92AB4
S306500002CA617C
S306500002CB04D8
S306500002CC23B8
S306500002CD2CAE
S306500002CE7168
S306500002CF04D4
S306500002D0F3E4
S306500002D122B4
S306500002D24095
S306500002D37B59
S306500002D47360
S306500002D523AF
S306500002D65081
S306500002D77B55
S306500002D8F3DC
S306500002D923AB
S306500002DA606D
S306500002DB7B51
S306500002DC23A8
S306500002DD2E9C
S306500002DE5178
S306500002DF04C4
S306500002E023A4
S306500002E120A6
S306500002E26164
S306500002E306BE
S306500002E423A0
S306500002E522A0
S306500002E67150
S306500002E706BA
S306500002E86758
S306500002E9803E
S306500002EA00BD
S306500002EB00BC
S306500002EC8338
S306500002ED2298
S306500002EE01B8
S306500002EF05B3
S306500002F003B4
S306500002F12393
S306500002F24174
S306500002F305AF
S306500002F48330
S306500002F5238F
S306500002F68130
S306500002F705AB
S306500002F8733C
S306500002F9901E
S306500002FA02AB
S306500002FB7B31
S306500002FC7338
S306500002FD109A
S306500002FE1396
S306500002FF7B2D
S306500003007333
S306500003019015
S306500003022381
S306500003037B28
S30650000304831F
S30650000305227F
S30650000306C1DF
S30650000307059A
S30650000308039B
S30650000309237A
S3065000030A019B
S3065000030B0695
S3065000030C8317
S3065000030D2376
S3065000030E4157
S3065000030F0691
S306500003107323
S306500003119005
S306500003124252
S306500003137B18
S30650000314731F
S306500003151081
S30650000316533D
S306500003177B14
S30650000318731B
S3065000031990FD
S3065000031A6329
S3065000031B7B10
S3065000031C6723
S3065000031D8009
S3065000031E0088
S3065000031F0087
S30650000320374F
S306500003214342
S306500003221074
S306500003231A69
S30650000324136F
S30650000325037E
S30650000326C3BD
S30650000327007F
S3065000032893EB
S30650000329037A
S3065000032A106C
S3065000032B007B
S3065000032C3347
S3065000032D9EDB
S3065000032EA3D5
S3065000032F0077
S306500003302353
S306500003312055
S30650000332C3B1
S306500003330172
S30650000334373B
S30650000335432E
S306500003361060
S306500003371A55
S30650000338135B
S30650000339036A
S3065000033AC3A9
S3065000033B016A
S3065000033C2347
S3065000033D2049
S3065000033EC3A5
S3065000033F0166
S3065000034067FF
S3065000034180E5
S306500003420064
S306500003430063
S30650000344F36F
S30650000345223F
S306500003462040
S30650000347342B
S3065000034893CB
S30650000349F26B
S3065000034AF26A
S3065000034B015A
S3065000034C1347
S3065000034D0356
S3065000034EF068
S3065000034F0057
S306500003501343
S306500003510550
S306500003520054
S306500003530053
S3065000035463EF
S30650000355C48D
S3065000035662EE
S30650000357004F
S30650000358133B
S306500003590548
S3065000035A1537
S3065000035B004B
S3065000035C67E3
S3065000035D80C9
S3065000035E0048
S3065000035F0047
S3065000036073D3
S306500003610045
S306500003620044
S306500003630043
S3065000036497AB
S30650000365320F
S306500003660040
S30650000367013E
S3065000036893AB
S3065000036982BB
S3065000036A42FA
S3065000036B96A5
S3065000036C0337
S3065000036DA396
S3065000036E82B6
S3065000036F0037
S3065000037083B3
S306500003712312
S3065000037283B1
S30650000373062D
S30650000374131F
S3065000037575BC
S30650000376151B
S30650000377002F
S30650000378F33B
S30650000379220B
S3065000037A0527
S3065000037B30FB
S3065000037C1317
S3065000037D85A4
S3065000037E0325
S3065000037F0027
S3065000038067BF
S3065000038180A5
S306500003820024
S306500003830023
S30650000384031F
S3065000038523FE
S3065000038645DB
S30650000387001F
S30650000388031B
S3065000038923FA
S3065000038AC359
S3065000038B001B
S3065000038C67B3
S3065000038D0019
S3065000038E0315
S3065000038F0017
S306500003900313
S3065000039123F2
S3065000039245CF
S306500003930013
S30650000394030F
S3065000039523EE
S30650000396838D
S30650000397000F
S3065000039867A7
S30650000399000D
S3065000039A0309
S3065000039B000B
S3065000039C0307
S3065000039D23E6
S3065000039E45C3
S3065000039F0007
S306500003A00303
S306500003A123E2
S306500003A243C1
S306500003A30003
S306500003A4679B
S306500003A50001
S306500003A603FD
S306500003A700FF
S306500003A8837B
S306500003A927D6
S306500003AA45B7
S306500003AB00FB
S306500003AC03F7
S306500003ADA356
S306500003AE07F1
S306500003AF00F7
S306500003B0678F
S306500003B100F5
S306500003B203F1
S306500003B300F3
S306500003B413DF
S306500003B501F0
S306500003B601EF
S306500003B7FFF0
S306500003B823CB
S306500003B926C7
S306500003BA01EB
S306500003BB00EB
S306500003BC8367
S306500003BD27C2
S306500003BEC127
S306500003BF00E7
S306500003C06383
S306500003C1FAEB
S306500003C2A73D
S306500003C300E3
S306500003C4835F
S306500003C527BA
S306500003C6C11F
S306500003C700DF
S306500003C8934B
S306500003C98756
S306500003CA17C5
S306500003CB00DB
S306500003CC23B7
S306500003CD26B3
S306500003CEF1E7
S306500003CF00D7
S306500003D06F67
S306500003D1F0E5
S306500003D2DFF5
S306500003D3FED5
S306500003D413BF
S306500003D501D0
S306500003D601CF
S306500003D701CE
S306500003D86767
S306500003D9804D
S306500003DA00CC
S306500003DB00CB
S306500003DC13B7
S306500003DD01C8
S306500003DE01C7
S306500003DFFFC8
S306500003E023A3
S306500003E124A1
S306500003E28143
S306500003E300C3
S306500003E4378B
S306500003E5348D
S306500003E600C0
S306500003E72897
S306500003E8239B
S306500003E9229B
S306500003EA912B
S306500003EB00BB
S306500003EC2397
S306500003ED2099
S306500003EE2197
S306500003EF01B6
S306500003F09323
S306500003F104B1
S306500003F205AF
S306500003F300B3
S306500003F4139F
S306500003F58928
S306500003F605AB
S306500003F700AF
S306500003F8931B
S306500003F905A8
S306500003FA8428
S306500003FB02A9
S306500003FC1397
S306500003FD04A5
S306500003FEC4E4
S306500003FF02A5
S306500004002382
S30650000401267E
S306500004021192
S3065000040300A2
S30650000404EFB2
S30650000405F0B0
S306500004061F80
S30650000407F8A6
S30650000408336A
S306500004094656
S3065000040AD9C2
S3065000040BC1D9
S3065000040C9306
S3065000040D0593
S3065000040E0493
S3065000040F0096
S306500004101382
S30650000411850F
S30650000412048F
S306500004130092
S30650000414EFA2
S30650000415F0A0
S306500004161F70
S30650000417F797
S30650000418830A
S306500004192765
S3065000041A0487
S3065000041B008A
S3065000041C6326
S3065000041DD8B0
S3065000041E0780
S3065000041F0086
S306500004201372
S30650000421057F
S306500004228003
S306500004233E44
S30650000424EF92
S30650000425F090
S306500004261F60
S30650000427F985
S306500004286F0E
S30650000429F08C
S3065000042A1F5C
S3065000042BFF7B
S3065000042C83F6
S3065000042D2553
S3065000042E0473
S3065000042F0076
S30650000430373E
S30650000431056F
S306500004320073
S306500004335121
S30650000434135E
S30650000435056B
S3065000043685EA
S306500004371A54
S30650000438EF7E
S3065000043980EC
S3065000043A80EB
S3065000043B72F8
S3065000043C83E6
S3065000043D2048
S3065000043EC1A6
S3065000043F0066
S306500004401352
S30650000441055F
S306500004420063
S306500004430062
S30650000444035E
S30650000445243C
S3065000044681DE
S30650000447005E
S3065000044883DA
S306500004492438
S3065000044A411A
S3065000044B005A
S3065000044C0356
S3065000044D292F
S3065000044E0156
S3065000044F0056
S306500004501342
S306500004510153
S306500004520152
S306500004530151
S3065000045467EA
S3065000045580D0
S30650000456004F
S30650000457004E
S30650000458133A
S306500004590646
S3065000045A004B
S3065000045B004A
S3065000045CB792
S3065000045D2523
S3065000045E2027
S3065000045FA0A6
S306500004606FD6
S30650000461F054
S30650000462DF64
S30650000463F74B
S30650000464370A
S30650000465053B
S30650000466003F
S3065000046751ED
S30650000468132A
S30650000469013B
S3065000046A013A
S3065000046BFF3B
S3065000046C1326
S3065000046D0533
S3065000046E85B2
S3065000046F1D19
S306500004702312
S30650000471260E
S306500004721122
S306500004730032
S30650000474230E
S30650000475240C
S3065000047681AE
S30650000477002E
S30650000478230A
S30650000479220A
S3065000047A919A
S3065000047B002A
S3065000047CEF3A
S3065000047D80A8
S3065000047E1017
S3065000047F31F5
S30650000480B76E
S3065000048135EF
S306500004820023
S3065000048328FA
S30650000484130E
S30650000485041C
S30650000486051A
S30650000487001E
S30650000488EF2E
S30650000489F02C
S3065000048A9F7C
S3065000048BF02A
S3065000048C9386
S3065000048D0513
S3065000048E0512
S3065000048F0016
S3065000049037DE
S30650000491050F
S306500004920013
S3065000049351C1
S30650000494B75A
S3065000049534DC
S30650000496000F
S3065000049728E6
S3065000049813FA
S306500004990507
S3065000049A0506
S3065000049B1EEC
S3065000049CEF1A
S3065000049D8088
S3065000049E40C7
S3065000049F6C9A
S306500004A09372
S306500004A1857F
S306500004A244BF
S306500004A30002
S306500004A413EE
S306500004A505FB
S306500004A604FB
S306500004A700FE
S306500004A8EF0E
S306500004A9F00C
S306500004AA9F5C
S306500004ABEE0C
S306500004AC9366
S306500004AD05F3
S306500004AE05F2
S306500004AF00F6
S306500004B037BE
S306500004B105EF
S306500004B200F3
S306500004B351A1
S306500004B413DE
S306500004B505EB
S306500004B645AA
S306500004B71FCF
S306500004B8EFFE
S306500004B9806C
S306500004BA806B
S306500004BB6A80
S306500004BC9356
S306500004BD8563
S306500004BE8463
S306500004BF00E6
S306500004C013D2
S306500004C105DF
S306500004C204DF
S306500004C300E2
S306500004C4EFF2
S306500004C5F0F0
S306500004C6DF00
S306500004C7ECF2
S306500004C8934A
S306500004C905D7
S306500004CA05D6
S306500004CB00DA
S306500004CC37A2
S306500004CD05D3
S306500004CE00D7
S306500004CF5185
S306500004D013C2
S306500004D105CF
S306500004D2854E
S306500004D320B2
S306500004D4EFE2
S306500004D58050
S306500004D6C00F
S306500004D76866
S306500004D8933A
S306500004D98547
S306500004DAC407
S306500004DB00CA
S306500004DC13B6
S306500004DD05C3
S306500004DE04C3
S306500004DF00C6
S306500004E0EFD6
S306500004E1F0D4
S306500004E21FA4
S306500004E3EBD7
S306500004E4932E
S306500004E505BB
S306500004E605BA
S306500004E700BE
S306500004E83786
S306500004E905B7
S306500004EA00BB
S306500004EB5169
S306500004EC13A6
S306500004ED05B3
S306500004EEC5F2
S306500004EF2195
S306500004F0EFC6
S306500004F18034
S306500004F200B3
S306500004F3674B
S306500004F4931E
S306500004F5852B
S306500004F604AB
S306500004F701AD
S306500004F8139A
S306500004F905A7
S306500004FA04A7
S306500004FB00AA
S306500004FCEFBA
S306500004FDF0B8
S306500004FE5F48
S306500004FFE9BD
S306500005009311
S30650000501059E
S30650000502059D
S3065000050300A1
S306500005043769
S30650000505059A
S30650000506009E
S30650000507514C
S306500005081389
S306500005090596
S3065000050A0595
S3065000050B2376
S3065000050CEFA9
S3065000050D8017
S3065000050E4056
S3065000050F6530
S306500005109301
S30650000511850E
S30650000512444E
S306500005130190
S30650000514137D
S30650000515058A
S30650000516048A
S30650000517008D
S30650000518EF9D
S30650000519F09B
S3065000051A9FEB
S3065000051BE7A2
S3065000051C93F5
S3065000051D0582
S3065000051E0581
S3065000051F0085
S30650000520374D
S30650000521057E
S306500005220082
S306500005235130
S30650000524136D
S30650000525057A
S306500005264539
S306500005272459
S30650000528EF8D
S3065000052980FB
S3065000052A80FA
S3065000052B6316
S3065000052C93E5
S3065000052D85F2
S3065000052E84F2
S3065000052F0174
S306500005301361
S30650000531056E
S30650000532046E
S306500005330071
S30650000534EF81
S30650000535F07F
S30650000536DF8F
S30650000537E588
S3065000053893D9
S306500005390566
S3065000053A0565
S3065000053B0069
S3065000053C3731
S3065000053D0562
S3065000053E0066
S3065000053F5114
S306500005401351
S30650000541055E
S3065000054285DD
S30650000543253C
S30650000544EF71
S3065000054580DF
S30650000546C09E
S3065000054761FC
S3065000054893C9
S3065000054985D6
S3065000054AC496
S3065000054B0158
S3065000054C1345
S3065000054D0552
S3065000054E0452
S3065000054F0055
S30650000550EF65
S30650000551F063
S306500005521F33
S30650000553E46D
S3065000055493BD
S30650000555054A
S306500005560549
S30650000557004D
S306500005583715
S306500005590546
S3065000055A004A
S3065000055B51F8
S3065000055C1335
S3065000055D0542
S3065000055EC581
S3065000055F261F
S30650000560EF55
S3065000056180C3
S306500005620042
S3065000056360E1
S3065000056493AD
S3065000056585BA
S30650000566043A
S30650000567023B
S306500005681329
S306500005690536
S3065000056A0436
S3065000056B0039
S3065000056CEF49
S3065000056DF047
S3065000056E5FD7
S3065000056FE253
S3065000057093A1
S30650000571052E
S30650000572052D
S306500005730031
S3065000057437F9
S30650000575052A
S30650000576002E
S3065000057751DC
S306500005781319
S306500005790526
S3065000057A0525
S3065000057B2801
S3065000057CEF39
S3065000057D80A7
S3065000057E40E6
S3065000057F5EC7
S306500005809391
S30650000581859E
S3065000058244DE
S30650000583021F
S30650000584130D
S30650000585051A
S30650000586041A
S30650000587001D
S30650000588EF2D
S30650000589F02B
S3065000058A9F7B
S3065000058BE039
S3065000058C9385
S3065000058D0512
S3065000058E0511
S3065000058F0015
S3065000059037DD
S30650000591050E
S306500005920012
S3065000059351C0
S3065000059413FD
S30650000595050A
S3065000059645C9
S3065000059729E4
S30650000598EF1D
S30650000599808B
S3065000059A808A
S3065000059B5CAD
S3065000059C9375
S3065000059D8582
S3065000059E0402
S3065000059F0302
S306500005A013F1
S306500005A105FE
S306500005A204FE
S306500005A30001
S306500005A4EF11
S306500005A5F00F
S306500005A6DF1F
S306500005A7DE1F
S306500005A89369
S306500005A905F6
S306500005AA05F5
S306500005AB00F9
S306500005AC37C1
S306500005AD05F2
S306500005AE00F6
S306500005AF51A4
S306500005B013E1
S306500005B105EE
S306500005B2856D
S306500005B32AC7
S306500005B4EF01
S306500005B5806F
S306500005B6C02E
S306500005B75A93
S306500005B89359
S306500005B98566
S306500005BA44A6
S306500005BB03E6
S306500005BC13D5
S306500005BD05E2
S306500005BE04E2
S306500005BF00E5
S306500005C0EFF5
S306500005C1F0F3
S306500005C21FC3
S306500005C3DD04
S306500005C4934D
S306500005C505DA
S306500005C605D9
S306500005C700DD
S306500005C837A5
S306500005C905D6
S306500005CA00DA
S306500005CB5188
S306500005CC13C5
S306500005CD05D2
S306500005CEC511
S306500005CF2BAA
S306500005D0EFE5
S306500005D18053
S306500005D200D2
S306500005D35978
S306500005D4933D
S306500005D5854A
S306500005D6844A
S306500005D703CA
S306500005D813B9
S306500005D905C6
S306500005DA04C6
S306500005DB00C9
S306500005DCEFD9
S306500005DDF0D7
S306500005DE5F67
S306500005DFDBEA
S306500005E09331
S306500005E105BE
S306500005E205BD
S306500005E300C1
S306500005E43789
S306500005E505BA
S306500005E600BE
S306500005E7516C
S306500005E813A9
S306500005E905B6
S306500005EA05B5
S306500005EB2D8C
S306500005ECEFC9
S306500005ED8037
S306500005EE4076
S306500005EF575E
S306500005F09321
S306500005F1852E
S306500005F2C4EE
S306500005F303AE
S306500005F4139D
S306500005F505AA
S306500005F604AA
S306500005F700AD
S306500005F8EFBD
S306500005F9F0BB
S306500005FA9F0B
S306500005FBD9D0
S306500005FC9315
S306500005FD05A2
S306500005FE05A1
S306500005FF00A5
S30650000600376C
S30650000601059D
S3065000060200A1
S30650000603514F
S30650000604138C
S306500006050599
S306500006064558
S306500006072E6E
S30650000608EFAC
S30650000609801A
S3065000060A8019
S3065000060B5543
S3065000060C9304
S3065000060D8511
S3065000060E0491
S3065000060F0490
S306500006101380
S30650000611058D
S30650000612048D
S306500006130090
S30650000614EFA0
S30650000615F09E
S30650000616DFAE
S30650000617D7B5
S3065000061893F8
S306500006190585
S3065000061A0584
S3065000061B0088
S3065000061C3750
S3065000061D0581
S3065000061E0085
S3065000061F5133
S306500006201370
S30650000621057D
S3065000062285FC
S306500006232F51
S30650000624EF90
S3065000062580FE
S30650000626C0BD
S306500006275329
S3065000062893E8
S3065000062985F5
S3065000062A4435
S3065000062B0474
S3065000062C1364
S3065000062D0571
S3065000062E0471
S3065000062F0074
S30650000630EF84
S30650000631F082
S306500006321F52
S30650000633D69A
S3065000063493DC
S306500006350569
S306500006360568
S30650000637006C
S306500006383734
S306500006390565
S3065000063A0069
S3065000063B5117
S3065000063C1354
S3065000063D0561
S3065000063EC5A0
S3065000063F3034
S30650000640EF74
S3065000064180E2
S306500006420061
S30650000643520E
S3065000064493CC
S3065000064585D9
S3065000064684D9
S306500006470458
S306500006481348
S306500006490555
S3065000064A0455
S3065000064B0058
S3065000064CEF68
S3065000064DF066
S3065000064E5FF6
S3065000064FD480
S3065000065093C0
S30650000651054D
S30650000652054C
S306500006530050
S306500006543718
S306500006550549
S30650000656004D
S3065000065751FB
S306500006581338
S306500006590545
S3065000065A0544
S3065000065B3216
S3065000065CEF58
S3065000065D80C6
S3065000065E4005
S3065000065F50F4
S3065000066093B0
S3065000066185BD
S30650000662C47D
S30650000663043C
S30650000664132C
S306500006650539
S306500006660439
S30650000667003C
S30650000668EF4C
S30650000669F04A
S3065000066A9F9A
S3065000066BD266
S3065000066C93A4
S3065000066D0531
S3065000066E0530
S3065000066F0034
S3065000067037FC
S30650000671052D
S306500006720031
S3065000067351DF
S30650000674131C
S306500006750529
S3065000067645E8
S3065000067733F9
S30650000678EF3C
S3065000067980AA
S3065000067A80A9
S3065000067B4EDA
S3065000067C9394
S3065000067D85A1
S3065000067E0421
S3065000067F051F
S306500006801310
S30650000681051D
S30650000682041D
S306500006830020
S30650000684EF30
S30650000685F02E
S30650000686DF3E
S30650000687D04C
S306500006889388
S306500006890515
S3065000068A0514
S3065000068B0018
S3065000068C37E0
S3065000068D0511
S3065000068E0015
S3065000068F51C3
S306500006901300
S30650000691050D
S30650000692858C
S3065000069334DC
S30650000694EF20
S30650000695808E
S30650000696C04D
S306500006974CC0
S306500006989378
S306500006998585
S3065000069A44C5
S3065000069B0503
S3065000069C13F4
S3065000069D0501
S3065000069E0401
S3065000069F0004
S306500006A0EF14
S306500006A1F012
S306500006A21FE2
S306500006A3CF31
S306500006A4936C
S306500006A505F9
S306500006A605F8
S306500006A700FC
S306500006A837C4
S306500006A905F5
S306500006AA00F9
S306500006AB51A7
S306500006AC13E4
S306500006AD05F1
S306500006AEC530
S306500006AF35BF
S306500006B0EF04
S306500006B18072
S306500006B200F1
S306500006B34BA5
S306500006B4935C
S306500006B58569
S306500006B68469
S306500006B705E7
S306500006B813D8
S306500006B905E5
S306500006BA04E5
S306500006BB00E8
S306500006BCEFF8
S306500006BDF0F6
S306500006BE5F86
S306500006BFCD17
S306500006C09350
S306500006C105DD
S306500006C205DC
S306500006C300E0
S306500006C437A8
S306500006C505D9
S306500006C600DD
S306500006C7518B
S306500006C813C8
S306500006C905D5
S306500006CA05D4
S306500006CB37A1
S306500006CCEFE8
S306500006CD8056
S306500006CE4095
S306500006CF498B
S306500006D09340
S306500006D1854D
S306500006D2C40D
S306500006D305CB
S306500006D413BC
S306500006D505C9
S306500006D604C9
S306500006D700CC
S306500006D8EFDC
S306500006D9F0DA
S306500006DA9F2A
S306500006DBCBFD
S306500006DC9334
S306500006DD05C1
S306500006DE05C0
S306500006DF00C4
S306500006E0378C
S306500006E105BD
S306500006E200C1
S306500006E3516F
S306500006E413AC
S306500006E505B9
S306500006E64578
S306500006E73884
S306500006E8EFCC
S306500006E9803A
S306500006EA8039
S306500006EB4771
S306500006EC9324
S306500006ED8531
S306500006EE04B1
S306500006EF06AE
S306500006F013A0
S306500006F105AD
S306500006F204AD
S306500006F300B0
S306500006F4EFC0
S306500006F5F0BE
S306500006F6DFCE
S306500006F7C9E3
S306500006F89318
S306500006F905A5
S306500006FA05A4
S306500006FB00A8
S306500006FC3770
S306500006FD05A1
S306500006FE00A5
S306500006FF5153
S30650000700138F
S30650000701059C
S30650000702851B
S306500007033966
S30650000704EFAF
S30650000705801D
S30650000706C0DC
S306500007074556
S306500007089307
S306500007098514
S3065000070A4454
S3065000070B0691
S3065000070C1383
S3065000070D0590
S3065000070E0490
S3065000070F0093
S30650000710EFA3
S30650000711F0A1
S306500007121F71
S30650000713C8C7
S3065000071493FB
S306500007150588
S306500007160587
S30650000717008B
S306500007183753
S306500007190584
S3065000071A0088
S3065000071B5136
S3065000071C1373
S3065000071D0580
S3065000071EC5BF
S3065000071F3A49
S30650000720EF93
S306500007218001
S306500007220080
S30650000723443B
S3065000072493EB
S3065000072585F8
S3065000072684F8
S306500007270675
S306500007281367
S306500007290574
S3065000072A0474
S3065000072B0077
S3065000072CEF87
S3065000072DF085
S3065000072E5F15
S3065000072FC6AD
S3065000073093DF
S30650000731056C
S30650000732056B
S30650000733006F
S306500007343737
S306500007350568
S30650000736006C
S30650000737511A
S306500007381357
S306500007390564
S3065000073A0563
S3065000073B3C2B
S3065000073CEF77
S3065000073D80E5
S3065000073E4024
S3065000073F4221
S3065000074093CF
S3065000074185DC
S30650000742C49C
S306500007430659
S30650000744134B
S306500007450558
S306500007460458
S30650000747005B
S30650000748EF6B
S30650000749F069
S3065000074A9FB9
S3065000074BC493
S3065000074C93C3
S3065000074D0550
S3065000074E054F
S3065000074F0053
S30650000750371B
S30650000751054C
S306500007520050
S3065000075351FE
S30650000754133B
S306500007550548
S306500007564507
S306500007573D0E
S30650000758EF5B
S3065000075980C9
S3065000075A80C8
S3065000075B4007
S3065000075C93B3
S3065000075D85C0
S3065000075E0440
S3065000075F083B
S30650000760132F
S30650000761053C
S30650000762043C
S30650000763003F
S30650000764EF4F
S30650000765F04D
S30650000766DF5D
S30650000767C279
S3065000076893A7
S306500007690534
S3065000076A0533
S3065000076B0037
S3065000076C37FF
S3065000076D0530
S3065000076E0034
S3065000076F51E2
S30650000770131F
S30650000771052C
S3065000077285AB
S306500007733EF1
S30650000774EF3F
S3065000077580AD
S30650000776C06C
S306500007773EED
S306500007789397
S3065000077985A4
S3065000077A44E4
S3065000077B081F
S3065000077C1313
S3065000077D0520
S3065000077E0420
S3065000077F0023
S30650000780EF33
S30650000781F031
S306500007821F01
S30650000783C15E
S30650000784938B
S306500007850518
S306500007860517
S30650000787001B
S3065000078837E3
S306500007890514
S3065000078A0018
S3065000078B51C6
S3065000078C1303
S3065000078D0510
S3065000078EC54F
S3065000078F3FD4
S30650000790EF23
S306500007918091
S306500007920010
S306500007933DD2
S30650000794937B
S306500007958588
S306500007968488
S306500007970803
S3065000079813F7
S306500007990504
S3065000079A0404
S3065000079B0007
S3065000079CEF17
S3065000079DF015
S3065000079E5FA5
S3065000079FBF44
S306500007A0936F
S306500007A105FC
S306500007A205FB
S306500007A300FF
S306500007A437C7
S306500007A505F8
S306500007A600FC
S306500007A751AA
S306500007A813E7
S306500007A905F4
S306500007AA05F3
S306500007AB41B6
S306500007ACEF07
S306500007AD8075
S306500007AE40B4
S306500007AF3BB8
S306500007B0935F
S306500007B1856C
S306500007B2C42C
S306500007B308E7
S306500007B413DB
S306500007B505E8
S306500007B604E8
S306500007B700EB
S306500007B8EFFB
S306500007B9F0F9
S306500007BA9F49
S306500007BBBD2A
S306500007BC9353
S306500007BD05E0
S306500007BE05DF
S306500007BF00E3
S306500007C037AB
S306500007C105DC
S306500007C200E0
S306500007C3518E
S306500007C413CB
S306500007C505D8
S306500007C64597
S306500007C74299
S306500007C8EFEB
S306500007C98059
S306500007CA8058
S306500007CB399E
S306500007CC9343
S306500007CD8550
S306500007CE04D0
S306500007CF09CA
S306500007D013BF
S306500007D105CC
S306500007D204CC
S306500007D300CF
S306500007D4EFDF
S306500007D5F0DD
S306500007D6DFED
S306500007D7BB10
S306500007D89337
S306500007D905C4
S306500007DA05C3
S306500007DB00C7
S306500007DC378F
S306500007DD05C0
S306500007DE00C4
S306500007DF5172
S306500007E013AF
S306500007E105BC
S306500007E2853B
S306500007E3437C
S306500007E4EFCF
S306500007E5803D
S306500007E6C0FC
S306500007E73784
S306500007E89327
S306500007E98534
S306500007EA4474
S306500007EB09AE
S306500007EC13A3
S306500007ED05B0
S306500007EE04B0
S306500007EF00B3
S306500007F0EFC3
S306500007F1F0C1
S306500007F21F91
S306500007F3BAF5
S306500007F4931B
S306500007F505A8
S306500007F605A7
S306500007F700AB
S306500007F83773
S306500007F905A4
S306500007FA00A8
S306500007FB5156
S306500007FC1393
S306500007FD05A0
S306500007FEC5DF
S306500007FF445F
S30650000800EFB2
S306500008018020
S30650000802009F
S306500008033668
S30650000804930A
S306500008058517
S306500008068417
S306500008070991
S306500008081386
S306500008090593
S3065000080A0493
S3065000080B0096
S3065000080CEFA6
S3065000080DF0A4
S3065000080E5F34
S3065000080FB8DA
S3065000081093FE
S30650000811058B
S30650000812058A
S30650000813008E
S306500008143756
S306500008150587
S30650000816008B
S306500008175139
S306500008181376
S306500008190583
S3065000081A0582
S3065000081B4640
S3065000081CEF96
S3065000081D8004
S3065000081E4043
S3065000081F344E
S3065000082093EE
S3065000082185FB
S30650000822047B
S306500008230777
S30650000824136A
S306500008250577
S306500008260477
S30650000827007A
S30650000828EF8A
S30650000829F088
S3065000082A9FD8
S3065000082BB6C0
S3065000082C93E2
S3065000082D056F
S3065000082E056E
S3065000082F0072
S30650000830373A
S30650000831056B
S30650000832006F
S30650000833511D
S3065000083483EA
S30650000835204C
S30650000836C1AA
S30650000837006A
S306500008380366
S306500008392444
S3065000083A81E6
S3065000083B0066
S3065000083C83E2
S3065000083D2440
S3065000083E4122
S3065000083F0062
S30650000840134E
S30650000841055B
S30650000842451A
S306500008434717
S30650000844134A
S30650000845015B
S30650000846015A
S306500008470159
S306500008486FEA
S3065000084980D8
S3065000084A80D7
S3065000084B3125
S3065000084C93C2
S3065000084DF75D
S3065000084E450E
S3065000084F0052
S3065000085063EE
S3065000085186CA
S306500008520748
S30650000853004E
S3065000085493BA
S306500008550745
S3065000085650FB
S30650000857004A
S306500008582326
S306500008592028
S3065000085AF552
S3065000085B0442
S3065000085C93B2
S3065000085DF74D
S3065000085E053E
S3065000085F1032
S3065000086063DE
S3065000086186BA
S306500008620738
S30650000863003E
S3065000086493AA
S306500008650735
S3065000086640FB
S30650000867003A
S306500008682316
S306500008692216
S3065000086AF542
S3065000086B0036
S3065000086C93A2
S3065000086D979D
S3065000086E052E
S3065000086F0131
S3065000087063CE
S30650000871D65A
S306500008720728
S30650000873002E
S30650000874939A
S306500008750725
S30650000876200B
S306500008770228
S306500008782306
S306500008792206
S3065000087AF532
S3065000087B0026
S3065000087C9392
S3065000087DF72D
S3065000087E25FE
S3065000087F0022
S3065000088063BE
S30650000881869A
S306500008820718
S30650000883001E
S30650000884938A
S306500008850715
S30650000886908B
S30650000887001A
S3065000088823F6
S3065000088922F6
S3065000088AF522
S3065000088B0016
S3065000088C9382
S3065000088DF71D
S3065000088E050E
S3065000088F040E
S3065000089063AE
S30650000891868A
S306500008920708
S30650000893000E
S30650000894937A
S306500008950705
S30650000896907B
S30650000897000A
S3065000089823E6
S3065000089922E6
S3065000089AF512
S3065000089B0006
S3065000089C9372
S3065000089D976D
S3065000089E45BE
S3065000089F0101
S306500008A0639E
S306500008A1D62A
S306500008A207F8
S306500008A300FE
S306500008A4936A
S306500008A507F5
S306500008A610EB
S306500008A702F8
S306500008A823D6
S306500008A922D6
S306500008AAF502
S306500008AB00F6
S306500008AC9362
S306500008ADF7FD
S306500008AE05EE
S306500008AF40B2
S306500008B0638E
S306500008B1866A
S306500008B207E8
S306500008B300EE
S306500008B4935A
S306500008B507E5
S306500008B600EB
S306500008B702E8
S306500008B823C6
S306500008B922C6
S306500008BAF5F2
S306500008BB00E6
S306500008BC9352
S306500008BDF7ED
S306500008BE05DE
S306500008BF08DA
S306500008C0637E
S306500008C1865A
S306500008C207D8
S306500008C300DE
S306500008C4934A
S306500008C507D5
S306500008C630AB
S306500008C702D8
S306500008C823B6
S306500008C922B6
S306500008CAF5E2
S306500008CB00D6
S306500008CC9342
S306500008CD973D
S306500008CE25AE
S306500008CF01D1
S306500008D0636E
S306500008D1D6FA
S306500008D207C8
S306500008D300CE
S306500008D4933A
S306500008D507C5
S306500008D6408B
S306500008D702C8
S306500008D823A6
S306500008D922A6
S306500008DAF5D2
S306500008DB00C6
S306500008DC675E
S306500008DD8044
S306500008DE00C3
S306500008DF00C2
S306500008E0B70A
S306500008E1A719
S306500008E2FFC0
S306500008E3FDC1
S306500008E4932A
S306500008E58735
S306500008E607B4
S306500008E708B2
S306500008E8B306
S306500008E97741
S306500008EAF5C2
S306500008EB00B6
S306500008EC13A2
S306500008ED07AD
S306500008EE00B3
S306500008EF00B2
S306500008F0634E
S306500008F18030
S306500008F207A8
S306500008F30EA0
S306500008F4139A
S306500008F507A5
S306500008F6F0BB
S306500008F700AA
S306500008F86346
S306500008F94C5C
S306500008FA05A2
S306500008FB0C9A
S306500008FC9312
S306500008FD178D
S306500008FE158E
S306500008FF00A2
S30650000900138D
S306500009010798
S30650000902009E
S30650000903019C
S306500009046339
S30650000905C6D5
S306500009060793
S306500009070C8D
S306500009089305
S306500009091780
S3065000090A2571
S3065000090B0095
S3065000090C1381
S3065000090D078C
S3065000090E1082
S3065000090F0190
S30650000910632D
S30650000911C0CF
S306500009120787
S306500009130C81
S3065000091493F9
S306500009151774
S306500009163555
S306500009170089
S306500009181375
S306500009190780
S3065000091A2066
S3065000091B0184
S3065000091C6321
S3065000091DCAB9
S3065000091E077B
S3065000091F0A77
S3065000092093ED
S306500009211768
S306500009224539
S30650000923007D
S306500009241369
S306500009250774
S30650000926304A
S306500009270178
S306500009286315
S30650000929C4B3
S3065000092A076F
S3065000092B0A6B
S3065000092C93E1
S3065000092D175C
S3065000092E551D
S3065000092F0071
S30650000930135D
S306500009310768
S30650000932402E
S30650000933016C
S306500009346309
S30650000935CE9D
S306500009360763
S306500009370861
S30650000938B7B1
S306500009390760
S3065000093A0066
S3065000093B0362
S3065000093CB3B1
S3065000093D77EC
S3065000093EF56D
S3065000093F0061
S30650000940134D
S306500009410758
S30650000942500E
S30650000943015C
S3065000094463F9
S3065000094596C5
S306500009460753
S306500009470851
S3065000094893C5
S306500009491740
S3065000094A85D1
S3065000094B0055
S3065000094C1341
S3065000094D074C
S3065000094E60F2
S3065000094F0150
S3065000095063ED
S30650000951C08F
S306500009520747
S306500009530845
S3065000095493B9
S306500009551734
S3065000095695B5
S306500009570049
S306500009581335
S306500009590740
S3065000095A70D6
S3065000095B0144
S3065000095C63E1
S3065000095DCA79
S3065000095E073B
S3065000095F063B
S3065000096093AD
S306500009611728
S30650000962A599
S30650000963003D
S306500009641329
S306500009650734
S3065000096680BA
S306500009670138
S3065000096863D5
S30650000969C473
S3065000096A072F
S3065000096B062F
S3065000096C93A1
S3065000096D171C
S3065000096EB57D
S3065000096F0031
S30650000970131D
S306500009710728
S30650000972909E
S30650000973012C
S3065000097463C9
S30650000975CE5D
S306500009760723
S306500009770425
S306500009789395
S306500009791710
S3065000097AC561
S3065000097B0025
S3065000097C1311
S3065000097D071C
S3065000097EA082
S3065000097F0120
S3065000098063BD
S30650000981C857
S306500009820717
S306500009830419
S306500009849389
S306500009851704
S30650000986D545
S306500009870019
S306500009881305
S306500009890710
S3065000098AB066
S3065000098B0114
S3065000098C63B1
S3065000098DC251
S3065000098E070B
S3065000098F040D
S30650000990937D
S3065000099117F8
S30650000992E529
S30650000993000D
S3065000099413F9
S306500009950704
S30650000996C04A
S306500009970108
S3065000099863A5
S30650000999CC3B
S3065000099A07FF
S3065000099B0203
S3065000099C9371
S3065000099D17EC
S3065000099EF50D
S3065000099F0001
S306500009A013ED
S306500009A107F8
S306500009A2D02E
S306500009A301FC
S306500009A46399
S306500009A5C635
S306500009A607F3
S306500009A702F7
S306500009A89365
S306500009A917E0
S306500009AA05F1
S306500009AB01F4
S306500009AC13E1
S306500009AD07EC
S306500009AE40B2
S306500009AF01F0
S306500009B0638D
S306500009B1C02F
S306500009B207E7
S306500009B302EB
S306500009B49359
S306500009B517D4
S306500009B625C5
S306500009B701E8
S306500009B813D5
S306500009B907E0
S306500009BAE006
S306500009BB01E4
S306500009BC6381
S306500009BDCA19
S306500009BE07DB
S306500009BF00E1
S306500009C0934D
S306500009C17768
S306500009C205D9
S306500009C308D5
S306500009C413C9
S306500009C507D4
S306500009C600DA
S306500009C700D9
S306500009C86375
S306500009C98453
S306500009CA07CF
S306500009CB00D5
S306500009CC13C1
S306500009CD07CC
S306500009CEE0F2
S306500009CF00D1
S306500009D013BD
S306500009D105CA
S306500009D207C7
S306500009D300CD
S306500009D46765
S306500009D5804B
S306500009D600CA
S306500009D700C9
S306500009D8B711
S306500009D9D7F0
S306500009DA00C6
S306500009DB00C5
S306500009DC9331
S306500009DD873C
S306500009DE07BB
S306500009DFD0F1
S306500009E0B30D
S306500009E17748
S306500009E2F5C9
S306500009E300BD
S306500009E413A9
S306500009E507B4
S306500009E600BA
S306500009E700B9
S306500009E86355
S306500009E98235
S306500009EA07AF
S306500009EB04B1
S306500009EC9321
S306500009ED179C
S306500009EE05AD
S306500009EF01B0
S306500009F0139D
S306500009F107A8
S306500009F2307E
S306500009F302AB
S306500009F46349
S306500009F5CCDF
S306500009F607A3
S306500009F702A7
S306500009F89315
S306500009F91790
S306500009FA1591
S306500009FB01A4
S306500009FC1391
S306500009FD079C
S306500009FE7032
S306500009FF01A0
S30650000A00633C
S30650000A01C6D8
S30650000A020796
S30650000A03029A
S30650000A049308
S30650000A051783
S30650000A064554
S30650000A070197
S30650000A081384
S30650000A09078F
S30650000A0AA0F5
S30650000A0B0193
S30650000A0C6330
S30650000A0DC0D2
S30650000A0E078A
S30650000A0F028E
S30650000A1093FC
S30650000A117717
S30650000A120588
S30650000A13206C
S30650000A141378
S30650000A150783
S30650000A167019
S30650000A170286
S30650000A186324
S30650000A199AEC
S30650000A1A077E
S30650000A1B0084
S30650000A1C93F0
S30650000A1D770B
S30650000A1E057C
S30650000A1F1070
S30650000A20136C
S30650000A210777
S30650000A22007D
S30650000A23007C
S30650000A246318
S30650000A2584F6
S30650000A260772
S30650000A270078
S30650000A281364
S30650000A29076F
S30650000A2AF085
S30650000A2B0074
S30650000A2C1360
S30650000A2D056D
S30650000A2E076A
S30650000A2F0070
S30650000A306708
S30650000A3180EE
S30650000A32006D
S30650000A33006C
S30650000A341358
S30650000A350169
S30650000A360168
S30650000A37FD6B
S30650000A382344
S30650000A392244
S30650000A3A91D4
S30650000A3B0262
S30650000A3CB7AC
S30650000A3D342E
S30650000A3E0061
S30650000A3F510F
S30650000A40233C
S30650000A41243A
S30650000A4281DC
S30650000A43025A
S30650000A441348
S30650000A4584D6
S30650000A46C495
S30650000A472E2A
S30650000A482334
S30650000A492036
S30650000A4A2134
S30650000A4B0351
S30650000A4C2330
S30650000A4D262C
S30650000A4E1140
S30650000A4F024E
S30650000A50232C
S30650000A512E20
S30650000A52311C
S30650000A53014B
S30650000A542328
S30650000A552C1E
S30650000A564108
S30650000A570147
S30650000A582324
S30650000A592A1C
S30650000A5A51F4
S30650000A5B0143
S30650000A5C2320
S30650000A5D281A
S30650000A5E61E0
S30650000A5F013F
S30650000A60231C
S30650000A612618
S30650000A6271CC
S30650000A63013B
S30650000A642318
S30650000A652416
S30650000A6681B8
S30650000A670137
S30650000A680334
S30650000A692412
S30650000A6A84B1
S30650000A6B0232
S30650000A6C93A0
S30650000A6D84AE
S30650000A6EC46D
S30650000A6F2E02
S30650000A70131C
S30650000A710925
S30650000A72002D
S30650000A73002C
S30650000A7463C8
S30650000A753EEC
S30650000A761514
S30650000A770820
S30650000A789394
S30650000A79091D
S30650000A7A44E1
S30650000A7B0024
S30650000A7C1310
S30650000A7D0A18
S30650000A7E849D
S30650000A7F0020
S30650000A80938C
S30650000A810A14
S30650000A82C459
S30650000A83001C
S30650000A841308
S30650000A850B0F
S30650000A860415
S30650000A870117
S30650000A889384
S30650000A890B0B
S30650000A8A44D1
S30650000A8B0113
S30650000A8C37DC
S30650000A8D0C06
S30650000A8E0011
S30650000A8F51BF
S30650000A908B84
S30650000A91A866
S30650000A928B82
S30650000A93010B
S30650000A940B00
S30650000A9528E2
S30650000A968B7E
S30650000A970107
S30650000A988B7C
S30650000A99A75F
S30650000A9A8A7B
S30650000A9B0103
S30650000A9C0BF8
S30650000A9D27DB
S30650000A9E8A77
S30650000A9F01FF
S30650000AA08B74
S30650000AA1A658
S30650000AA28974
S30650000AA301FB
S30650000AA40BF0
S30650000AA526D4
S30650000AA68475
S30650000AA701F7
S30650000AA89364
S30650000AA905F1
S30650000AAA09EC
S30650000AAB00F4
S30650000AAC13E0
S30650000AAD05ED
S30650000AAE8C65
S30650000AAF48A8
S30650000AB013DC
S30650000AB109E5
S30650000AB219D4
S30650000AB300EC
S30650000AB4EFFC
S30650000AB5806A
S30650000AB6C029
S30650000AB70ADE
S30650000AB8E304
S30650000AB93CAA
S30650000ABA895C
S30650000ABBFCE8
S30650000ABC37AC
S30650000ABD05DD
S30650000ABE00E1
S30650000ABF518F
S30650000AC003DC
S30650000AC1A638
S30650000AC2C419
S30650000AC303D9
S30650000AC48358
S30650000AC5A535
S30650000AC604D5
S30650000AC703D5
S30650000AC813C4
S30650000AC905D1
S30650000ACAC510
S30650000ACB4E86
S30650000ACCEFE4
S30650000ACD8052
S30650000ACE4091
S30650000ACF09C7
S30650000AD03798
S30650000AD105C9
S30650000AD200CD
S30650000AD3517B
S30650000AD403C8
S30650000AD5A624
S30650000AD68445
S30650000AD703C5
S30650000AD88344
S30650000AD9A521
S30650000ADA4481
S30650000ADB03C1
S30650000ADC8340
S30650000ADD20A2
S30650000ADEC100
S30650000ADF02BE
S30650000AE003BC
S30650000AE1249A
S30650000AE2813C
S30650000AE302BA
S30650000AE48338
S30650000AE52496
S30650000AE64178
S30650000AE702B6
S30650000AE803B4
S30650000AE9298D
S30650000AEA01B4
S30650000AEB02B2
S30650000AEC8330
S30650000AED2989
S30650000AEEC1F0
S30650000AEF01AF
S30650000AF003AC
S30650000AF12A84
S30650000AF2812C
S30650000AF301AB
S30650000AF48328
S30650000AF52A80
S30650000AF64168
S30650000AF701A7
S30650000AF803A4
S30650000AF92B7B
S30650000AFA01A4
S30650000AFB01A3
S30650000AFC8320
S30650000AFD2B77
S30650000AFEC1E0
S30650000AFF00A0
S30650000B00039B
S30650000B012C71
S30650000B02811B
S30650000B03009B
S30650000B041387
S30650000B050594
S30650000B060593
S30650000B075245
S30650000B081383
S30650000B090194
S30650000B0A0193
S30650000B0B0390
S30650000B0C6F23
S30650000B0D8011
S30650000B0E4050
S30650000B0F058A
S30650000B10B7D7
S30650000B110984
S30650000B12008C
S30650000B13513A
S30650000B140387
S30650000B152663
S30650000B160484
S30650000B170087
S30650000B188303
S30650000B19275E
S30650000B1AC4C0
S30650000B1B0083
S30650000B1C83FF
S30650000B1D2859
S30650000B1E443C
S30650000B1F017E
S30650000B20037B
S30650000B212855
S30650000B220478
S30650000B23017A
S30650000B240377
S30650000B252752
S30650000B2684F4
S30650000B270077
S30650000B2883F3
S30650000B29264F
S30650000B2A4430
S30650000B2B0073
S30650000B2C93DF
S30650000B2D056C
S30650000B2E0967
S30650000B2F006F
S30650000B30135B
S30650000B3185E8
S30650000B324923
S30650000B335516
S30650000B34EF7B
S30650000B3580E9
S30650000B36C0A8
S30650000B370265
S30650000B380363
S30650000B392441
S30650000B3A4420
S30650000B3B0162
S30650000B3C83DF
S30650000B3DA7BA
S30650000B3E84DC
S30650000B3F025D
S30650000B40E37B
S30650000B410E4F
S30650000B42F468
S30650000B43F665
S30650000B441347
S30650000B450950
S30650000B46193F
S30650000B470057
S30650000B48E373
S30650000B49361F
S30650000B4A89CB
S30650000B4BFC57
S30650000B4C6FE3
S30650000B4DF061
S30650000B4E1F31
S30650000B4FF758
S30650000B50133B
S30650000B51014C
S30650000B52014B
S30650000B53FE4D
S30650000B542327
S30650000B552A1F
S30650000B5691B7
S30650000B570047
S30650000B5893B3
S30650000B590441
S30650000B5A053F
S30650000B5B0043
S30650000B5C370B
S30650000B5D053C
S30650000B5E0040
S30650000B5F51EE
S30650000B60231B
S30650000B612815
S30650000B62211B
S30650000B63013A
S30650000B641327
S30650000B650534
S30650000B6685B3
S30650000B671D1A
S30650000B681323
S30650000B6989AC
S30650000B6A052F
S30650000B6B0033
S30650000B6C230F
S30650000B6D2C05
S30650000B6E81AF
S30650000B6F002F
S30650000B70230B
S30650000B712EFF
S30650000B72111B
S30650000B73002B
S30650000B742307
S30650000B752603
S30650000B7631F7
S30650000B770126
S30650000B782303
S30650000B792401
S30650000B7A41E3
S30650000B7B0122
S30650000B7C23FF
S30650000B7D22FF
S30650000B7E51CF
S30650000B7F011E
S30650000B80EF2F
S30650000B81809D
S30650000B82C05C
S30650000B8340DB
S30650000B849387
S30650000B8577A2
S30650000B8649CF
S30650000B870017
S30650000B881303
S30650000B890411
S30650000B8A050F
S30650000B8B0013
S30650000B8C63AF
S30650000B8D848D
S30650000B8E0709
S30650000B8F020D
S30650000B90937B
S30650000B910706
S30650000B9230DC
S30650000B930308
S30650000B94B753
S30650000B9535D4
S30650000B960008
S30650000B9728DF
S30650000B9823E3
S30650000B99A263
S30650000B9AF410
S30650000B9B0003
S30650000B9C13EF
S30650000B9D06FB
S30650000B9E40C0
S30650000B9F00FF
S30650000BA0936B
S30650000BA18578
S30650000BA2C537
S30650000BA308F3
S30650000BA4EF0B
S30650000BA5F009
S30650000BA68F69
S30650000BA7FFF8
S30650000BA837BF
S30650000BA905F0
S30650000BAA00F4
S30650000BAB51A2
S30650000BAC13DF
S30650000BAD05EC
S30650000BAE856B
S30650000BAF5B94
S30650000BB0EFFF
S30650000BB1707D
S30650000BB210DC
S30650000BB37B70
S30650000BB49357
S30650000BB57772
S30650000BB609DF
S30650000BB701E6
S30650000BB86383
S30650000BB9865F
S30650000BBA07DD
S30650000BBB1CC7
S30650000BBC37AB
S30650000BBD3AA7
S30650000BBE00E0
S30650000BBF28B7
S30650000BC0934B
S30650000BC10AD3
S30650000BC2CA12
S30650000BC308D3
S30650000BC413C7
S30650000BC506D3
S30650000BC600D8
S30650000BC701D6
S30650000BC89343
S30650000BC98550
S30650000BCA0ACA
S30650000BCB00D3
S30650000BCC13BF
S30650000BCD05CC
S30650000BCE04CC
S30650000BCF00CF
S30650000BD0EFDF
S30650000BD1F0DD
S30650000BD2CFFD
S30650000BD3FCCF
S30650000BD43793
S30650000BD505C4
S30650000BD600C8
S30650000BD75176
S30650000BD813B3
S30650000BD905C0
S30650000BDA853F
S30650000BDB5D66
S30650000BDCB70B
S30650000BDD3988
S30650000BDE00C0
S30650000BDF516E
S30650000BE0EFCF
S30650000BE1704D
S30650000BE210AC
S30650000BE37843
S30650000BE49327
S30650000BE58930
S30650000BE6892F
S30650000BE7BBFC
S30650000BE813A3
S30650000BE905B0
S30650000BEA10A4
S30650000BEB00B3
S30650000BECEFC3
S30650000BEDF0C1
S30650000BEE9F11
S30650000BEFE4CB
S30650000BF0EFBF
S30650000BF1F0BD
S30650000BF25F4D
S30650000BF38724
S30650000BF403A7
S30650000BF5A702
S30650000BF6099F
S30650000BF700A7
S30650000BF89313
S30650000BF9079E
S30650000BFA2084
S30650000BFB00A3
S30650000BFC633F
S30650000BFDEAB7
S30650000BFEE7B9
S30650000BFF0699
S30650000C00930A
S30650000C010795
S30650000C02702B
S30650000C03009A
S30650000C042376
S30650000C05A0F8
S30650000C06F4A3
S30650000C070492
S30650000C081382
S30650000C09068E
S30650000C0AF0A3
S30650000C0BFF93
S30650000C0C93FE
S30650000C0D058B
S30650000C0E4A45
S30650000C0F048A
S30650000C10236A
S30650000C11A2EA
S30650000C120487
S30650000C13008A
S30650000C141376
S30650000C150583
S30650000C160483
S30650000C170086
S30650000C18EF96
S30650000C19F094
S30650000C1A4F34
S30650000C1BF88A
S30650000C1C136E
S30650000C1D067A
S30650000C1EF08F
S30650000C1FFF7F
S30650000C2093EA
S30650000C2185F7
S30650000C220A71
S30650000C23007A
S30650000C241366
S30650000C250573
S30650000C260473
S30650000C270076
S30650000C28EF86
S30650000C29F084
S30650000C2A4F24
S30650000C2BF77B
S30650000C2C373A
S30650000C2D056B
S30650000C2E006F
S30650000C2F511D
S30650000C30036A
S30650000C31A6C6
S30650000C320467
S30650000C330466
S30650000C3483E6
S30650000C35A5C3
S30650000C364423
S30650000C370066
S30650000C381352
S30650000C39055F
S30650000C3A055E
S30650000C3B5F03
S30650000C3CEF72
S30650000C3D70F0
S30650000C3E500F
S30650000C3F72EC
S30650000C4083DA
S30650000C41A5B7
S30650000C420952
S30650000C43005A
S30650000C443722
S30650000C450553
S30650000C460057
S30650000C475105
S30650000C481342
S30650000C49054F
S30650000C4A054E
S30650000C4B62F0
S30650000C4CEF62
S30650000C4D70E0
S30650000C4E50FF
S30650000C4F71DD
S30650000C50133A
S30650000C510646
S30650000C52103B
S30650000C53004A
S30650000C5493B6
S30650000C550543
S30650000C564AFD
S30650000C57083E
S30650000C581332
S30650000C59053F
S30650000C5A043F
S30650000C5B0042
S30650000C5CEF52
S30650000C5DF050
S30650000C5E8FB0
S30650000C5FF24C
S30650000C6083BA
S30650000C61A795
S30650000C620932
S30650000C63003A
S30650000C6493A6
S30650000C6587B1
S30650000C661720
S30650000C670036
S30650000C682312
S30650000C69A094
S30650000C6AF93A
S30650000C6B0032
S30650000C6C6FC2
S30650000C6D0030
S30650000C6E80AF
S30650000C6F111D
S30650000C70939A
S30650000C710725
S30650000C7240EB
S30650000C730327
S30650000C741316
S30650000C750622
S30650000C761017
S30650000C770026
S30650000C782302
S30650000C79A282
S30650000C7AF42F
S30650000C7B0022
S30650000C7C23FE
S30650000C7DA080
S30650000C7EC45B
S30650000C7F041A
S30650000C80938A
S30650000C810517
S30650000C820A11
S30650000C83001A
S30650000C841306
S30650000C850513
S30650000C860413
S30650000C870016
S30650000C88EF26
S30650000C89F024
S30650000C8A4FC4
S30650000C8BF121
S30650000C8C13FE
S30650000C8D050B
S30650000C8E40CF
S30650000C8F0608
S30650000C90EF1E
S30650000C91F01C
S30650000C924FBC
S30650000C93F218
S30650000C949376
S30650000C950503
S30650000C960AFD
S30650000C970006
S30650000C9813F2
S30650000C9905FF
S30650000C9A04FF
S30650000C9B0002
S30650000C9CEF12
S30650000C9DF010
S30650000C9E4FB0
S30650000C9FEF0F
S30650000CA033CA
S30650000CA135C7
S30650000CA215E6
S30650000CA3FCFE
S30650000CA46396
S30650000CA508F0
S30650000CA605F2
S30650000CA700F6
S30650000CA837BE
S30650000CA905EF
S30650000CAA00F3
S30650000CAB51A1
S30650000CAC13DE
S30650000CAD05EB
S30650000CAE45AA
S30650000CAF648A
S30650000CB0EFFE
S30650000CB1707C
S30650000CB210DB
S30650000CB36B7F
S30650000CB413D6
S30650000CB506E2
S30650000CB640A7
S30650000CB700E6
S30650000CB8B72E
S30650000CB935AF
S30650000CBA00E3
S30650000CBB28BA
S30650000CBC13CE
S30650000CBD05DB
S30650000CBE04DB
S30650000CBF00DE
S30650000CC0EFEE
S30650000CC1F0EC
S30650000CC2CF0C
S30650000CC3EDED
S30650000CC413C6
S30650000CC505D3
S30650000CC64097
S30650000CC706D0
S30650000CC8EFE6
S30650000CC9F0E4
S30650000CCACF04
S30650000CCBEEE4
S30650000CCCB71A
S30650000CCD359B
S30650000CCE00CF
S30650000CCF28A6
S30650000CD013BA
S30650000CD105C7
S30650000CD204C7
S30650000CD300CA
S30650000CD4EFDA
S30650000CD5F0D8
S30650000CD6CFF8
S30650000CD7EBDB
S30650000CD813B2
S30650000CD9754F
S30650000CDA457E
S30650000CDB00C2
S30650000CDC635E
S30650000CDD08B8
S30650000CDE05BA
S30650000CDF00BE
S30650000CE03786
S30650000CE105B7
S30650000CE200BB
S30650000CE35169
S30650000CE413A6
S30650000CE505B3
S30650000CE64572
S30650000CE76650
S30650000CE8EFC6
S30650000CE97044
S30650000CEA9023
S30650000CEB674B
S30650000CEC139E
S30650000CED06AA
S30650000CEE208F
S30650000CEF00AE
S30650000CF0B7F6
S30650000CF13577
S30650000CF200AB
S30650000CF32882
S30650000CF41396
S30650000CF505A3
S30650000CF604A3
S30650000CF700A6
S30650000CF8EFB6
S30650000CF9F0B4
S30650000CFA4F54
S30650000CFBEAB8
S30650000CFC138E
S30650000CFD059B
S30650000CFE405F
S30650000CFF0698
S30650000D00EFAD
S30650000D01F0AB
S30650000D024F4B
S30650000D03EBAE
S30650000D04B7E1
S30650000D053562
S30650000D060096
S30650000D07286D
S30650000D081381
S30650000D09058E
S30650000D0A048E
S30650000D0B0091
S30650000D0CEFA1
S30650000D0DF09F
S30650000D0E4F3F
S30650000D0FE8A5
S30650000D101379
S30650000D117516
S30650000D122565
S30650000D130089
S30650000D146325
S30650000D15087F
S30650000D160581
S30650000D170085
S30650000D18374D
S30650000D19057E
S30650000D1A0082
S30650000D1B5130
S30650000D1C136D
S30650000D1D057A
S30650000D1EC5B9
S30650000D1F6716
S30650000D20EF8D
S30650000D21700B
S30650000D22106A
S30650000D236415
S30650000D24B7C1
S30650000D25393E
S30650000D260076
S30650000D27284D
S30650000D281361
S30650000D298AE9
S30650000D2A0969
S30650000D2B0869
S30650000D2C135D
S30650000D2D0669
S30650000D2E105E
S30650000D2F006D
S30650000D3093D9
S30650000D310566
S30650000D320A60
S30650000D330069
S30650000D341355
S30650000D350562
S30650000D360462
S30650000D370065
S30650000D38EF75
S30650000D39F073
S30650000D3A4F13
S30650000D3BE67B
S30650000D3C134D
S30650000D3D055A
S30650000D3E401E
S30650000D3F0657
S30650000D40EF6D
S30650000D41F06B
S30650000D424F0B
S30650000D43E772
S30650000D4493C5
S30650000D450552
S30650000D460A4C
S30650000D470055
S30650000D481341
S30650000D49054E
S30650000D4A044E
S30650000D4B0051
S30650000D4CEF61
S30650000D4DF05F
S30650000D4E4FFF
S30650000D4FE469
S30650000D503319
S30650000D513516
S30650000D521535
S30650000D53FC4D
S30650000D5463E5
S30650000D55083F
S30650000D560541
S30650000D570045
S30650000D58370D
S30650000D59053E
S30650000D5A0042
S30650000D5B51F0
S30650000D5C132D
S30650000D5D053A
S30650000D5EC579
S30650000D5F69D4
S30650000D60EF4D
S30650000D6170CB
S30650000D62102A
S30650000D6360D9
S30650000D641325
S30650000D650631
S30650000D66F046
S30650000D67FF36
S30650000D6893A1
S30650000D6985AE
S30650000D6A49E9
S30650000D6B042D
S30650000D6C131D
S30650000D6D052A
S30650000D6E042A
S30650000D6F002D
S30650000D70EF3D
S30650000D71F03B
S30650000D72CF5B
S30650000D73E247
S30650000D741315
S30650000D750621
S30650000D76F036
S30650000D77FF26
S30650000D789391
S30650000D79859E
S30650000D7AC959
S30650000D7B0819
S30650000D7C130D
S30650000D7D051A
S30650000D7E041A
S30650000D7F001D
S30650000D80EF2D
S30650000D81F02B
S30650000D82CF4B
S30650000D83E138
S30650000D849385
S30650000D8577A0
S30650000D86090D
S30650000D870213
S30650000D8863B1
S30650000D89868D
S30650000D8A070B
S30650000D8B020F
S30650000D8C937D
S30650000D8D0708
S30650000D8E50BE
S30650000D8F030A
S30650000D90B755
S30650000D9135D6
S30650000D92000A
S30650000D9328E1
S30650000D9423E5
S30650000D95A265
S30650000D96F412
S30650000D970005
S30650000D9813F1
S30650000D9906FD
S30650000D9A0002
S30650000D9B02FF
S30650000D9C936D
S30650000D9D857A
S30650000D9EC539
S30650000D9F08F5
S30650000DA013E9
S30650000DA105F6
S30650000DA204F6
S30650000DA300F9
S30650000DA4EF09
S30650000DA5F007
S30650000DA68F67
S30650000DA7DF16
S30650000DA837BD
S30650000DA905EE
S30650000DAA00F2
S30650000DAB51A0
S30650000DAC13DD
S30650000DAD05EA
S30650000DAE8569
S30650000DAF6B82
S30650000DB0EFFD
S30650000DB1707B
S30650000DB210DA
S30650000DB35B8E
S30650000DB413D5
S30650000DB5796E
S30650000DB609DD
S30650000DB720C5
S30650000DB86381
S30650000DB902E1
S30650000DBA09D9
S30650000DBB04DD
S30650000DBCB729
S30650000DBD35AA
S30650000DBE00DE
S30650000DBF28B5
S30650000DC013C9
S30650000DC105D6
S30650000DC204D6
S30650000DC300D9
S30650000DC413C5
S30650000DC506D1
S30650000DC600D6
S30650000DC720B5
S30650000DC89341
S30650000DC9854E
S30650000DCAC50D
S30650000DCB08C9
S30650000DCCEFE1
S30650000DCDF0DF
S30650000DCE0FBF
S30650000DCFDDF0
S30650000DD03795
S30650000DD105C6
S30650000DD200CA
S30650000DD35178
S30650000DD48345
S30650000DD520A7
S30650000DD6C105
S30650000DD701C4
S30650000DD803C1
S30650000DD9249F
S30650000DDA8141
S30650000DDB01C0
S30650000DDC833D
S30650000DDD249B
S30650000DDE417D
S30650000DDF01BC
S30650000DE003B9
S30650000DE12992
S30650000DE201B9
S30650000DE301B8
S30650000DE48335
S30650000DE5298E
S30650000DE6C1F5
S30650000DE700B5
S30650000DE803B1
S30650000DE92A89
S30650000DEA8131
S30650000DEB00B1
S30650000DEC832D
S30650000DED2A85
S30650000DEE416D
S30650000DEF00AD
S30650000DF01399
S30650000DF105A6
S30650000DF24565
S30650000DF36D3C
S30650000DF41395
S30650000DF501A6
S30650000DF601A5
S30650000DF702A3
S30650000DF86F35
S30650000DF97033
S30650000DFA9012
S30650000DFB564B
S30650000DFC831D
S30650000DFD207F
S30650000DFEC1DD
S30650000DFF019C
S30650000E000398
S30650000E012476
S30650000E028118
S30650000E030197
S30650000E048314
S30650000E052472
S30650000E064154
S30650000E070193
S30650000E080390
S30650000E092969
S30650000E0A0190
S30650000E0B018F
S30650000E0C830C
S30650000E0D2965
S30650000E0EC1CC
S30650000E0F008C
S30650000E100388
S30650000E112A60
S30650000E128108
S30650000E130088
S30650000E148304
S30650000E152A5C
S30650000E164144
S30650000E170084
S30650000E181370
S30650000E190181
S30650000E1A0180
S30650000E1B027E
S30650000E1C6718
S30650000E1D80FE
S30650000E1E007D
S30650000E1F007C
S30650000E201368
S30650000E210179
S30650000E220178
S30650000E23FD7B
S30650000E242354
S30650000E252E48
S30650000E263144
S30650000E270173
S30650000E282350
S30650000E292C46
S30650000E2A4130
S30650000E2B016F
S30650000E2C93DC
S30650000E2D0965
S30650000E2E0667
S30650000E2F006C
S30650000E301358
S30650000E318AE0
S30650000E320564
S30650000E330068
S30650000E341354
S30650000E350660
S30650000E360065
S30650000E370163
S30650000E38B7AC
S30650000E39352D
S30650000E3A0061
S30650000E3B2838
S30650000E3C233C
S30650000E3D2638
S30650000E3E114C
S30650000E3F025A
S30650000E402338
S30650000E412436
S30650000E4281D8
S30650000E430256
S30650000E442334
S30650000E452234
S30650000E4691C4
S30650000E470252
S30650000E481340
S30650000E49044E
S30650000E4A0849
S30650000E4B0050
S30650000E4C232C
S30650000E4D202E
S30650000E4E212C
S30650000E4F0349
S30650000E502328
S30650000E512A20
S30650000E5251F8
S30650000E530147
S30650000E540344
S30650000E55291D
S30650000E560144
S30650000E570341
S30650000E5893B0
S30650000E590A38
S30650000E5A073A
S30650000E5B0040
S30650000E5C231C
S30650000E5D2816
S30650000E5E61DC
S30650000E5F013B
S30650000E602318
S30650000E612614
S30650000E6271C8
S30650000E630137
S30650000E641324
S30650000E658BAB
S30650000E66072E
S30650000E670034
S30650000E6893A0
S30650000E698BA7
S30650000E6A062B
S30650000E6B0030
S30650000E6C939C
S30650000E6D042A
S30650000E6E0528
S30650000E6F002C
S30650000E70EF3C
S30650000E71F03A
S30650000E728F9A
S30650000E73D355
S30650000E7437F0
S30650000E750521
S30650000E760025
S30650000E7751D3
S30650000E789390
S30650000E79051D
S30650000E7A041D
S30650000E7B0020
S30650000E7C130C
S30650000E7D0519
S30650000E7E8598
S30650000E7F73A9
S30650000E80EF2C
S30650000E8170AA
S30650000E821009
S30650000E834ECA
S30650000E8437E0
S30650000E8536E0
S30650000E860015
S30650000E8751C3
S30650000E881300
S30650000E89060C
S30650000E8AC64B
S30650000E8B2EE2
S30650000E8C23EC
S30650000E8D22EC
S30650000E8E7697
S30650000E8F0507
S30650000E9023E8
S30650000E9126E4
S30650000E9266A3
S30650000E930503
S30650000E9423E4
S30650000E9528DE
S30650000E9656AF
S30650000E9705FF
S30650000E9823E0
S30650000E992AD8
S30650000E9A46BB
S30650000E9B05FB
S30650000E9C23DC
S30650000E9D28D6
S30650000E9E36C7
S30650000E9F01FB
S30650000EA023D8
S30650000EA124D6
S30650000EA28673
S30650000EA304F4
S30650000EA423D4
S30650000EA520D6
S30650000EA626CF
S30650000EA707ED
S30650000EA813E0
S30650000EA9856D
S30650000EAA04ED
S30650000EAB00F0
S30650000EAC836C
S30650000EAD20CE
S30650000EAEC12C
S30650000EAF02EA
S30650000EB003E8
S30650000EB124C6
