S00D00007A65706879722E73313945
S306500000001396
S3065000000100A8
S3065000000200A7
S3065000000300A6
S306500000041392
S3065000000500A4
S3065000000600A3
S3065000000700A2
S30650000008138E
S3065000000900A0
S3065000000A009F
S3065000000B009E
S3065000000C138A
S3065000000D009C
S3065000000E009B
S3065000000F009A
S306500000101386
S306500000110098
S306500000120097
S306500000130096
S306500000141382
S306500000150094
S306500000160093
S306500000170092
S30650000018137E
S306500000190090
S3065000001A008F
S3065000001B008E
S3065000001C137A
S3065000001D008C
S3065000001E008B
S3065000001F008A
S306500000201376
S306500000210088
S306500000220087
S306500000230086
S306500000241372
S306500000250084
S306500000260083
S306500000270082
S30650000028136E
S306500000290080
S3065000002A007F
S3065000002B007E
S3065000002C136A
S3065000002D007C
S3065000002E007B
S3065000002F007A
S306500000301366
S306500000310078
S306500000320077
S306500000330076
S306500000341362
S306500000350074
S306500000360073
S306500000370072
S30650000038135E
S306500000390070
S3065000003A006F
S3065000003B006E
S3065000003C6FFE
S3065000003D006C
S3065000003E80EB
S3065000003F0565
S306500000406FFA
S306500000410068
S306500000424027
S306500000430561
S306500000446FF6
S306500000450064
S306500000460063
S30650000047055D
S306500000486FF2
S306500000490060
S3065000004AC09F
S3065000004B045A
S3065000004C6FEE
S3065000004D005C
S3065000004E80DB
S3065000004F0456
S306500000506FEA
S306500000510058
S306500000524017
S306500000530452
S306500000546FE6
S306500000550054
S306500000560053
S30650000057044E
S306500000586FE2
S306500000590050
S3065000005AC08F
S3065000005B034B
S3065000005C6FDE
S3065000005D004C
S3065000005E80CB
S3065000005F0347
S306500000606FDA
S306500000610048
S306500000624007
S306500000630343
S306500000646FD6
S306500000650044
S306500000660043
S30650000067033F
S306500000686FD2
S306500000690040
S3065000006AC07F
S3065000006B023C
S3065000006C6FCE
S3065000006D003C
S3065000006E80BB
S3065000006F0238
S306500000706FCA
S306500000710038
S3065000007240F7
S306500000730234
S306500000746FC6
S306500000750034
S306500000760033
S306500000770230
S306500000786FC2
S306500000790030
S3065000007AC06F
S3065000007B012D
S3065000007C6FBE
S3065000007D002C
S3065000007E80AB
S3065000007F0129
S306500000806FBA
S306500000810028
S306500000820027
S306500000830125
S306500000846FB6
S306500000850024
S306500000860023
S306500000870121
S306500000886FB2
S306500000890020
S3065000008AC05F
S3065000008B001E
S3065000008C6FAE
S3065000008D001C
S3065000008E809B
S3065000008F001A
S30650000090EF2A
S306500000911008
S30650000092D047
S306500000931CFA
S306500000941302
S306500000950113
S306500000960112
S30650000097F919
S3065000009823EE
S3065000009920F0
S3065000009A11FE
S3065000009B000E
S3065000009C23EA
S3065000009D22EA
S3065000009E31DA
S3065000009F000A
S306500000A023E6
S306500000A124E4
S306500000A241C6
S306500000A30006
S306500000A423E2
S306500000A526DE
S306500000A651B2
S306500000A70002
S306500000A823DE
S306500000A928D8
S306500000AA619E
S306500000AB00FE
S306500000AC23DA
S306500000AD2AD2
S306500000AE718A
S306500000AF00FA
S306500000B023D6
S306500000B12CCC
S306500000B2C136
S306500000B301F5
S306500000B423D2
S306500000B52EC6
S306500000B6D122
S306500000B701F1
S306500000B823CE
S306500000B920D0
S306500000BAE10E
S306500000BB03EB
S306500000BC23CA
S306500000BD22CA
S306500000BEF1FA
S306500000BF03E7
S306500000C023C6
S306500000C124C4
S306500000C2A146
S306500000C302E4
S306500000C423C2
S306500000C526BE
S306500000C6B132
S306500000C702E0
S306500000C823BE
S306500000C928B8
S306500000CAC11E
S306500000CB02DC
S306500000CC23BA
S306500000CD2AB2
S306500000CED10A
S306500000CF02D8
S306500000D023B6
S306500000D12CAC
S306500000D2E1F6
S306500000D302D4
S306500000D423B2
S306500000D52EA6
S306500000D6F1E2
S306500000D702D0
S306500000D823AE
S306500000D920B0
S306500000DA01CE
S306500000DB05C9
S306500000DC23AA
S306500000DD22AA
S306500000DE11BA
S306500000DF05C5
S306500000E0F3D6
S306500000E122A6
S306500000E210B7
S306500000E33492
S306500000E423A2
S306500000E524A0
S306500000E65172
S306500000E704BE
S306500000E8F3CE
S306500000E9229E
S306500000EA00BF
S306500000EB7C42
S306500000EC239A
S306500000ED2696
S306500000EE516A
S306500000EF04B6
S306500000F0EFCA
S306500000F100B8
S306500000F28037
S306500000F31C9A
S306500000F4EFC6
S306500000F500B4
S306500000F600B3
S306500000F7258D
S306500000F8139E
S306500000F903AD
S306500000FA00AF
S306500000FB00AE
S306500000FC634A
S306500000FD1A92
S306500000FE05A6
S306500000FF02A8
S306500001008325
S306500001012285
S306500001028125
S3065000010304A1
S306500001049311
S306500001058221
S306500001064260
S3065000010700A1
S30650000108237D
S30650000109247B
S3065000010A514D
S3065000010B0499
S3065000010CF3A9
S3065000010D2279
S3065000010E207A
S3065000010F3465
S306500001109305
S306500001110394
S30650000112F0A6
S306500001130194
S30650000114B3E1
S30650000115F2A1
S306500001167220
S306500001170091
S30650000118137D
S30650000119038C
S3065000011AB0DE
S3065000011B008D
S3065000011C6329
S3065000011D8407
S3065000011E6228
S3065000011F0A7F
S306500001201375
S306500001210582
S306500001220185
S306500001230085
S3065000012497ED
S306500001250083
S306500001260082
S306500001270081
S3065000012893ED
S3065000012980FF
S3065000012A007E
S3065000012B136A
S3065000012C6F0D
S3065000012D106B
S3065000012E502A
S3065000012F2E4B
S3065000013093E5
S306500001310275
S306500001320175
S306500001330075
S3065000013497DD
S306500001350370
S306500001360072
S306500001370170
S3065000013893DD
S3065000013983EC
S3065000013A432B
S3065000013B79F4
S3065000013C0369
S3065000013DA1CA
S3065000013E4327
S3065000013F0069
S306500001401355
S306500001410166
S306500001420165
S30650000143FF66
S306500001442341
S306500001452043
S306500001465111
S306500001470061
S30650000148035D
S30650000149AEB1
S3065000014A035B
S3065000014B005D
S3065000014C1349
S3065000014D0E4D
S3065000014E1E3C
S3065000014F0059
S306500001502335
S30650000151A0B7
S30650000152C393
S306500001530154
S3065000015463F1
S30650000155084B
S30650000156034F
S306500001570051
S3065000015897B9
S30650000159004F
S3065000015A004E
S3065000015B004D
S3065000015C93B9
S3065000015D80CB
S3065000015E80CA
S3065000015F0346
S306500001606FD9
S306500001611037
S3065000016290B6
S306500001633F06
S3065000016473D1
S30650000165251E
S306500001662022
S30650000167340D
S3065000016893AD
S30650000169023D
S3065000016AF04E
S3065000016B013C
S3065000016C3309
S3065000016D75C6
S3065000016E55E5
S3065000016F0039
S30650000170EF49
S306500001710037
S306500001720036
S306500001731B1A
S30650000174979D
S306500001750231
S306500001760032
S306500001770130
S30650000178939D
S3065000017982AD
S3065000017A022C
S3065000017BEE3F
S3065000017C1319
S3065000017D1516
S3065000017E35F5
S3065000017F0029
S30650000180B375
S3065000018182A5
S30650000182A284
S306500001830025
S306500001840321
S30650000185A57E
S306500001860220
S306500001870021
S30650000188031D
S30650000189A37C
S3065000018A42DC
S3065000018B001D
S3065000018CE735
S3065000018D001B
S3065000018E0317
S3065000018F0019
S306500001901701
S306500001910314
S306500001920016
S306500001930114
S306500001941301
S306500001950310
S30650000196838F
S30650000197739E
S30650000198838D
S3065000019923EC
S3065000019A030B
S3065000019B000D
S3065000019C9379
S3065000019D8388
S3065000019EF317
S3065000019FFF0A
S306500001A023E5
S306500001A120E7
S306500001A27393
S306500001A30005
S306500001A48381
S306500001A522E1
S306500001A60101
S306500001A70001
S306500001A813ED
S306500001A9817E
S306500001AA02FC
S306500001AB00FD
S306500001AC8379
S306500001AD23D8
S306500001AE8377
S306500001AF00F9
S306500001B003F5
S306500001B1DE19
S306500001B2A353
S306500001B300F5
S306500001B49361
S306500001B50EE5
S306500001B600F2
S306500001B708E9
S306500001B8638D
S306500001B97E71
S306500001BADE10
S306500001BB09E4
S306500001BC03E9
S306500001BD2EBD
S306500001BE43A7
S306500001BF01E8
S306500001C06385
S306500001C10ADD
S306500001C27E68
S306500001C308DD
S306500001C4EFF5
S306500001C520C3
S306500001C600E2
S306500001C729B8
S306500001C89749
S306500001C902DD
S306500001CA00DE
S306500001CB01DC
S306500001CC9349
S306500001CD8259
S306500001CE02D8
S306500001CF7069
S306500001D003D5
S306500001D1A334
S306500001D28254
S306500001D300D5
S306500001D423B1
S306500001D526AD
S306500001D6834F
S306500001D702CF
S306500001D823AD
S306500001D928A7
S306500001DA933B
S306500001DB02CB
S306500001DC23A9
S306500001DD2AA1
S306500001DE23A7
S306500001DF03C6
S306500001E023A5
S306500001E12C9B
S306500001E23393
S306500001E303C2
S306500001E423A1
S306500001E52E95
S306500001E6437F
S306500001E703BE
S306500001E8239D
S306500001E9209F
S306500001EA536B
S306500001EB05B8
S306500001EC2399
S306500001ED2299
S306500001EE6357
S306500001EF05B4
S306500001F02395
S306500001F12493
S306500001F27343
S306500001F305B0
S306500001F42391
S306500001F5268D
S306500001F6832F
S306500001F705AC
S306500001F8238D
S306500001F92887
S306500001FA931B
S306500001FB05A8
S306500001FC2389
S306500001FD2A81
S306500001FEA307
S306500001FF05A4
S306500002002384
S306500002012C7A
S30650000202B3F2
S30650000203059F
S306500002042380
S30650000205247E
S30650000206237E
S30650000207029E
S306500002089708
S30650000209039B
S3065000020A009D
S3065000020B019B
S3065000020C9308
S3065000020D8317
S3065000020E4356
S3065000020F5A3E
S306500002100394
S30650000211AEE8
S306500002120392
S306500002130094
S306500002142370
S30650000215246E
S30650000216C3CE
S306500002170789
S30650000218038C
S30650000219A3EB
S3065000021A424B
S3065000021B018B
S3065000021C2368
S3065000021DA4E6
S3065000021E6227
S3065000021F0088
S306500002200384
S306500002212165
S306500002228302
S306500002230282
S306500002240380
S30650000225245E
S30650000226C3BE
S30650000227027E
S3065000022883FC
S30650000229245A
S3065000022A037A
S3065000022B0379
S3065000022C0378
S3065000022D2951
S3065000022E4336
S3065000022F0375
S3065000023083F4
S30650000231294D
S3065000023283F2
S306500002330371
S306500002340370
S306500002352A48
S30650000236C3AE
S30650000237036D
S3065000023883EC
S306500002392A44
S3065000023A036A
S3065000023B0468
S3065000023C0368
S3065000023D2B3F
S3065000023E4326
S3065000023F0464
S3065000024083E4
S306500002412B3B
S3065000024283E2
S306500002430460
S306500002440360
S306500002452C36
S30650000246C39E
S30650000247045C
S3065000024883DC
S306500002492C32
S3065000024A035A
S3065000024B0557
S3065000024C0358
S3065000024D2D2D
S3065000024E4316
S3065000024F0553
S3065000025083D4
S306500002512D29
S3065000025283D2
S30650000253054F
S30650000254EF64
S306500002550052
S3065000025680D1
S306500002570947
S3065000025883CC
S30650000259222C
S3065000025A81CC
S3065000025B0448
S3065000025C73D8
S3065000025D90BA
S3065000025E1237
S3065000025F3414
S3065000026083C4
S306500002612224
S30650000262C184
S306500002630440
S3065000026473D0
S3065000026590B2
S30650000266023F
S306500002677CC4
S3065000026883BC
S30650000269201E
S3065000026A013C
S3065000026B003C
S3065000026C83B8
S3065000026D2119
S3065000026E41F8
S3065000026F0038
S306500002700334
S306500002712214
S3065000027281B4
S306500002730034
S3065000027483B0
S306500002752210
S30650000276C170
S306500002770030
S30650000278032C
S30650000279230B
S3065000027A012C
S3065000027B012B
S3065000027C83A8
S3065000027D2307
S3065000027E41E8
S3065000027F0127
S306500002800324
S306500002812EF8
S3065000028281A4
S306500002830123
S3065000028483A0
S306500002852EF4
S30650000286C160
S30650000287011F
S30650000288031C
S306500002892FEF
S3065000028A011C
S3065000028B021A
S3065000028C8398
S3065000028D2FEB
S3065000028E41D8
S3065000028F0216
S306500002900314
S3065000029125F1
S306500002928194
S306500002930212
S306500002948390
S3065000029525ED
S30650000296C150
S30650000297020E
S30650000298030C
S3065000029926E8
S3065000029A010C
S3065000029B0309
S3065000029C8388
S3065000029D26E4
S3065000029E41C8
S3065000029F0305
S306500002A00304
S306500002A127DF
S306500002A28184
S306500002A30301
S306500002A48380
S306500002A527DB
S306500002A6C140
S306500002A703FD
S306500002A803FC
S306500002A928D6
S306500002AA01FC
S306500002AB04F8
S306500002AC8378
S306500002AD28D2
S306500002AE41B8
S306500002AF04F4
S306500002B013E4
S306500002B101F5
S306500002B201F4
S306500002B307ED
S306500002B47380
S306500002B500F2
S306500002B600F1
S306500002B710E0
S306500002B8F3FC
S306500002B922CC
S306500002BA00ED
S306500002BB7B71
S306500002BC7378
S306500002BD23C7
S306500002BE10D9
S306500002BF7B6D
S306500002C0F3F4
S306500002C123C3
S306500002C220C5
S306500002C37B69
S306500002C423C0
S306500002C528BA
S306500002C65190
S306500002C704DC
S306500002C823BC
S306500002C92AB4
S306500002CA617C
S306500002CB04D8
S306500002CC23B8
S306500002CD2CAE
S306500002CE7168
S306500002CF04D4
S306500002D0F3E4
S306500002D122B4
S306500002D24095
S306500002D37B59
S306500002D47360
S306500002D523AF
S306500002D65081
S306500002D77B55
S306500002D8F3DC
S306500002D923AB
S306500002DA606D
S306500002DB7B51
S306500002DC23A8
S306500002DD2E9C
S306500002DE5178
S306500002DF04C4
S306500002E023A4
S306500002E120A6
S306500002E26164
S306500002E306BE
S306500002E423A0
S306500002E522A0
S306500002E67150
S306500002E706BA
S306500002E86758
S306500002E9803E
S306500002EA00BD
S306500002EB00BC
S306500002EC8338
S306500002ED2298
S306500002EE01B8
S306500002EF05B3
S306500002F003B4
S306500002F12393
S306500002F24174
S306500002F305AF
S306500002F48330
S306500002F5238F
S306500002F68130
S306500002F705AB
S306500002F8733C
S306500002F9901E
S306500002FA02AB
S306500002FB7B31
S306500002FC7338
S306500002FD109A
S306500002FE1396
S306500002FF7B2D
S306500003007333
S306500003019015
S306500003022381
S306500003037B28
S30650000304831F
S30650000305227F
S30650000306C1DF
S30650000307059A
S30650000308039B
S30650000309237A
S3065000030A019B
S3065000030B0695
S3065000030C8317
S3065000030D2376
S3065000030E4157
S3065000030F0691
S306500003107323
S306500003119005
S306500003124252
S306500003137B18
S30650000314731F
S306500003151081
S30650000316533D
S306500003177B14
S30650000318731B
S3065000031990FD
S3065000031A6329
S3065000031B7B10
S3065000031C6723
S3065000031D8009
S3065000031E0088
S3065000031F0087
S30650000320374F
S306500003214342
S306500003221074
S306500003231A69
S30650000324136F
S30650000325037E
S30650000326C3BD
S30650000327007F
S3065000032893EB
S30650000329037A
S3065000032A106C
S3065000032B007B
S3065000032C3347
S3065000032D9EDB
S3065000032EA3D5
S3065000032F0077
S306500003302353
S306500003312055
S30650000332C3B1
S306500003330172
S30650000334373B
S30650000335432E
S306500003361060
S306500003371A55
S30650000338135B
S30650000339036A
S3065000033AC3A9
S3065000033B016A
S3065000033C2347
S3065000033D2049
S3065000033EC3A5
S3065000033F0166
S3065000034067FF
S3065000034180E5
S306500003420064
S306500003430063
S30650000344F36F
S30650000345223F
S306500003462040
S30650000347342B
S3065000034893CB
S30650000349F26B
S3065000034AF26A
S3065000034B015A
S3065000034C1347
S3065000034D0356
S3065000034EF068
S3065000034F0057
S306500003501343
S306500003510550
S306500003520054
S306500003530053
S3065000035463EF
S30650000355C48D
S3065000035662EE
S30650000357004F
S30650000358133B
S306500003590548
S3065000035A1537
S3065000035B004B
S3065000035C67E3
S3065000035D80C9
S3065000035E0048
S3065000035F0047
S3065000036073D3
S306500003610045
S306500003620044
S306500003630043
S3065000036497AB
S30650000365023F
S306500003660040
S30650000367013E
S3065000036893AB
S3065000036982BB
S3065000036A42FA
S3065000036B56E5
S3065000036C0337
S3065000036DA396
S3065000036E82B6
S3065000036F0037
S3065000037083B3
S306500003712312
S3065000037283B1
S30650000373062D
S30650000374131F
S3065000037575BC
S30650000376151B
S30650000377002F
S30650000378F33B
S30650000379220B
S3065000037A0527
S3065000037B30FB
S3065000037C1317
S3065000037D85A4
S3065000037E0325
S3065000037F0027
S3065000038067BF
S3065000038180A5
S306500003820024
S306500003830023
S30650000384130F
S306500003850120
S30650000386011F
S30650000387FE21
S30650000388130B
S306500003890716
S3065000038A20FC
S3065000038B001B
S3065000038C23F7
S3065000038D0613
S3065000038EE137
S3065000038F0017
S306500003908393
S3065000039127EE
S3065000039245CF
S306500003930013
S3065000039423EF
S306500003952EE3
S3065000039611FF
S30650000397000F
S3065000039823EB
S3065000039922EB
S3065000039AB15B
S3065000039B000B
S3065000039C23E7
S3065000039D24E5
S3065000039EC147
S3065000039F0007
S306500003A09373
S306500003A10500
S306500003A241C3
S306500003A30003
S306500003A4837F
S306500003A5A75A
S306500003A647B9
S306500003A700FF
S306500003A8936B
S306500003A906F7
S306500003AA00FC
S306500003AB0AF1
S306500003AC13E7
S306500003AD06F3
S306500003AE10E8
S306500003AF00F7
S306500003B0E70F
S306500003B18075
S306500003B207ED
S306500003B300F3
S306500003B4836F
S306500003B520D1
S306500003B6C12F
S306500003B701EE
S306500003B813DB
S306500003B901EC
S306500003BA01EB
S306500003BB02E9
S306500003BC6783
S306500003BD8069
S306500003BE00E8
S306500003BF00E7
S306500003C037AF
S306500003C105E0
S306500003C200E4
S306500003C35192
S306500003C413CF
S306500003C501E0
S306500003C601DF
S306500003C7F5EA
S306500003C813CB
S306500003C905D8
S306500003CA4597
S306500003CB15C6
S306500003CC23B7
S306500003CD26B3
S306500003CE11C7
S306500003CF0ACD
S306500003D023B3
S306500003D124B1
S306500003D28153
S306500003D30AC9
S306500003D423AF
S306500003D522AF
S306500003D6913F
S306500003D70AC5
S306500003D823AB
S306500003D920AD
S306500003DA21AB
S306500003DB0BC0
S306500003DC23A7
S306500003DD2E9B
S306500003DE3197
S306500003DF09BE
S306500003E023A3
S306500003E12C99
S306500003E24183
S306500003E309BA
S306500003E4239F
S306500003E52A97
S306500003E6516F
S306500003E709B6
S306500003E8239B
S306500003E92895
S306500003EA615B
S306500003EB09B2
S306500003ECEFCB
S306500003ED10A9
S306500003EE00B8
S306500003EF5C5B
S306500003F0377F
S306500003F105B0
S306500003F200B4
S306500003F35162
S306500003F4139F
S306500003F505AC
S306500003F6C5EB
S306500003F71798
S306500003F8EFBF
S306500003F9109D
S306500003FA109C
S306500003FB1E8D
S306500003FC1397
S306500003FD04A5
S306500003FE05A3
S306500003FF00A7
S306500004006342
S30650000401188C
S30650000402059E
S3065000040300A2
S30650000404376A
S30650000405059B
S30650000406009F
S30650000407514D
S30650000408138A
S306500004090597
S3065000040A4556
S3065000040B1882
S3065000040CEFAA
S3065000040D1088
S3065000040E0097
S3065000040F5A3C
S30650000410375E
S30650000411058F
S306500004120093
S306500004135141
S30650000414137E
S30650000415058B
S30650000416850A
S306500004171975
S30650000418EF9E
S30650000419107C
S3065000041A404B
S3065000041B5931
S3065000041C8306
S3065000041D2761
S3065000041E4443
S3065000041F0086
S30650000420374E
S30650000421077D
S306500004220083
S306500004235131
S3065000042483FE
S30650000425A7D9
S306500004260778
S30650000427007E
S3065000042883FA
S306500004292557
S3065000042A87F4
S3065000042B7703
S3065000042C1366
S3065000042D0573
S3065000042E0473
S3065000042F0076
S30650000430E78E
S3065000043180F4
S30650000432076C
S306500004330072
S30650000434630E
S306500004350A66
S30650000436056A
S30650000437006E
S306500004383736
S306500004390567
S3065000043A006B
S3065000043B5119
S3065000043C1356
S3065000043D0563
S3065000043E85E2
S3065000043F1A4C
S30650000440EF76
S306500004411054
S30650000442C0A3
S30650000443560C
S306500004446FF2
S306500004450060
S30650000446C09F
S306500004471D41
S306500004483726
S306500004490557
S3065000044A005B
S3065000044B5109
S3065000044C1346
S3065000044D0553
S3065000044EC592
S3065000044F1B3B
S30650000450EF66
S306500004511044
S30650000452C093
S3065000045355FD
S30650000454133E
S30650000455064A
S3065000045680CF
S30650000457024C
S3065000045893BA
S306500004590547
S3065000045A004B
S3065000045B004A
S3065000045C1336
S3065000045D0543
S3065000045E81C6
S3065000045F0145
S30650000460EF56
S306500004610044
S306500004624003
S306500004632022
S30650000464132E
S30650000465063A
S3065000046680BF
S30650000467023C
S3065000046893AA
S306500004690537
S3065000046A003B
S3065000046B003A
S3065000046C1326
S3065000046D0533
S3065000046E0136
S3065000046F0432
S30650000470EF46
S306500004710034
S3065000047240F3
S306500004731F13
S30650000474131E
S306500004750A26
S30650000476919E
S30650000477012D
S30650000478131A
S306500004790626
S3065000047A80AB
S3065000047B0228
S3065000047C9396
S3065000047D0523
S3065000047E0027
S3065000047F0026
S306500004801312
S30650000481051F
S3065000048281A2
S30650000483061C
S30650000484EF32
S306500004850020
S30650000486001F
S306500004871E00
S30650000488938A
S306500004890616
S3065000048A0A11
S3065000048B001A
S3065000048C9386
S3065000048D0711
S3065000048E20F7
S3065000048F0016
S30650000490FB1A
S3065000049150C4
S30650000492C350
S306500004930012
S30650000494AB66
S306500004958090
S30650000496F619
S30650000497000E
S30650000498937A
S306500004998785
S3065000049A27E4
S3065000049B000A
S3065000049C9376
S3065000049DF711
S3065000049EF710
S3065000049F0FF7
S306500004A013F2
S306500004A106FE
S306500004A2D033
S306500004A30002
S306500004A4936E
S306500004A505FB
S306500004A6817E
S306500004A701FD
S306500004A813EA
S306500004A905F7
S306500004AA04F7
S306500004AB00FA
S306500004ACEF0A
S306500004ADF008
S306500004AE9F58
S306500004AFED09
S306500004B037BE
S306500004B105EF
S306500004B200F3
S306500004B351A1
S306500004B413DE
S306500004B505EB
S306500004B6C52A
S306500004B71CD2
S306500004B8EFFE
S306500004B910DC
S306500004BA40AB
S306500004BB4F9B
S306500004BC37B2
S306500004BD09DF
S306500004BE00E7
S306500004BF5195
S306500004C013D2
S306500004C106DE
S306500004C200E3
S306500004C300E2
S306500004C4934E
S306500004C505DB
S306500004C600DF
S306500004C700DE
S306500004C813CA
S306500004C905D7
S306500004CA04D7
S306500004CB00DA
S306500004CCEFEA
S306500004CDF0E8
S306500004CE9F38
S306500004CFEBEB
S306500004D013C2
S306500004D105CF
S306500004D2C90A
S306500004D31DB5
S306500004D4EFE2
S306500004D510C0
S306500004D6804F
S306500004D74D81
S306500004D813BA
S306500004D906C6
S306500004DA10BB
S306500004DB00CA
S306500004DC9336
S306500004DD05C3
S306500004DE8146
S306500004DF01C5
S306500004E013B2
S306500004E105BF
S306500004E204BF
S306500004E300C2
S306500004E4EFD2
S306500004E5F0D0
S306500004E61FA0
S306500004E7EAD4
S306500004E83786
S306500004E905B7
S306500004EA00BB
S306500004EB5169
S306500004EC13A6
S306500004ED05B3
S306500004EE4572
S306500004EF1F97
S306500004F0EFC6
S306500004F110A4
S306500004F2C0F3
S306500004F34B67
S306500004F4139E
S306500004F507A9
S306500004F6C0EF
S306500004F700AE
S306500004F8832A
S306500004F92785
S306500004FA4467
S306500004FB00AA
S306500004FC9316
S306500004FD04A4
S306500004FE01A6
S306500004FF04A2
S306500005002381
S30650000501287B
S30650000502E1C1
S3065000050300A1
S30650000504138D
S306500005050798
S30650000506306E
S30650000507009D
S306500005082379
S306500005090A91
S3065000050AE1B9
S3065000050B0099
S3065000050C2375
S3065000050D2671
S3065000050E9105
S3065000050F0095
S306500005108311
S30650000511A7EC
S30650000512474B
S306500005130091
S3065000051493FD
S306500005150689
S30650000516107E
S306500005170A83
S306500005181379
S306500005190685
S3065000051A107A
S3065000051B0089
S3065000051C93F5
S3065000051D0582
S3065000051EC1C5
S3065000051F0085
S306500005201371
S30650000521057E
S30650000522047E
S306500005230081
S30650000524E799
S3065000052580FF
S306500005260777
S30650000527007D
S306500005283745
S306500005290576
S3065000052A007A
S3065000052B5128
S3065000052C1365
S3065000052D0572
S3065000052E0571
S3065000052F2154
S30650000530EF85
S306500005311063
S30650000532C0B2
S30650000533472A
S3065000053493DD
S306500005350966
S30650000536204E
S30650000537006D
S306500005383735
S306500005390B60
S3065000053A006A
S3065000053B5118
S3065000053C93D5
S3065000053D0A5D
S3065000053EA0C6
S3065000053F0164
S306500005400B59
S30650000541C69D
S30650000542144E
S306500005430061
S3065000054493CD
S3065000054585DA
S306500005460955
S30650000547005D
S306500005481349
S306500005490556
S3065000054A0B4F
S3065000054B2237
S3065000054C93C5
S3065000054D89CE
S3065000054E292D
S3065000054F0055
S30650000550EF65
S306500005511043
S30650000552C092
S30650000553450C
S30650000554E36D
S3065000055596B9
S3065000055659F5
S30650000557FF4E
S3065000055893B9
S306500005590744
S3065000055A301A
S3065000055B0049
S3065000055CFB4D
S3065000055D50F7
S3065000055E0343
S3065000055F0144
S30650000560AB99
S306500005610043
S30650000562FA48
S306500005630041
S3065000056493AD
S3065000056587B8
S306500005663707
S30650000567003D
S3065000056893A9
S30650000569F744
S3065000056AF743
S3065000056B0F2A
S3065000056C1325
S3065000056D0631
S3065000056E1026
S3065000056F0134
S3065000057093A1
S30650000571052E
S3065000057281B1
S306500005730130
S30650000574131D
S30650000575052A
S30650000576042A
S30650000577002D
S30650000578EF3D
S30650000579F03B
S3065000057ADF4B
S3065000057BE049
S3065000057C37F1
S3065000057D0522
S3065000057E0026
S3065000057F51D4
S306500005801311
S30650000581051E
S30650000582051D
S3065000058323FE
S30650000584EF31
S30650000585100F
S30650000586809E
S3065000058742DB
S306500005881309
S306500005890615
S3065000058A001A
S3065000058B0019
S3065000058C9385
S3065000058D0512
S3065000058E0016
S3065000058F0015
S306500005901301
S30650000591050E
S30650000592040E
S306500005930011
S30650000594EF21
S30650000595F01F
S306500005961FEF
S30650000597DF2E
S3065000059813F9
S306500005990506
S3065000059AC941
S3065000059B1DEC
S3065000059CEF19
S3065000059D10F7
S3065000059E0006
S3065000059F41C4
S306500005A013F1
S306500005A106FD
S306500005A210F2
S306500005A30001
S306500005A4936D
S306500005A505FA
S306500005A6817D
S306500005A701FC
S306500005A813E9
S306500005A905F6
S306500005AA04F6
S306500005AB00F9
S306500005ACEF09
S306500005ADF007
S306500005AE9F57
S306500005AFDD18
S306500005B037BD
S306500005B105EE
S306500005B200F2
S306500005B351A0
S306500005B413DD
S306500005B505EA
S306500005B645A9
S306500005B724C9
S306500005B8EFFD
S306500005B910DB
S306500005BA40AA
S306500005BB3FAA
S306500005BC13D5
S306500005BD07E0
S306500005BE10D6
S306500005BF01E4
S306500005C08361
S306500005C127BC
S306500005C2449E
S306500005C300E1
S306500005C4934D
S306500005C504DB
S306500005C6815D
S306500005C706D7
S306500005C823B9
S306500005C928B3
S306500005CAE1F9
S306500005CB00D9
S306500005CC13C5
S306500005CD07D0
S306500005CE30A6
S306500005CF00D5
S306500005D023B1
S306500005D10AC9
S306500005D2E1F1
S306500005D300D1
S306500005D423AD
S306500005D526A9
S306500005D6913D
S306500005D700CD
S306500005D88349
S306500005D9A724
S306500005DA4783
S306500005DB00C9
S306500005DC9335
S306500005DD06C1
S306500005DE10B6
S306500005DF0ABB
S306500005E013B1
S306500005E106BD
S306500005E210B2
S306500005E300C1
S306500005E4932D
S306500005E505BA
S306500005E6C1FD
S306500005E700BD
S306500005E813A9
S306500005E905B6
S306500005EA04B6
S306500005EB00B9
S306500005ECE7D1
S306500005ED8037
S306500005EE07AF
S306500005EF00B5
S306500005F0377D
S306500005F105AE
S306500005F200B2
S306500005F35160
S306500005F4139D
S306500005F505AA
S306500005F605A9
S306500005F72687
S306500005F8EFBD
S306500005F9109B
S306500005FA406A
S306500005FB3B6E
S306500005FC1395
S306500005FD04A3
S306500005FE3076
S306500005FF00A5
S30650000600B7EC
S306500006010999
S3065000060200A1
S30650000603514F
S30650000604138C
S306500006050995
S30650000606306D
S306500006070399
S306500006080B90
S30650000609C6D4
S3065000060A1485
S3065000060B0098
S3065000060C9304
S3065000060D0591
S3065000060E0491
S3065000060F0094
S306500006101380
S30650000611850D
S306500006124948
S306500006132769
S30650000614137C
S30650000615048A
S306500006163459
S30650000617008C
S30650000618EF9C
S30650000619107A
S3065000061A4049
S3065000061B394F
S3065000061CE3A4
S3065000061D1670
S3065000061E2461
S3065000061FFF85
S306500006208300
S306500006212062
S30650000622C1C0
S306500006230A76
S30650000624037C
S30650000625245A
S3065000062681FC
S306500006270A72
S3065000062883F8
S306500006292456
S3065000062A4138
S3065000062B0A6E
S3065000062C0374
S3065000062D294D
S3065000062E0174
S3065000062F0A6A
S3065000063083F0
S306500006312949
S30650000632C1B0
S306500006330967
S30650000634036C
S306500006352A44
S3065000063681EC
S306500006370963
S3065000063883E8
S306500006392A40
S3065000063A4128
S3065000063B095F
S3065000063C0364
S3065000063D2B3B
S3065000063E0164
S3065000063F095B
S306500006401350
S306500006410161
S306500006420160
S306500006430B55
S3065000064467F8
S3065000064580DE
S30650000646005D
S30650000647005C
S306500006488BD0
S306500006494713
S3065000064A1544
S3065000064B0058
S3065000064C0B4C
S3065000064DC78F
S3065000064E1540
S3065000064F0054
S3065000065063F0
S3065000065196BC
S30650000652E76A
S306500006530050
S30650000654E36C
S306500006559AB4
S306500006560746
S30650000657FE4E
S306500006581338
S3065000065987C3
S3065000065A0742
S3065000065B0048
S3065000065C3314
S3065000065D85C1
S3065000065EE75E
S3065000065F4004
S3065000066067DC
S3065000066180C2
S306500006620041
S306500006630040
S3065000066493AC
S30650000665F648
S30650000666F548
S306500006670F2D
S3065000066893A8
S306500006690733
S3065000066A0534
S3065000066B0038
S3065000066C1324
S3065000066D072F
S3065000066E161F
S3065000066F0034
S306500006703300
S30650000671B87A
S30650000672270A
S30650000673FA36
S3065000067463CC
S306500006750E20
S306500006760825
S30650000677002C
S306500006781318
S306500006790723
S3065000067AF732
S3065000067BFF29
S3065000067C63C4
S3065000067D1412
S3065000067E071E
S3065000067F0024
S3065000068067BC
S3065000068180A2
S306500006820021
S306500006830020
S30650000684AB74
S30650000685809E
S30650000686D746
S30650000687001C
S306500006881308
S306500006890614
S3065000068AF623
S3065000068BFF19
S3065000068C6FA8
S3065000068DF026
S3065000068E5FB6
S3065000068FFE16
S30650000690B360
S30650000691B55D
S30650000692858C
S30650000693EE22
S3065000069413FC
S306500006959777
S306500006968588
S30650000697000C
S30650000698B358
S30650000699E525
S3065000069AE524
S3065000069B0008
S3065000069C13F4
S3065000069D976F
S3065000069E0500
S3065000069F0103
S306500006A0B350
S306500006A1E51D
S306500006A2E51C
S306500006A30000
S306500006A413EC
S306500006A557A7
S306500006A626D7
S306500006A700FC
S306500006A813E8
S306500006A98872
S306500006AA07F2
S306500006AB00F8
S306500006AC13E4
S306500006AD07EF
S306500006AE17DE
S306500006AF00F4
S306500006B013E0
S306500006B107EB
S306500006B2F7FA
S306500006B3FFF1
S306500006B4638C
S306500006B510DE
S306500006B607E6
S306500006B702EA
S306500006B813D8
S306500006B95793
S306500006BA26C3
S306500006BB00E8
S306500006BC9354
S306500006BD15D1
S306500006BE27BE
S306500006BF00E4
S306500006C0B330
S306500006C1875B
S306500006C2B72A
S306500006C300E0
S306500006C4934C
S306500006C505D9
S306500006C6C01D
S306500006C7FFDD
S306500006C833A8
S306500006C906D4
S306500006CAB722
S306500006CB4296
S306500006CC13C4
S306500006CD06D0
S306500006CE16BF
S306500006CF00D4
S306500006D06F64
S306500006D100D2
S306500006D200D1
S306500006D301CF
S306500006D42BA4
S306500006D522AC
S306500006D6B815
S306500006D700CC
S306500006D86F5C
S306500006D9F0DA
S306500006DA9F2A
S306500006DBFDCB
S306500006DCAB1C
S306500006DD8046
S306500006DED7EE
S306500006DF00C4
S306500006E013B0
S306500006E106BC
S306500006E2F6CB
S306500006E3FFC1
S306500006E4E3DC
S306500006E51CA2
S306500006E606B7
S306500006E7FEBE
S306500006E86754
S306500006E9803A
S306500006EA00B9
S306500006EB00B8
S306500006EC13A4
S306500006ED01B5
S306500006EE01B4
S306500006EFFFB5
S306500006F02390
S306500006F1248E
S306500006F28130
S306500006F300B0
S306500006F43778
S306500006F504AA
S306500006F600AD
S306500006F7515B
S306500006F82388
S306500006F92288
S306500006FA9118
S306500006FB00A8
S306500006FC2384
S306500006FD2680
S306500006FE1194
S306500006FF00A4
S30650000700930F
S30650000701049D
S30650000702059B
S30650000703009F
S30650000704138B
S306500007050499
S306500007060498
S306500007077C1F
S306500007086337
S306500007093C5D
S3065000070AA5F3
S3065000070B0097
S3065000070C0393
S3065000070D2570
S3065000070E0490
S3065000070F0093
S3065000071093FF
S30650000711058C
S30650000712D0C0
S30650000713008F
S30650000714830B
S306500007152766
S306500007164547
S30650000717008B
S306500007188307
S30650000719A7E2
S3065000071A4741
S3065000071B0087
S3065000071CE79F
S3065000071D8005
S3065000071E077D
S3065000071F0083
S30650000720037F
S30650000721255C
S30650000722047C
S30650000723007F
S3065000072493EB
S30650000725F588
S30650000726F488
S306500007270F6C
S3065000072883F7
S306500007292752
S3065000072A4533
S3065000072B0077
S3065000072C83F3
S3065000072DA7CE
S3065000072E472D
S3065000072F0073
S30650000730E78B
S3065000073180F1
S306500007320769
S30650000733006F
S3065000073483EB
S30650000735204D
S30650000736C1AB
S30650000737006B
S306500007381357
S3065000073985E4
S3065000073A0464
S3065000073B0067
S3065000073C0363
S3065000073D2441
S3065000073E81E3
S3065000073F0063
S3065000074083DF
S30650000741243D
S30650000742411F
S30650000743005F
S30650000744134B
S30650000745015C
S30650000746015B
S30650000747015A
S3065000074867F3
S3065000074980D9
S3065000074A0058
S3065000074B0057
S3065000074C371F
S3065000074D0550
S3065000074E0054
S3065000074F5003
S30650000750133F
S30650000751054C
S30650000752C58B
S306500007536EE1
S306500007546FDF
S30650000755004D
S3065000075690BC
S3065000075768E3
S306500007583713
S306500007590544
S3065000075A0048
S3065000075B51F6
S3065000075C1333
S3065000075D0144
S3065000075E0143
S3065000075FFF44
S30650000760132F
S30650000761053C
S3065000076285BB
S306500007632817
S30650000764231B
S306500007652617
S30650000766112B
S30650000767003B
S30650000768EF4B
S306500007691029
S3065000076A0038
S3065000076B67D0
S3065000076CB77F
S3065000076D072E
S3065000076E0034
S3065000076F51E2
S30650000770230F
S30650000771A091
S30650000772A789
S306500007737CB3
S30650000774EF3F
S30650000775F03D
S306500007769F8D
S30650000777FD2E
S3065000077883A7
S306500007792009
S3065000077AC167
S3065000077B0027
S3065000077C1313
S3065000077D0520
S3065000077E0024
S3065000077F0023
S30650000780130F
S306500007810120
S30650000782011F
S30650000783011E
S3065000078467B7
S30650000785809D
S30650000786001C
S30650000787001B
S306500007888397
S3065000078928F1
S3065000078A8593
S3065000078B0017
S3065000078C1303
S3065000078D070E
S3065000078E1004
S3065000078F0013
S30650000790739F
S3065000079137DA
S306500007920709
S3065000079330DF
S30650000794030B
S30650000795A667
S3065000079648C4
S30650000797000B
S3065000079833D7
S3065000079937D2
S3065000079A17F1
S3065000079BFC0B
S3065000079C63A3
S3065000079D0AFB
S3065000079E06FE
S3065000079F06FD
S306500007A0837F
S306500007A127DA
S306500007A205FB
S306500007A300FF
S306500007A4837B
S306500007A5A756
S306500007A68775
S306500007A700FB
S306500007A88377
S306500007A9A752
S306500007AA07F1
S306500007AB00F7
S306500007AC6393
S306500007AD8273
S306500007AE07ED
S306500007AF06ED
S306500007B0B33F
S306500007B1D71A
S306500007B2C729
S306500007B302ED
S306500007B403EB
S306500007B523CA
S306500007B68567
S306500007B700EB
S306500007B88367
S306500007B926C3
S306500007BA03E5
S306500007BB00E7
S306500007BC13D3
S306500007BD0ED7
S306500007BE00E4
S306500007BFF8EB
S306500007C0934F
S306500007C1865B
S306500007C2C61A
S306500007C300DF
S306500007C4835B
S306500007C5C518
S306500007C606D6
S306500007C700DB
S306500007C823B7
S306500007C98059
S306500007CAC612
S306500007CB01D6
S306500007CC9343
S306500007CDF5E0
S306500007CEF5DF
S306500007CF0FC4
S306500007D013BF
S306500007D1D8F9
S306500007D24789
S306500007D300CF
S306500007D4933B
S306500007D57657
S306500007D6F8D4
S306500007D70FBC
S306500007D803C7
S306500007D928A1
S306500007DA8543
S306500007DB00C7
S306500007DC03C3
S306500007DD289D
S306500007DE08BC
S306500007DF00C3
S306500007E0932F
S306500007E1D7EA
S306500007E2C7F9
S306500007E300BF
S306500007E4239B
S306500007E500BD
S306500007E6D8E4
S306500007E700BB
S306500007E88337
S306500007E92693
S306500007EA8533
S306500007EB00B7
S306500007EC8333
S306500007EDA60F
S306500007EE06AE
S306500007EF00B3
S306500007F0931F
S306500007F1F7BA
S306500007F2F7B9
S306500007F30FA0
S306500007F4931B
S306500007F58627
S306500007F64666
S306500007F700AB
S306500007F82387
S306500007F98029
S306500007FAF6B2
S306500007FB00A7
S306500007FC8323
S306500007FD277E
S306500007FE851F
S306500007FF00A3
S30650000800831E
S30650000801A7F9
S306500008020798
S30650000803009E
S30650000804930A
S306500008058715
S30650000806C7D4
S30650000807009A
S306500008082376
S306500008098018
S3065000080AB7E0
S3065000080B0096
S3065000080C2372
S3065000080D2272
S3065000080EC3D0
S3065000080F0092
S30650000810830E
S306500008112769
S30650000812850A
S30650000813008E
S30650000814830A
S30650000815A7E5
S306500008160784
S30650000817008A
S3065000081893F6
S306500008190682
S3065000081A3057
S3065000081B0086
S3065000081C93F2
S3065000081D87FD
S3065000081EC7BC
S3065000081F0082
S30650000820235E
S306500008218000
S30650000822D7A8
S30650000823007E
S3065000082483FA
S30650000825C7B5
S3065000082688F3
S30650000827007A
S3065000082893E6
S306500008290672
S3065000082AB0C7
S3065000082B0076
S3065000082CB3C2
S3065000082DB7BD
S3065000082E175C
S3065000082FFC76
S30650000830630E
S3065000083184EC
S306500008320768
S30650000833006E
S3065000083493DA
S306500008350666
S30650000836B0BB
S306500008370268
S3065000083883E6
S306500008392741
S3065000083A85E2
S3065000083B0066
S3065000083C83E2
S3065000083DA7BD
S3065000083E075C
S3065000083F0062
S3065000084093CE
S3065000084187D9
S306500008420758
S30650000843015D
S30650000844233A
S3065000084580DC
S30650000846D784
S30650000847005A
S3065000084883D6
S306500008492731
S3065000084A85D2
S3065000084B0056
S3065000084C83D2
S3065000084DA7AD
S3065000084E074C
S3065000084F0052
S3065000085093BE
S30650000851064A
S3065000085270DF
S30650000853FA54
S3065000085493BA
S3065000085587C5
S3065000085687C4
S30650000857004A
S306500008582326
S3065000085980C8
S3065000085AD770
S3065000085B0046
S3065000085C0342
S3065000085D251F
S3065000085E85BE
S3065000085F0042
S3065000086083BE
S306500008612719
S30650000862053A
S30650000863003E
S306500008648BB2
S3065000086586B6
S3065000086647F4
S30650000867003A
S306500008682316
S3065000086980B8
S3065000086A0730
S3065000086B0036
S3065000086C73C2
S3065000086D270D
S3065000086E072C
S3065000086F3002
S30650000870131E
S30650000871052B
S30650000872002F
S30650000873002E
S3065000087467C6
S3065000087580AC
S30650000876002B
S30650000877002A
S306500008780326
S306500008792503
S3065000087A85A2
S3065000087B0026
S3065000087C0322
S3065000087D27FD
S3065000087E051E
S3065000087F0022
S30650000880938E
S306500008810719
S3065000088247D8
S30650000883011D
S30650000884839A
S30650000885C755
S306500008860714
S30650000887001A
S30650000888B366
S30650000889B761
S3065000088A1700
S3065000088BFC1A
S3065000088C63B2
S3065000088D8A8A
S3065000088E070C
S3065000088F0012
S30650000890838E
S3065000089147C9
S306500008920708
S30650000893000E
S3065000089413FA
S306500008950507
S30650000896000B
S30650000897000A
S3065000089823E6
S306500008998088
S3065000089AF512
S3065000089B0006
S3065000089C679E
S3065000089D8084
S3065000089E0003
S3065000089F0002
S306500008A013EE
S306500008A105FB
S306500008A2F00F
S306500008A3FFFF
S306500008A46796
S306500008A5807C
S306500008A600FB
S306500008A700FA
S306500008A803F6
S306500008A925D3
S306500008AA8572
S306500008AB00F6
S306500008AC03F2
S306500008AD27CD
S306500008AE05EE
S306500008AF00F2
S306500008B0935E
S306500008B106EA
S306500008B247A8
S306500008B301ED
S306500008B4836A
S306500008B5C725
S306500008B606E5
S306500008B700EA
S306500008B89356
S306500008B9F7F1
S306500008BA07E0
S306500008BB04E2
S306500008BCE302
S306500008BD8C58
S306500008BE07DC
S306500008BFFEE4
S306500008C023BE
S306500008C100E0
S306500008C2B728
S306500008C300DE
S306500008C413CA
S306500008C58557
S306500008C605D6
S306500008C700DA
S306500008C86772
S306500008C98058
S306500008CA00D7
S306500008CB00D6
S306500008CC03D2
S306500008CD25AF
S306500008CE854E
S306500008CF00D2
S306500008D0834E
S306500008D127A9
S306500008D205CA
S306500008D300CE
S306500008D4933A
S306500008D58745
S306500008D64784
S306500008D701C9
S306500008D803C6
S306500008D9C503
S306500008DA07C0
S306500008DB00C6
S306500008DC13B2
S306500008DD754F
S306500008DEE5DE
S306500008DF01C1
S306500008E013AE
S306500008E1556B
S306500008E215AA
S306500008E300BE
S306500008E46756
S306500008E5803C
S306500008E600BB
S306500008E700BA
S306500008E8B702
S306500008E93781
S306500008EA10A7
S306500008EB1A9C
S306500008EC2392
S306500008EDA014
S306500008EE07AC
S306500008EF00B2
S306500008F0B7FA
S306500008F107A9
S306500008F200AF
S306500008F3515D
S306500008F4931A
S306500008F58725
S306500008F64764
S306500008F77C2E
S306500008F8B7F2
S306500008F906A2
S306500008FA00A7
S306500008FB5155
S306500008FC03A2
S306500008FDA7FD
S306500008FE079C
S306500008FF00A2
S30650000900831D
S30650000901A6F9
S306500009028618
S306500009037B22
S306500009043369
S306500009050794
S30650000906D7C3
S306500009070099
S306500009082375
S30650000909A0F7
S3065000090AE7AF
S3065000090B0095
S3065000090CB7DD
S3065000090D078C
S3065000090E0092
S3065000090F5140
S30650000910038D
S30650000911A5EA
S306500009124747
S306500009137B12
S306500009146F1D
S30650000915107B
S30650000916503A
S306500009175633
S306500009181375
S306500009190186
S3065000091A0185
S3065000091BFF86
S3065000091C1371
S3065000091D057E
S3065000091ED0B2
S3065000091F0180
S30650000920235D
S306500009212659
S30650000922116D
S30650000923007D
S30650000924EF8D
S30650000925106B
S3065000092680FA
S306500009270C6D
S30650000928B7C1
S306500009293740
S3065000092A1066
S3065000092B1A5B
S3065000092C2351
S3065000092DA0D3
S3065000092E076B
S3065000092F0071
S306500009303739
S306500009310768
S30650000932006E
S30650000933511C
S306500009340369
S306500009352744
S3065000093687E3
S306500009377BEE
S3065000093883E5
S306500009392047
S3065000093AC1A5
S3065000093B0065
S3065000093C2341
S3065000093DA4BF
S3065000093EE77B
S3065000093F0061
S30650000940134D
S306500009410758
S30650000942104E
S30650000943005D
S306500009441349
S306500009450556
S30650000946005A
S306500009470059
S306500009482335
S30650000949A2B5
S3065000094AE76F
S3065000094B0055
S3065000094C1341
S3065000094D0152
S3065000094E0151
S3065000094F0150
S3065000095067E9
S3065000095180CF
S30650000952004E
S30650000953004D
S306500009541339
S306500009550546
S30650000956A0AA
S306500009570148
S306500009586FD9
S306500009591037
S3065000095A4006
S3065000095B093C
S3065000095C83C1
S3065000095D271C
S3065000095E053D
S3065000095F0041
S30650000960033D
S306500009612619
S3065000096285B9
S30650000963003D
S3065000096483B9
S30650000965A794
S3065000096687B3
S306500009670039
S3065000096883B5
S30650000969A691
S3065000096A072F
S3065000096B0035
S3065000096CB77D
S3065000096D47EC
S3065000096E1022
S3065000096F1A17
S30650000970939D
S3065000097187A8
S30650000972C767
S30650000973002D
S306500009740329
S30650000975A784
S306500009760723
S306500009770029
S306500009781315
S306500009790522
S3065000097A46E0
S3065000097B0124
S3065000097C33F1
S3065000097D47DC
S3065000097EA77B
S3065000097FC160
S3065000098023FD
S30650000981A07F
S30650000982E737
S30650000983001D
S306500009848399
S30650000985A675
S306500009868694
S306500009870217
S306500009886FA9
S306500009891007
S3065000098AD046
S3065000098B3BDA
S3065000098C0311
S3065000098D25EE
S3065000098E050D
S3065000098F0011
S30650000990030D
S3065000099125EA
S306500009928589
S30650000993000D
S306500009948389
S3065000099527E4
S30650000996C545
S306500009970009
S3065000099863A5
S306500009999275
S3065000099A07FF
S3065000099B0203
S3065000099C13F1
S3065000099D0102
S3065000099E0101
S3065000099FFF02
S306500009A013ED
S306500009A105FA
S306500009A245B9
S306500009A300FD
S306500009A423D9
S306500009A526D5
S306500009A611E9
S306500009A700F9
S306500009A8EF09
S306500009A910E7
S306500009AAD026
S306500009AB39BC
S306500009AC8371
S306500009AD20D3
S306500009AEC131
S306500009AF00F1
S306500009B013DD
S306500009B105EA
S306500009B200EE
S306500009B300ED
S306500009B413D9
S306500009B501EA
S306500009B601E9
S306500009B701E8
S306500009B86781
S306500009B98067
S306500009BA00E6
S306500009BB00E5
S306500009BC13D1
S306500009BD05DE
S306500009BE00E2
S306500009BF00E1
S306500009C06779
S306500009C1805F
S306500009C200DE
S306500009C300DD
S306500009C413C9
S306500009C501DA
S306500009C601D9
S306500009C7FADF
S306500009C823B5
S306500009C92EA9
S306500009CA11C5
S306500009CB04D1
S306500009CC23B1
S306500009CD2CA7
S306500009CE8151
S306500009CF04CD
S306500009D023AD
S306500009D12AA5
S306500009D2913D
S306500009D304C9
S306500009D423A9
S306500009D528A3
S306500009D621A9
S306500009D705C4
S306500009D823A5
S306500009D926A1
S306500009DA3195
S306500009DB05C0
S306500009DC23A1
S306500009DD249F
S306500009DE4181
S306500009DF05BC
S306500009E0239D
S306500009E1229D
S306500009E2516D
S306500009E305B8
S306500009E42399
S306500009E5209B
S306500009E66159
S306500009E705B4
S306500009E82395
S306500009E92E89
S306500009EA7145
S306500009EB03B2
S306500009EC6351
S306500009ED149F
S306500009EE06AC
S306500009EF00B1
S306500009F0634D
S306500009F108A7
S306500009F207A7
S306500009F34667
S306500009F48329
S306500009F52A81
S306500009F605A5
S306500009F700A9
S306500009F81395
S306500009F90A9D
S306500009FA05A1
S306500009FB00A5
S306500009FC03A1
S306500009FDA4FF
S306500009FE8A18
S306500009FF00A1
S30650000A00138C
S30650000A010995
S30650000A024459
S30650000A03009C
S30650000A049308
S30650000A058911
S30650000A060594
S30650000A070098
S30650000A081384
S30650000A090591
S30650000A0A098C
S30650000A0B0094
S30650000A0C9300
S30650000A0D058D
S30650000A0EF0A1
S30650000A0FFF91
S30650000A1093FC
S30650000A11840A
S30650000A120687
S30650000A13008C
S30650000A1493F8
S30650000A150B7F
S30650000A160683
S30650000A170088
S30650000A181374
S30650000A190B7B
S30650000A1A077E
S30650000A1B0084
S30650000A1CEF94
S30650000A1D1072
S30650000A1ED0B1
S30650000A1F3E42
S30650000A2083FC
S30650000A212757
S30650000A220A73
S30650000A23007C
S30650000A2483F8
S30650000A25A6D4
S30650000A2687F2
S30650000A270078
S30650000A2883F4
S30650000A29A7CF
S30650000A2A076E
S30650000A2B0074
S30650000A2C83F0
S30650000A2DA7CB
S30650000A2E87EA
S30650000A2F0070
S30650000A30036C
S30650000A31A6C8
S30650000A320766
S30650000A33006C
S30650000A3483E8
S30650000A35A7C3
S30650000A360663
S30650000A370068
S30650000A386304
S30650000A390462
S30650000A3AFA6B
S30650000A3B0262
S30650000A3C83E0
S30650000A3D273B
S30650000A3E4A17
S30650000A3F0060
S30650000A40134C
S30650000A4197C7
S30650000A421746
S30650000A43005C
S30650000A44B7A4
S30650000A45F763
S30650000A46FA5F
S30650000A470256
S30650000A4893C4
S30650000A4987CF
S30650000A4A074E
S30650000A4B084C
S30650000A4CB3A0
S30650000A4DD77B
S30650000A4EE76A
S30650000A4F024E
S30650000A5093BC
S30650000A5187C7
S30650000A52F756
S30650000A53FF4D
S30650000A54B398
S30650000A55D773
S30650000A560742
S30650000A571038
S30650000A582324
S30650000A592224
S30650000A5AF64F
S30650000A5B0044
S30650000A5C2320
S30650000A5DA0A2
S30650000A5E46FB
S30650000A5F013F
S30650000A60231C
S30650000A61221C
S30650000A623409
S30650000A630339
S30650000A642318
S30650000A652416
S30650000A6674C5
S30650000A670335
S30650000A682314
S30650000A692610
S30650000A6A94A1
S30650000A6B0232
S30650000A6C2310
S30650000A6D280A
S30650000A6E64CD
S30650000A6F032D
S30650000A7063CC
S30650000A718CA2
S30650000A720924
S30650000A73002C
S30650000A7483A8
S30650000A75A783
S30650000A760920
S30650000A770028
S30650000A7883A4
S30650000A79A97D
S30650000A7A49DC
S30650000A7B0024
S30650000A7C2300
S30650000A7D2AF8
S30650000A7EF42D
S30650000A7F021E
S30650000A8023FC
S30650000A812CF2
S30650000A8234E9
S30650000A830319
S30650000A846FAC
S30650000A85001A
S30650000A86C059
S30650000A870018
S30650000A8823F4
S30650000A892AEC
S30650000A8A0411
S30650000A8B0212
S30650000A8C23F0
S30650000A8D2CE6
S30650000A8E040D
S30650000A8F020E
S30650000A9063AC
S30650000A918C82
S30650000A920409
S30650000A93000C
S30650000A948388
S30650000A95A763
S30650000A960405
S30650000A970008
S30650000A988384
S30650000A99A462
S30650000A9A44C1
S30650000A9B0004
S30650000A9C23E0
S30650000A9D2ED4
S30650000A9EF40D
S30650000A9F02FE
S30650000AA023DC
S30650000AA120DE
S30650000AA29469
S30650000AA304F8
S30650000AA46F8C
S30650000AA500FA
S30650000AA6C039
S30650000AA700F8
S30650000AA823D4
S30650000AA92EC8
S30650000AAA04F1
S30650000AAB02F2
S30650000AAC23D0
S30650000AAD20D2
S30650000AAE04ED
S30650000AAF04EC
S30650000AB0638C
S30650000AB19658
S30650000AB20BE2
S30650000AB300EC
S30650000AB46388
S30650000AB506E4
S30650000AB60BDE
S30650000AB728C0
S30650000AB86F78
S30650000AB900E6
S30650000ABA40A5
S30650000ABB25BF
S30650000ABC03E0
S30650000ABDA73B
S30650000ABE0AD7
S30650000ABF00E0
S30650000AC023BC
S30650000AC120BE
S30650000AC201DC
S30650000AC300DC
S30650000AC403D8
S30650000AC527B3
S30650000AC68752
S30650000AC700D8
S30650000AC88354
S30650000AC926B0
S30650000ACA07CE
S30650000ACB00D4
S30650000ACC23B0
S30650000ACD22B0
S30650000ACE01D0
S30650000ACF00D0
S30650000AD0834C
S30650000AD1A727
S30650000AD28A43
S30650000AD300CC
S30650000AD423A8
S30650000AD520AA
S30650000AD601C8
S30650000AD702C6
S30650000AD813B4
S30650000AD908BE
S30650000ADA3095
S30650000ADB00C4
S30650000ADC23A0
S30650000ADD22A0
S30650000ADE01C0
S30650000ADF02BE
S30650000AE013AC
S30650000AE105B9
S30650000AE210AD
S30650000AE300BC
S30650000AE42398
S30650000AE52496
S30650000AE601B8
S30650000AE702B6
S30650000AE89324
S30650000AE908AE
S30650000AEA8035
S30650000AEBFFB5
S30650000AEC2390
S30650000AED268C
S30650000AEE01B0
S30650000AEF02AE
S30650000AF0238C
S30650000AF1248A
S30650000AF201AC
S30650000AF300AC
S30650000AF42388
S30650000AF52684
S30650000AF601A8
S30650000AF700A8
S30650000AF803A4
S30650000AF9A600
S30650000AFA871E
S30650000AFB03A1
S30650000AFC1390
S30650000AFD079B
S30650000AFEF6AB
S30650000AFFFFA1
S30650000B00633B
S30650000B017627
S30650000B02E8B4
S30650000B030497
S30650000B040397
S30650000B052772
S30650000B068117
S30650000B070295
S30650000B082373
S30650000B09A4F1
S30650000B0AE6AE
S30650000B0B0093
S30650000B0C038F
S30650000B0D276A
S30650000B0EC1CF
S30650000B0F028D
S30650000B10236B
S30650000B11A6E7
S30650000B12E6A6
S30650000B13008B
S30650000B148307
S30650000B152564
S30650000B160187
S30650000B170285
S30650000B180383
S30650000B19275E
S30650000B1A4143
S30650000B1B0281
S30650000B1C136F
S30650000B1D156C
S30650000B1E87F9
S30650000B1F007F
S30650000B203747
S30650000B214736
S30650000B22007C
S30650000B23007B
S30650000B241367
S30650000B250772
S30650000B260771
S30650000B27F087
S30650000B28B3C3
S30650000B29B5C0
S30650000B2A650F
S30650000B2BF281
S30650000B2C333F
S30650000B2D77FA
S30650000B2EE58B
S30650000B2F006F
S30650000B30333B
S30650000B316706
S30650000B32B7B5
S30650000B33006B
S30650000B342347
S30650000B35A8C1
S30650000B36E682
S30650000B370067
S30650000B382343
S30650000B39AABB
S30650000B3A065E
S30650000B3B0063
S30650000B3C83DF
S30650000B3D253C
S30650000B3EC19F
S30650000B3F005F
S30650000B40134B
S30650000B410756
S30650000B42203C
S30650000B43005B
S30650000B4463F7
S30650000B455801
S30650000B46B7A1
S30650000B47084F
S30650000B486FE7
S30650000B490055
S30650000B4A0054
S30650000B4B0B48
S30650000B4C034F
S30650000B4D272A
S30650000B4EC18F
S30650000B4F004F
S30650000B50E36B
S30650000B514A03
S30650000B52E567
S30650000B53FA51
S30650000B540347
S30650000B552722
S30650000B56C187
S30650000B570047
S30650000B581333
S30650000B590342
S30650000B5A0143
S30650000B5B0340
S30650000B5C132F
S30650000B5D172A
S30650000B5E2719
S30650000B5F003F
S30650000B6093AB
S30650000B611528
S30650000B623606
S30650000B63003B
S30650000B643307
S30650000B650732
S30650000B66E355
S30650000B670037
S30650000B682313
S30650000B69280D
S30650000B6AB77D
S30650000B6BFE35
S30650000B6C83AF
S30650000B6DA58C
S30650000B6E47E9
S30650000B6F032C
S30650000B70032B
S30650000B712706
S30650000B72C16B
S30650000B73002B
S30650000B7483A7
S30650000B75A584
S30650000B760523
S30650000B770027
S30650000B7833F3
S30650000B79061F
S30650000B7A160E
S30650000B7B0320
S30650000B7C130F
S30650000B7D170A
S30650000B7E27F9
S30650000B7F001F
S30650000B8033EB
S30650000B819687
S30650000B82C557
S30650000B83001B
S30650000B8433E7
S30650000B850712
S30650000B86E335
S30650000B870017
S30650000B8823F3
S30650000B892CE9
S30650000B8AC74D
S30650000B8BFE15
S30650000B8C030F
S30650000B8DA76A
S30650000B8E47C9
S30650000B8F020D
S30650000B9013FB
S30650000B910607
S30650000B928785
S30650000B93000B
S30650000B9423E7
S30650000B95A267
S30650000B96C741
S30650000B970205
S30650000B980303
S30650000B99A65F
S30650000B9A877D
S30650000B9B0201
S30650000B9C13EF
S30650000B9D06FB
S30650000B9EF60A
S30650000B9FFF00
S30650000BA023DB
S30650000BA1AC51
S30650000BA207F5
S30650000BA302F9
S30650000BA423D7
S30650000BA5A455
S30650000BA6C731
S30650000BA702F5
S30650000BA86393
S30650000BA90CE9
S30650000BAA06EE
S30650000BAB00F3
S30650000BAC03EF
S30650000BAD26CB
S30650000BAE8769
S30650000BAF00EF
S30650000BB003EB
S30650000BB127C6
S30650000BB2C725
S30650000BB300EB
S30650000BB423C7
S30650000BB5AA3F
S30650000BB6C721
S30650000BB702E5
S30650000BB823C3
S30650000BB9AC39
S30650000BBAE7FD
S30650000BBB02E1
S30650000BBC6F73
S30650000BBD00E1
S30650000BBE8060
S30650000BBF00DF
S30650000BC023BB
S30650000BC1AA33
S30650000BC207D5
S30650000BC302D9
S30650000BC403D7
S30650000BC527B2
S30650000BC6C117
S30650000BC700D7
S30650000BC813C3
S30650000BC907CE
S30650000BCA17BD
S30650000BCB00D3
S30650000BCC23AF
S30650000BCD26AB
S30650000BCEE1EF
S30650000BCF00CF
S30650000BD06F5F
S30650000BD1F0DD
S30650000BD29F2D
S30650000BD3F2D9
S30650000BD46367
S30650000BD512B7
S30650000BD606C2
S30650000BD702C5
S30650000BD803C3
S30650000BD9A71E
S30650000BDA07BD
S30650000BDB04BF
S30650000BDC635F
S30650000BDD1EA3
S30650000BDE07B9
S30650000BDF00BF
S30650000BE0932B
S30650000BE107B6
S30650000BE2209C
S30650000BE310AB
S30650000BE42397
S30650000BE5A019
S30650000BE6F6C2
S30650000BE700B7
S30650000BE88333
S30650000BE9A70E
S30650000BEA06AE
S30650000BEB00B3
S30650000BECB3FF
S30650000BEDB7FA
S30650000BEE07A9
S30650000BEFDFD0
S30650000BF0E3CB
S30650000BF1BCF1
S30650000BF21795
S30650000BF3FEAD
S30650000BF46F3B
S30650000BF5F0B9
S30650000BF61F89
S30650000BF7ECBB
S30650000BF803A3
S30650000BF9A7FE
S30650000BFA069E
S30650000BFB01A2
S30650000BFC237F
S30650000BFD2081
S30650000BFEE1BF
S30650000BFF009F
S30650000C00930A
S30650000C010597
S30650000C02207B
S30650000C03108A
S30650000C041386
S30650000C050593
S30650000C067027
S30650000C070096
S30650000C080392
S30650000C09A6EE
S30650000C0A870C
S30650000C0B038F
S30650000C0CE3AE
S30650000C0D048C
S30650000C0E0689
S30650000C0FEAA4
S30650000C10038A
S30650000C11A8E4
S30650000C124744
S30650000C130387
S30650000C146326
S30650000C150A7E
S30650000C16087F
S30650000C170A7C
S30650000C181372
S30650000C19166E
S30650000C1A364D
S30650000C1B0082
S30650000C1C235E
S30650000C1D225E
S30650000C1EC1BE
S30650000C1F007E
S30650000C20136A
S30650000C210775
S30650000C22017A
S30650000C230377
S30650000C240376
S30650000C252652
S30650000C264136
S30650000C270076
S30650000C280372
S30650000C29274D
S30650000C2A076C
S30650000C2BFD75
S30650000C2C135E
S30650000C2D165A
S30650000C2E0669
S30650000C2F016D
S30650000C30333A
S30650000C313735
S30650000C320764
S30650000C33DF8B
S30650000C343336
S30650000C356701
S30650000C36E681
S30650000C370066
S30650000C382342
S30650000C39A8BC
S30650000C3AE67D
S30650000C3B0062
S30650000C3C035E
S30650000C3D2739
S30650000C3E411E
S30650000C3F005E
S30650000C40134A
S30650000C415705
S30650000C425704
S30650000C43401A
S30650000C443326
S30650000C453721
S30650000C46B7A0
S30650000C47E86E
S30650000C482332
S30650000C492430
S30650000C4AE172
S30650000C4B0052
S30650000C4C034E
S30650000C4D2729
S30650000C4E410E
S30650000C4F004E
S30650000C50331A
S30650000C513715
S30650000C5257F4
S30650000C53F456
S30650000C5463E6
S30650000C550840
S30650000C560740
S30650000C570046
S30650000C580342
S30650000C59271D
S30650000C5A81C2
S30650000C5B0042
S30650000C5C132E
S30650000C5D0739
S30650000C5E1728
S30650000C5F003E
S30650000C60231A
S30650000C612418
S30650000C62E15A
S30650000C63003A
S30650000C642316
S30650000C65A098
S30650000C66B681
S30650000C670036
S30650000C682312
S30650000C69260E
S30650000C6A0132
S30650000C6B0032
S30650000C6C131E
S30650000C6D0729
S30650000C6E012E
S30650000C6F032B
S30650000C70032A
S30650000C712606
S30650000C72C16A
S30650000C73002A
S30650000C740326
S30650000C752701
S30650000C7687A0
S30650000C77FD29
S30650000C7863C2
S30650000C7958CC
S30650000C7AE63D
S30650000C7B0220
S30650000C7C031E
S30650000C7DA779
S30650000C7E0619
S30650000C7F001E
S30650000C80130A
S30650000C8157C5
S30650000C828794
S30650000C830119
S30650000C84E336
S30650000C856CAC
S30650000C86E532
S30650000C87FE18
S30650000C880312
S30650000C8927ED
S30650000C8AC152
S30650000C8B0012
S30650000C8C13FE
S30650000C8D17F9
S30650000C8E27E8
S30650000C8F000E
S30650000C90030A
S30650000C917795
S30650000C92E823
S30650000C9320EA
S30650000C9423E6
S30650000C95AC5C
S30650000C96E621
S30650000C970006
S30650000C980302
S30650000C9927DD
S30650000C9AC142
S30650000C9B0002
S30650000C9C13EE
S30650000C9D07F9
S30650000C9E17E8
S30650000C9F00FE
S30650000CA023DA
S30650000CA126D6
S30650000CA2E11A
S30650000CA300FA
S30650000CA46F8A
S30650000CA5F008
S30650000CA69F58
S30650000CA7FCFA
S30650000CA803F2
S30650000CA9A74D
S30650000CAA06ED
S30650000CAB00F2
S30650000CAC33BE
S30650000CAD37B9
S30650000CAE07E8
S30650000CAFDF0F
S30650000CB0E30A
S30650000CB13CB0
S30650000CB217D4
S30650000CB3FEEC
S30650000CB423C6
S30650000CB5A444
S30650000CB606E1
S30650000CB700E6
S30650000CB823C2
S30650000CB9A63E
S30650000CBA06DD
S30650000CBB00E2
S30650000CBC23BE
S30650000CBDA838
S30650000CBE06D9
S30650000CBF00DE
S30650000CC023BA
S30650000CC1AA32
S30650000CC206D5
S30650000CC300DA
S30650000CC46F6A
S30650000CC500D8
S30650000CC6C017
S30650000CC700D6
S30650000CC813C2
S30650000CC916BE
S30650000CCA06CD
S30650000CCB01D1
S30650000CCC23AE
S30650000CCDAA26
S30650000CCEC609
S30650000CCF00CE
S30650000CD003CA
S30650000CD1A725
S30650000CD24784
S30650000CD302C8
S30650000CD413B6
S30650000CD506C2
S30650000CD68740
S30650000CD700C6
S30650000CD823A2
S30650000CD9A222
S30650000CDAC7FC
S30650000CDB02C0
S30650000CDC03BE
S30650000CDDA61A
S30650000CDE8738
S30650000CDF02BC
S30650000CE013AA
S30650000CE106B6
S30650000CE2F6C5
S30650000CE3FFBB
S30650000CE42396
S30650000CE5AC0C
S30650000CE607B0
S30650000CE702B4
S30650000CE82392
S30650000CE9A410
S30650000CEAC7EC
S30650000CEB02B0
S30650000CEC634E
S30650000CED0CA4
S30650000CEE06A9
S30650000CEF00AE
S30650000CF003AA
S30650000CF12686
S30650000CF28724
S30650000CF300AA
S30650000CF403A6
S30650000CF52781
S30650000CF6C7E0
S30650000CF700A6
S30650000CF82382
S30650000CF9AAFA
S30650000CFAC7DC
S30650000CFB02A0
S30650000CFC237E
S30650000CFDACF4
S30650000CFEE7B8
S30650000CFF029C
S30650000D006F2D
S30650000D01F0AB
S30650000D029FFB
S30650000D03F0A9
S30650000D042375
S30650000D05AAED
S30650000D06078F
S30650000D070293
S30650000D086F25
S30650000D09F0A3
S30650000D0A1F73
S30650000D0BF0A1
S30650000D0C830D
S30650000D0DA7E8
S30650000D0E0A84
S30650000D0F008D
S30650000D102369
S30650000D112863
S30650000D120189
S30650000D130089
S30650000D148305
S30650000D15A7E0
S30650000D1687FF
S30650000D170085
S30650000D188301
S30650000D19A7DC
S30650000D1A077B
S30650000D1B0081
S30650000D1C235D
S30650000D1D2A55
S30650000D1E017D
S30650000D1F007D
S30650000D202359
S30650000D212C4F
S30650000D220179
S30650000D230079
S30650000D242355
S30650000D252E49
S30650000D260175
S30650000D270075
S30650000D2883F1
S30650000D29A6CD
S30650000D2A076B
S30650000D2B0170
S30650000D2C036D
S30650000D2DA7C8
S30650000D2E8AE4
S30650000D2F006D
S30650000D302349
S30650000D312843
S30650000D32D199
S30650000D330069
S30650000D3493D5
S30650000D350562
S30650000D361056
S30650000D371055
S30650000D3883E1
S30650000D39263D
S30650000D3A075B
S30650000D3B045D
S30650000D3C63FD
S30650000D3D94CB
S30650000D3E0658
S30650000D3F025B
S30650000D401349
S30650000D410556
S30650000D424416
S30650000D430158
S30650000D44EF69
S30650000D451047
S30650000D461046
S30650000D470055
S30650000D4883D1
S30650000D49272C
S30650000D4A044E
S30650000D4B0051
S30650000D4C83CD
S30650000D4DD778
S30650000D4E87C7
S30650000D4F004D
S30650000D501339
S30650000D5198B3
S30650000D521733
S30650000D530148
S30650000D5463E5
S30650000D554601
S30650000D56083E
S30650000D571035
S30650000D581331
S30650000D59053E
S30650000D5A0939
S30650000D5B0041
S30650000D5CEF51
S30650000D5D102F
S30650000D5E80BE
S30650000D5F7EBF
S30650000D606FCD
S30650000D61003B
S30650000D62003A
S30650000D631029
S30650000D640335
S30650000D652512
S30650000D66C76F
S30650000D670332
S30650000D6863D1
S30650000D690A29
S30650000D6A052D
S30650000D6B0A27
S30650000D6C939D
S30650000D6D9699
S30650000D6E36F8
S30650000D6F002D
S30650000D702309
S30650000D712A01
S30650000D72D159
S30650000D730029
S30650000D740325
S30650000D752601
S30650000D7641E5
S30650000D770124
S30650000D7883A1
S30650000D7926FD
S30650000D7A0121
S30650000D7B0120
S30650000D7C130D
S30650000D7D1609
S30650000D7E0618
S30650000D7F011C
S30650000D80B369
S30650000D81B665
S30650000D820614
S30650000D83DF3A
S30650000D84B365
S30650000D8566B1
S30650000D86D640
S30650000D870015
S30650000D8823F1
S30650000D89A86B
S30650000D8AD73B
S30650000D8B0011
S30650000D8C838D
S30650000D8D26E9
S30650000D8E41CD
S30650000D8F010C
S30650000D909379
S30650000D91D635
S30650000D9256B4
S30650000D9340C9
S30650000D94B355
S30650000D95B651
S30650000D96B650
S30650000D97E81D
S30650000D9823E1
S30650000D992CD7
S30650000D9AD131
S30650000D9B0001
S30650000D9C837D
S30650000D9D26D9
S30650000D9E41BD
S30650000D9F01FC
S30650000DA0B349
S30650000DA1B645
S30650000DA256A4
S30650000DA3F405
S30650000DA46395
S30650000DA5886F
S30650000DA606F0
S30650000DA700F5
S30650000DA88371
S30650000DA926CD
S30650000DAA8171
S30650000DAB01F0
S30650000DAC935D
S30650000DAD8669
S30650000DAE16D8
S30650000DAF00ED
S30650000DB023C9
S30650000DB12CBF
S30650000DB2D119
S30650000DB300E9
S30650000DB423C5
S30650000DB5A047
S30650000DB6B72F
S30650000DB700E5
S30650000DB823C1
S30650000DB92EB5
S30650000DBA01E1
S30650000DBB00E1
S30650000DBC934D
S30650000DBD06D9
S30650000DBE01DD
S30650000DBF03DA
S30650000DC003D9
S30650000DC126B5
S30650000DC2C119
S30650000DC301D8
S30650000DC48355
S30650000DC5A631
S30650000DC68650
S30650000DC7FED7
S30650000DC86371
S30650000DC95A79
S30650000DCAD6FC
S30650000DCB02CF
S30650000DCC834D
S30650000DCDA629
S30650000DCE07C7
S30650000DCF00CD
S30650000DD09339
S30650000DD1D6F5
S30650000DD206C4
S30650000DD34188
S30650000DD4B315
S30650000DD5B611
S30650000DD68640
S30650000DD7EED7
S30650000DD8E3E1
S30650000DD98A39
S30650000DDA06BC
S30650000DDBFEC3
S30650000DDC833D
S30650000DDD2699
S30650000DDEC1FD
S30650000DDF01BC
S30650000DE09329
S30650000DE19625
S30650000DE22694
S30650000DE300B9
S30650000DE403B5
S30650000DE5A611
S30650000DE607AF
S30650000DE702B3
S30650000DE8A311
S30650000DE9664D
S30650000DEAC5ED
S30650000DEB00B1
S30650000DEC832D
S30650000DED2689
S30650000DEEC1ED
S30650000DEF01AC
S30650000DF09319
S30650000DF18625
S30650000DF21694
S30650000DF300A9
S30650000DF42385
S30650000DF52E79
S30650000DF6D1D5
S30650000DF700A5
S30650000DF86F35
S30650000DF9F0B3
S30650000DFA5F43
S30650000DFBFCA5
S30650000DFC831D
S30650000DFDA6F9
S30650000DFE0797
S30650000DFF009D
S30650000E00B3E8
S30650000E01B6E4
S30650000E020693
S30650000E03DFB9
S30650000E04E3B4
S30650000E05BCDA
S30650000E06167F
S30650000E07FE96
S30650000E082370
S30650000E09A4EE
S30650000E0A078A
S30650000E0B0090
S30650000E0C236C
S30650000E0DA6E8
S30650000E0E0786
S30650000E0F008C
S30650000E102368
S30650000E11A8E2
S30650000E120782
S30650000E130088
S30650000E142364
S30650000E15AADC
S30650000E16077E
S30650000E170084
S30650000E186F14
S30650000E190082
S30650000E1AC0C1
S30650000E1B0080
S30650000E1CB3CC
S30650000E1DB6C8
S30650000E1E0677
S30650000E1FDF9D
S30650000E202358
S30650000E21AAD0
S30650000E22D7A2
S30650000E230078
S30650000E2483F4
S30650000E252650
S30650000E26C7AE
S30650000E270272
S30650000E281360
S30650000E2986EC
S30650000E2A86EB
S30650000E2B0070
S30650000E2C234C
S30650000E2D2648
S30650000E2EC7A6
S30650000E2F026A
S30650000E300368
S30650000E312644
S30650000E320762
S30650000E330365
S30650000E341354
S30650000E350660
S30650000E36F66F
S30650000E37FF65
S30650000E382340
S30650000E392042
S30650000E3A075A
S30650000E3B045C
S30650000E3C233C
S30650000E3D2836
S30650000E3EC796
S30650000E3F025A
S30650000E4063F8
S30650000E410C4E
S30650000E420653
S30650000E430058
S30650000E440354
S30650000E45A6B0
S30650000E4686CF
S30650000E470054
S30650000E4883D0
S30650000E49A6AC
S30650000E4AC68B
S30650000E4B0050
S30650000E4C232C
S30650000E4D2E20
S30650000E4EC786
S30650000E4F024A
S30650000E502328
S30650000E51202A
S30650000E52D772
S30650000E530444
S30650000E546FD8
S30650000E55F056
S30650000E565FE6
S30650000E57EE56
S30650000E582320
S30650000E592E14
S30650000E5A073A
S30650000E5B023E
S30650000E5C6FD0
S30650000E5DF04E
S30650000E5EDF5E
S30650000E5FED4F
S30650000E6083B8
S30650000E61201A
S30650000E62C178
S30650000E630533
S30650000E641324
S30650000E650531
S30650000E660035
S30650000E670034
S30650000E680330
S30650000E69240E
S30650000E6A81B0
S30650000E6B052B
S30650000E6C83AC
S30650000E6D240A
S30650000E6E41EC
S30650000E6F0527
S30650000E700328
S30650000E712901
S30650000E720128
S30650000E730523
S30650000E7483A4
S30650000E7529FD
S30650000E76C164
S30650000E770420
S30650000E780320
S30650000E792AF8
S30650000E7A81A0
S30650000E7B041C
S30650000E7C839C
S30650000E7D2AF4
S30650000E7E41DC
S30650000E7F0418
S30650000E800318
S30650000E812BEF
S30650000E820118
S30650000E830414
S30650000E848394
S30650000E852BEB
S30650000E86C154
S30650000E870311
S30650000E881300
S30650000E890111
S30650000E8A0110
S30650000E8B060A
S30650000E8C67A8
S30650000E8D808E
S30650000E8E000D
S30650000E8F000C
S30650000E900308
S30650000E9125E5
S30650000E928584
S30650000E930008
S30650000E948384
S30650000E9527DF
S30650000E96C540
S30650000E970004
S30650000E9863A0
S30650000E999270
S30650000E9A07FA
S30650000E9B02FE
S30650000E9C13EC
S30650000E9D01FD
S30650000E9E01FC
S30650000E9FFFFD
S30650000EA013E8
S30650000EA105F5
S30650000EA245B4
S30650000EA300F8
S30650000EA423D4
S30650000EA526D0
S30650000EA611E4
S30650000EA700F4
S30650000EA8EF04
S30650000EA910E2
S30650000EAAC031
S30650000EAB6987
S30650000EAC836C
S30650000EAD20CE
S30650000EAEC12C
S30650000EAF00EC
S30650000EB013D8
S30650000EB105E5
